:1000000005C100000C94E2330C940D340C94383488
:100010000C9463340C948E340C94B9340C94E43402
:100020000C940F3524C1000022C1000020C1000043
:100030001EC100001CC100001AC1000018C1000050
:1000400016C1000014C1000012C1000010C1000060
:100050000EC100000CC100000AC100000C943A352A
:1000600006C100000C9436390C946C3900C10000B4
:10007000FEC00000FCC00000FAC00000F8C0000094
:10008000F6C00000F4C00000F2C00000F0C00000A4
:100090000C94C2390C94F839EAC00000E8C00000A2
:1000A000E6C00000E4C00000E2C00000E0C00000C4
:1000B000DEC00000DCC00000DAC00000D8C00000D4
:1000C000D6C00000D4C000000C94162F0C944E3AF9
:1000D0000C94843ACCC000000C94DA3A0C94103B97
:1000E000C6C0000000000A0B02090C0D0E08070331
:1000F00004010000000000000000000000000000FB
:1001000000000000000000000000000000000000EF
:1001100012111000000000000000000000000000AC
:100120000000000000000000000001021020200874
:100130000810204010204080020102010804020142
:1001400001020408102040808040201008040201B1
:10015000800402018040201008040201080402010A
:100160000102040810204080010204081020408091
:1001700005050505070508080808020202020A0A23
:100180000808040404040101010101010101030341
:10019000030303030303040707070C0C0C0C0C0CEC
:1001A0000C0C0202020206060606060606060B0BE9
:1001B0000B0B0B0B0B0B000020002300260029006B
:1001C0002C002F003200000100000301060109018C
:1001D00000002200250028002B002E0031003400F2
:1001E00002010000050108010B01000021002400AC
:1001F00027002A002D003000330001010000040117
:1002000007010A019539213AAD3A393B11241FBE45
:10021000CFEFD1E2DEBFCDBF00E00CBF13E0A0E026
:10022000B2E0EAEFF7E700E00BBF02C007900D92E3
:10023000A637B107D9F72BE0A6E7B3E001C01D92BE
:10024000A535B207E1F711E0C6E0D1E000E006C055
:1002500021970109802FFE010E94CA3BC230D107BD
:1002600080E00807A9F70E9408300C94FB3BC8CE39
:10027000611102C00C947B376130E1F362E0FACF88
:10028000662319F061E00C94B73760E0FCCFCF92A1
:10029000DF92EF92FF92CF93882351F16A017B01A5
:1002A000CFEFC80F20E030E0A901CB01B6010E94DA
:1002B000103187FF11C0C701B60190580E948131EB
:1002C0009B01AC016C2F70E090E080E0CF91FF903B
:1002D000EF90DF90CF90B2C0C701B6010E947C3191
:1002E0008C2FCF91FF90EF90DF90CF900C94413600
:1002F000CF91FF90EF90DF90CF9008950F931F93D1
:100300008B019C0183E036952795179507958A9573
:10031000D1F70A581C4F462F477021E030E0F90111
:1003200002C0EE0FFF1F4A95E2F7AF01F8012081EE
:100330002423CB010196211102C090E080E01F919F
:100340000F9108950F931F938B019C0183E03695C5
:100350002795179507958A95D1F7677081E090E00A
:1003600001C0880F6A95EAF7F801EA58FC4F20812E
:10037000452B31F48095822380831F910F9108953E
:10038000822BFACF2F923F924F925F926F927F9281
:100390008F929F92AF92BF92CF92DF92EF92FF9295
:1003A0000F931F93CF93DF93D62EC72E782E692EEF
:1003B00049015A01280161E08D2D0E947B37CD2D26
:1003C000DC2D8E010F5F1F4FA8016D2D7C2D872D19
:1003D000962DB8DF20E030E0A901C201B7010E94EC
:1003E0000033181664F4C201B7010E9481312B0159
:1003F000C501B4010E948131A201CE0123D0C80100
:10040000DF91CF911F910F91FF90EF90DF90CF90F0
:10041000BF90AF909F908F907F906F905F904F9024
:100420003F902F900895882341F08150682F70E00D
:1004300090E080E050E040E085CF0895862FB9013C
:100440000C9441369C01FC01EC51FF4FE491E150CA
:10045000E231E0F4F0E08827EF5CFD4F8F4F0C9421
:10046000CA3B43024A024D026402790246028E02EE
:100470009A029E02B502CA02DF02F6020B0346028E
:10048000200337034C0384B5806884BD60E0822F6D
:100490000C94B73784B58062F8CF809180008C7F50
:1004A00082608093800080918100807E8061682BD3
:1004B0006093810050938700409386008091800074
:1004C000806880938000E2CF809180008C7F826082
:1004D0008093800080918100807E8061682B609392
:1004E0008100509387004093860080918000806255
:1004F000E8CF809180008C7F826080938000809123
:100500008100807E8061682B60938100509387001A
:1005100040938600809180008860D3CF8091B000A6
:1005200080688093B0008091B100887F682B6093D1
:10053000B100ACCF8091B0008062F3CF8091900089
:100540008C7F82608093900080919100807E80619A
:10055000682B609391005093970040939600809190
:10056000900080688093900091CF809190008C7F64
:1005700082608093900080919100807E8061682BE2
:100580006093910050939700409396008091900063
:100590008062E8CF809190008C7F82608093900091
:1005A00080919100807E8061682B609391005093D0
:1005B000970040939600809190008860D3CF8091FF
:1005C000A0008C7F82608093A0008091A100807E3B
:1005D0008061682B6093A1005093A7004093A60010
:1005E0008091A00080688093A00050CF8091A000EF
:1005F0008C7F82608093A0008091A100807E8061CA
:10060000682B6093A1005093A7004093A6008091AF
:10061000A0008062E8CF8091A0008C7F82608093F0
:10062000A0008091A100807E8061682B6093A10072
:100630005093A7004093A6008091A0008860D3CF7C
:10064000809120018C7F8260809320018091210124
:10065000807E8061682B6093210150932701409335
:100660002601809120018068809320010FCF809126
:1006700020018C7F82608093200180912101807E07
:100680008061682B609321015093270140932601DC
:10069000809120018062E8CF809120018C7F826070
:1006A0008093200180912101807E8061682B60937E
:1006B00021015093270140932601809120018860F9
:1006C000D3CFFC01A781B0858C9191858923A4812A
:1006D000B5819C91408151816281738126819223F1
:1006E00059F081110BC04F5F5F4F6F4F7F4F4083B9
:1006F00051836283738308958111F5CF415051096D
:1007000061097109F4CF80E893E0DBCF8BE893E0D7
:10071000D8CF86E993E0D5CF81EA93E0D2CFFC0130
:10072000A481B5818C9196818923A781B0859C9104
:1007300040815181628173812185922359F0882300
:1007400059F04F5F5F4F6F4F7F4F408351836283FC
:10075000738308958823A9F34150510961097109F0
:10076000F4CF80E893E0DBCF8BE893E0D8CF86E945
:1007700093E0D5CF81EA93E0D2CF0F931F93CF932D
:10078000DF93D82FC62F8A01A0917F038BE0A89F0B
:10079000D0011124A058BC4F1D921D921D921C9295
:1007A000139781E01A968C931A978D2F90E0FC0195
:1007B000E65DFE4FE4911696EC931697FC01E05926
:1007C000FE4FE491F0E0EE0FFF1FEA54FE4F8591DB
:1007D000949115969C938E931497862F90E0FC012C
:1007E000E65DFE4FE4911996EC931997FC01E059F0
:1007F000FE4FE491F0E0EE0FFF1FEA54FE4F8591AB
:10080000949118969C938E93179760E08D2F0E9479
:100810007B3760E08C2F0E947B3780917F03813093
:1008200009F43FC0A8F0823009F462C0833009F4B3
:1008300086C080917F0391E0980F90937F03F80129
:10084000808390E080E0DF91CF911F910F91089518
:1008500080E0D23049F081E0D33031F08EEE8D0F60
:100860008430D8F487E18D1B41E050E063E873E009
:100870000E94683380E0C23049F081E0C33031F03B
:100880008EEE8C0F843058F487E18C1B41E050E0F1
:1008900061EB73E00E946833CCCF8FEFE5CF8FEF31
:1008A000F5CF80E0D23049F081E0D33031F08EEEE8
:1008B0008D0F8430C8F487E18D1B41E050E066E87D
:1008C00073E00E94683380E0C23049F081E0C330B9
:1008D00031F08EEE8C0F843048F487E18C1B41E0C0
:1008E00050E064EB73E0D6CF8FEFE7CF8FEFF7CF19
:1008F00080E0D23049F081E0D33031F08EEE8D0FC0
:100900008430C8F487E18D1B41E050E069E873E072
:100910000E94683380E0C23049F081E0C33031F09A
:100920008EEE8C0F843048F487E18C1B41E050E060
:1009300067EB73E0AFCF8FEFE7CF8FEFF7CF80E0BC
:10094000D23049F081E0D33031F08EEE8D0F84301B
:10095000C8F487E18D1B41E050E06CE873E00E9431
:10096000683380E0C23049F081E0C33031F08EEE70
:100970008C0F843048F487E18C1B41E050E06AEB37
:1009800073E088CF8FEFE7CF8FEFF7CF9BE0899FA2
:10099000F0011124E058FC4F80819181A281B38144
:1009A000FB0180839183A283B38390E080E008956C
:1009B0009BE0899FF0011124E058FC4F10821182C6
:1009C0001282138290E080E0089590E080E0089524
:1009D000CF93DF93EC0170E060E06C177D070CF5BE
:1009E000072E000C880B990B0E94AF3120E030E0FD
:1009F000A9010E94993020E030E0A9010E949930BD
:100A000020E030E040E450E40E94993020E030E003
:100A100040E450E40E9498300E947C316F5F7F4F29
:100A2000DCCFDF91CF910895CF93DF938091BC030A
:100A30009091BD030E94E437EC018091C203909134
:100A4000C303C6DF8091BE039091BF030E94E437C9
:100A5000019771F48091C0039091C103219771F4C3
:100A600001969093C1038093C003DF91CF910895C5
:100A70008091C0039091C103CD2B91F30197F1CFE9
:100A8000CF93DF938091B4039091B5030E94E43734
:100A9000EC018091BA039091BB039ADF8091B60379
:100AA0009091B7030E94E437019771F48091B803E5
:100AB0009091B903219771F401969093B9038093B3
:100AC000B803DF91CF9108958091B8039091B90355
:100AD000CD2B91F30197F1CFCF93DF938091AC03AE
:100AE0009091AD030E94E437EC018091B2039091A4
:100AF000B3036EDF8091AE039091AF030E94E437A1
:100B0000019771F48091B0039091B103219771F432
:100B100001969093B1038093B003DF91CF91089534
:100B20008091B0039091B103CD2B91F30197F1CF58
:100B3000CF93DF938091B6039091B7030E94E4377F
:100B4000EC018091BA039091BB0342DF8091B40322
:100B50009091B5030E94E437019771F48091B80336
:100B60009091B903CD2B71F401969093B9038093C2
:100B7000B803DF91CF9108958091B8039091B903A4
:100B8000219791F30197F1CFCF93DF938091AE033B
:100B90009091AF030E94E437EC018091B2039091F1
:100BA000B30316DF8091AC039091AD030E94E4374C
:100BB000019771F48091B0039091B103CD2B71F442
:100BC00001969093B1038093B003DF91CF91089584
:100BD0008091B0039091B103219791F30197F1CFE8
:100BE000CF93DF938091BE039091BF030E94E437BF
:100BF000EC018091C2039091C303EADE8091BC03B3
:100C00009091BD030E94E437019771F48091C00375
:100C10009091C103CD2B71F401969093C103809301
:100C2000C003DF91CF9108958091C0039091C103DB
:100C3000219791F30197F1CF0F931F93CF93DF93F8
:100C40008C01EC0183E0CC0FDD1F8A95E1F7C455E0
:100C5000DC4F798368835B834A838881998160E074
:100C60000E947B378A819B8160E00E947B3788816C
:100C7000998161E00E94B7378A819B8161E00E947F
:100C8000B73701301105D9F10230110509F466C0FA
:100C9000012B09F092C08091AC039091AD030297B3
:100CA0008431910530F583549D4FFC018081082EDD
:100CB000000C990B41E050E064EC75E00E94683351
:100CC0008091AE039091AF03029784319105A0F417
:100CD00083549D4FFC018081082E000C990B41E04C
:100CE00050E06CE675E0DF91CF911F910F910C946D
:100CF00068338FEF9FEFDECF8FEF9FEFF0CF8091C4
:100D0000B4039091B50302978431910508F583549B
:100D10009D4FFC018081082E000C990B41E050E0B2
:100D200068E975E00E9468338091B6039091B7033B
:100D300002978431910578F483549D4FFC018081A2
:100D4000082E000C990B41E050E060E475E0CBCF39
:100D50008FEF9FEFE3CF8FEF9FEFF5CF8091BC0335
:100D60009091BD0302978431910508F583549D4FFE
:100D7000FC018081082E000C990B41E050E060EFEF
:100D800075E00E9468338091BE039091BF03029783
:100D90008431910578F483549D4FFC018081082EA5
:100DA000000C990B41E050E064E175E09CCF8FEFBF
:100DB0009FEFE3CF8FEF9FEFF5CFDF91CF911F91A3
:100DC0000F91089523E0880F991F2A95E1F7FC0100
:100DD000E455FC4F84819581089590E080E008956A
:100DE0000F931F93009709F489C06115710509F4E9
:100DF00085C0009184021091850220918602309175
:100E000087020E3F1F4F2F4F3F4F09F068C04FEF33
:100E10005FEFBA014093840250938502609386028B
:100E200070938702409184025091850260918602FE
:100E300070918702DC011296ED91FC918081918185
:100E4000A281B3818093CC049093CD04A093CE046F
:100E5000B093CF0484819581A681B7818093C80423
:100E60009093C904A093CA04B093CB048085918564
:100E7000A285B3858093C4049093C504A093C6044F
:100E8000B093C70484859585A685B7858093C004F3
:100E90009093C104A093C204B093C3041092BC0405
:100EA0001092BD041092BE041092BF040E94FA1268
:100EB0008FE193E19093C5038093C4039093C7039C
:100EC0008093C6030E94E911009731F421E030E0DD
:100ED0003093D1042093D0041F910F910895009175
:100EE0008402109185022091860230918702DB01F5
:100EF0000D931D932D933C93139794CF8FEF9FEFFA
:100F0000EBCF8F929F92AF92BF92CF92DF92EF92F0
:100F1000FF921F93CF93DF934B015C011091D30499
:100F200082E090E09093D1048093D00481149104E6
:100F3000A104B10441F48091D304811104C08091D3
:100F4000D204C1E08111C0E0C12CD12C7601809186
:100F5000D304811106C08091D204811102C0CC2338
:100F6000D9F083E090E09093D1048093D004CC2317
:100F700081F1CCE9DFEF111102C00E948416CE018D
:100F8000DF91CF911F91FF90EF90DF90CF90BF90B6
:100F9000AF909F908F9008956AE070E080E090E0BD
:100FA0000E94A93580E1C80E87E2D81EE11CF11C21
:100FB0008FEF88169806A806B80631F0C1E08C14A9
:100FC0009D04AE04BF0408F0C0E080E00E941D1242
:100FD000BECFD0E0C0E0CFCFCF92DF92EF92FF92B2
:100FE0000F931F93CF93DF938F3F910511F008F07C
:100FF00051C02091D0043091D1042330310539F013
:101000002091D0043091D1042130310531F424E015
:1010100030E03093D1042093D0046A017B01EC01CD
:1010200082309105A8F011E0AE01C701B6010E941F
:10103000E811AB01BC01CE011123F9F0DF91CF9192
:101040001F910F91FF90EF90DF90CF900C94AD180F
:101050008C01000F111F0C531C4FD8018D919C91D6
:10106000892B09F30E94B7180297E9F6D801ED9190
:10107000FC91CE011995182FD7CF0E94CF1890E080
:1010800080E0DF91CF911F910F91FF90EF90DF9063
:10109000CF9008958FEF9FEFF4CF80E00C941D1256
:1010A000CF93DF9386E090E09093D1048093D004B7
:1010B0000E947612EC01E4ECF3E084E0DF011D9283
:1010C0008A95E9F70E941C161092D1041092D00460
:1010D000CE01DF91CF9108958091D204089580913F
:1010E000BB04089560938402709385028093860206
:1010F0009093870290E080E008954F925F926F9204
:101100007F928F929F92AF92BF92CF92DF92EF9297
:10111000FF92CF93DF9300D01F92CDB7DEB74B0184
:101120005C0169017A010E94E5108823E9F0809052
:10113000470B9090480BA090490BB0904A0BC5010B
:10114000B4010F900F900F900F90DF91CF91FF900F
:10115000EF90DF90CF90BF90AF909F908F907F9057
:101160006F905F904F900895C701B6010E94E510FF
:101170008111DDCFC501B401E3D78111D8CFC701FB
:10118000B601DED78111DBCF20E030E0A901C70135
:10119000B6010E94103187FF4CC0C701B6010E9402
:1011A000FD302B013C01A3019201C701B6010E9451
:1011B0001031882309F44CC0A7019601C501B40180
:1011C0000E9414312B013C01E89477F820E030E0D4
:1011D00040E05FE3C301B2010E9499300E94EA310E
:1011E0009B01AC01C301B2010E9498309B01AC018C
:1011F0005F7729833A834B835C8320E030E040E0D3
:1012000054E3C301B2010E9404339B01AC01698124
:101210007A818B819C810E9400331816CCF020E0EB
:1012200030E0A901C501B4010E9404334B015C0107
:1012300086CFC701B6010E94EA312B013C0120E0B4
:1012400030E0A901C701B6010E9410318111ABCF76
:10125000A7019601C501B4010F900F900F900F9058
:10126000DF91CF91FF90EF90DF90CF90BF90AF9044
:101270009F908F907F906F905F904F900C9404326E
:10128000CF92DF92EF92FF926B017C019F7720E07B
:1012900030E040E859E50E94103187FF2BC020E084
:1012A00030E040E05FE3C701B6010E94003387FDF4
:1012B0000EC020E030E040E05FE3C701B6010E94CD
:1012C0009930FF90EF90DF90CF900C94EA3120E0BE
:1012D00030E040E05FEBC701B6010E940033181612
:1012E00084F420E030E0A901C701B6010E94043374
:1012F0006B017C01C701B601FF90EF90DF90CF90AA
:10130000089520E030E040E05FE3C701B6010E94AD
:101310009830FF90EF90DF90CF900C94FD302F929B
:101320003F924F925F926F927F928F929F92AF9275
:10133000BF92CF92DF92EF92FF920F931F93CF93C2
:10134000DF9300D000D01F921F92CDB7DEB7C090C0
:101350002802D0902902E0902A02F0902B02A701E7
:1013600096016091DC0A7091DD0A8091DE0A90910D
:10137000DF0A0E941031882341F0C092DC0AD0922B
:10138000DD0AE092DE0AF092DF0A8091DB0A811129
:101390001092DB0ABE016F5F7F4F8091E00AF6DAA0
:1013A00020911002309111024091120250911302CB
:1013B0006AEB78EE82E091E40E9414316B017C01CB
:1013C00069817A818B819C810E94AF319B01AC0144
:1013D000C701B6010E9404336093A40A7093A50A62
:1013E0008093A60A9093A70A20914802309149025F
:1013F00040914A0250914B020E9404331B012C0180
:101400002092A80A3092A90A4092AA0A5092AB0AE6
:10141000E0919504F0919604C080D180E280F38041
:101420006090030B7090040B8090050B9090060B5E
:10143000A7019601B301C4010E94003387FDB2C227
:10144000A701960160910B0B70910C0B80910D0B15
:1014500090910E0B0E94003387FDA4C21092AC0A3B
:101460001092AD0A1092AE0A1092AF0A80902C0230
:1014700090902D02A0902E02B0902F02A501940111
:101480006091E70A7091E80A8091E90A9091EA0A6E
:101490000E941031882341F08092E70A9092E80A76
:1014A000A092E90AB092EA0A90E080E08BDCBC01ED
:1014B000990F880B990B69837A838B839C830E9495
:1014C000AF3120914C0230914D0240914E0250912B
:1014D0004F020E94043320915002309151024091FA
:1014E0005202509153020E9404336093B00A7093E9
:1014F000B10A8093B20A9093B30A209154023091BA
:10150000550240915602509157020E9499304B016A
:101510005C018092B40A9092B50AA092B60AB09289
:10152000B70A209158023091590240915A025091C5
:101530005B020E94003318160CF080C2409030020B
:101540005090310260903202709033022091340248
:10155000309135024091360250913702C501B401F5
:101560000E949930A3019201C8DD9B01AC016091FA
:1015700038027091390280913A0290913B020E94A8
:1015800099306093B80A7093B90A8093BA0A90931D
:10159000BB0A6090130B7090140B8090150B909009
:1015A000160B10911B0B00911C0BB0901D0BA09003
:1015B0001E0BA7019601B301C4010E940033212F25
:1015C000302F4B2D5A2D87FD5BC2C701B6010E94FB
:1015D000103118160CF4BAC31092BC0A1092BD0A4E
:1015E0001092BE0A1092BF0AC090A80AD090A90A11
:1015F000E090AA0AF090AB0AC092C00AD092C10A49
:10160000E092C20AF092C30A6091B80A7091B90AD6
:101610008091BA0A9091BB0A9F772091680230911D
:10162000690240916A0250916B020E9400331816C1
:101630000CF066C28091640290916502A0916602EE
:10164000B09167028093C40A9093C50AA093C60A1A
:10165000B093C70A2091C40A3091C50A4091C60AC6
:101660005091C70A60916C0270916D0280916E0278
:1016700090916F020E9404335B018C01CB01D80171
:101680008093C80A9093C90AA093CA0AB093CB0A60
:10169000C0907002D0907102E0907202F0907302DC
:1016A000A7019601B501C8010E940033181694F0F5
:1016B000C0907402D0907502E0907602F0907702AC
:1016C000A7019601B501C8010E94103187FD02C033
:1016D00065017801D701C601BF778093CC0A90934A
:1016E000CD0AA093CE0AB093CF0A66E070E080E006
:1016F00090E00E947E018C019093020B8093010B7D
:101700008090CC0A9090CD0AA090CE0AB090CF0ADB
:1017100020E030E04FE753E4C501B4010E941031EE
:1017200018160CF4A6C220E030E0A901C501B401EE
:101730000E94003387FDA4C2B501A401C8010E9424
:101740004701A7019601609180027091810280910A
:101750008202909183020E94103118160CF494C2F8
:101760008091780290917902A0917A02B0917B02E7
:101770008093D00A9093D10AA093D20AB093D30A4F
:1017800011E020E030E0A9016091D00A7091D10A07
:101790008091D20A9091D30A0E941031811110E0F9
:1017A0001093D40A612F87E00E9440016091D00A13
:1017B0007091D10A8091D20A9091D30A61DD6B01B8
:1017C0007C0120E030E040E853E40E9410316FEFEC
:1017D00087FF0EC020E030E0A901C701B6010E94DA
:1017E000003360E087FD04C0C701B6010E9481316B
:1017F00088E00E9440018091030B9091040BA0911E
:10180000050BB091060B8D839E83AF83B887C09084
:10181000430BD090440BE090450BF090460BA70192
:101820009601BC01CD010E941031009195041091E8
:101830009604811132C2F80180819181A281B38125
:101840008093030B9093040BA093050BB093060BAE
:10185000E7E0FBE08091A80A9091A90AA091AA0A6A
:10186000B091AB0A80839183A283B3838091130BE1
:101870009091140BA091150BB091160B8D839E8344
:10188000AF83B8879C01AD01C701B6010E9410313A
:10189000D8018D909D90AD90BC90811131C2809205
:1018A000130B9092140BA092150BB092160BE7E15C
:1018B000FBE08091B00A9091B10AA091B20AB09178
:1018C000B30A80839183A283B383409182045091B1
:1018D0008304609184047091850490E080E07CDB57
:1018E00040918A0450918B0460918C0470918D0416
:1018F00081E090E071DB60918204709183048091BB
:101900008404909185046F5F7F4F8F4F9F4F60934A
:1019100082047093830480938404909385040091DF
:101920009504109196040E94AD319B01AC01609129
:1019300086047091870480918804909189040E94A4
:101940000433F801608371838283938380918A04D6
:1019500090918B04A0918C04B0918D040196A11DEF
:10196000B11D80938A0490938B04A0938C04B09350
:101970008D0428960FB6F894DEBF0FBECDBFDF9161
:10198000CF911F910F91FF90EF90DF90CF90BF907C
:10199000AF909F908F907F906F905F904F903F900F
:1019A0002F900895A0900B0BB0900C0B00910D0B95
:1019B00010910E0B9501A801B301C4010E941031D2
:1019C000A701960187FF2BC0B501C8010E94103105
:1019D00087FD2BC02091070B3091080B4091090B1C
:1019E00050910A0B53018401C201B1010E94983049
:1019F0002B013C019501A801C701B6010E94983056
:101A00009B01AC01C301B2010E9414316093AC0A86
:101A10007093AD0A8093AE0A9093AF0A27CDB301BD
:101A2000C4010E94003387FDD5CF20910F0B309168
:101A3000100B4091110B5091120BD6CF40903C02ED
:101A400050903D0260903E0270903F022091400213
:101A5000309141024091420250914302C501B401CC
:101A60000E949930A301920148DB9B01AC01609177
:101A700044027091450280914602909147027FCDC9
:101A8000B301C4010E94103187FF0BC0212F302FFA
:101A90004B2D5A2DC701B6010E94003318160CF4C5
:101AA0005FC12091170B3091180B4091190B509189
:101AB0001A0B162D072DB82CA92C6091B00A709125
:101AC000B10A8091B20A9091B30A0E9498302B011A
:101AD0003C01212F302F4B2D5A2DC701B6010E94FA
:101AE00098309B01AC01C301B2010E941431609394
:101AF000BC0A7093BD0A8093BE0A9093BF0A74CD4E
:101B00002091240230912502409126025091270213
:101B1000C701B6010E94003318160CF08AC08090ED
:101B20005C0290905D02A0905E02B0905F022091F6
:101B30001402309115024091160250911702C7010C
:101B4000B6010E949930A5019401D7DA20911802BC
:101B50003091190240911A0250911B020E94993053
:101B60006B017C0160910402709105028091060274
:101B70009091070290582091B80A3091B90A40918B
:101B8000BA0A5091BB0A0E9404334B015C01609178
:101B9000000270910102809102029091030290581C
:101BA000A70196010E9404339B01AC01C501B40159
:101BB0000E9499306B017C016091080270910902CA
:101BC00080910A0290910B0290582091AC0A3091BA
:101BD000AD0A4091AE0A5091AF0A0E9404339B01B6
:101BE000AC01C701B6010E9499306B017C01609184
:101BF0000C0270910D0280910E0290910F0290588C
:101C00002091BC0A3091BD0A4091BE0A5091BF0A92
:101C10000E9404339B01AC01C701B6010E949930B8
:101C20006093C40A7093C50A8093C60A9093C70A4A
:101C300011CD8090600290906102A0906202B090FD
:101C4000630220911C0230911D0240911E025091AE
:101C50001F02C701B6010E949930A50194014DDA17
:101C600020912002309121024091220250912302C2
:101C700075CF812C912C8FE7A82E83E4B82E5CCDF4
:101C8000812C912C540158CD80917C0290917D0241
:101C9000A0917E02B0917F026BCD40900B0B5090D3
:101CA0000C0B60900D0B70900E0BD8018D909D90D9
:101CB000AD90BC90A3019201C701B6010E94103102
:101CC00081110BC080920B0B90920C0BA0920D0B0C
:101CD000B0920E0BEFE0FBE0BDCDA30192016D8150
:101CE0007E818F8198850E94103187FFEBCF809293
:101CF000030B9092040BA092050BB092060BA8CD9B
:101D000040901B0B50901C0B60901D0B70901E0B95
:101D1000A3019201C701B6010E94103181110BC0CD
:101D200080921B0B90921C0BA0921D0BB0921E0B6D
:101D3000EFE1FBE0BECDA30192016D817E818F8139
:101D400098850E94103187FFEBCFA9CD212F302F2E
:101D50004B2D5A2DB301C4010E94103187FD96CE40
:101D600020911F0B3091200B4091210B5091220BA1
:101D7000A4CE8F929F92AF92BF92DF92EF92FF928A
:101D80000F931F93CF93DF9384E090E0A2D1EAEE0C
:101D9000F3E082E994E097838683C5E9D4E0D093A9
:101DA0002B04C0932A0406E814E0158B048BF093EF
:101DB0005504E0935404F583E48321E030E0DC0132
:101DC0002D933C9381ED92E09387828727E934E05D
:101DD0003983288340E050E060E87FEB40938E0435
:101DE00050938F0460939004709391044AE057EDF0
:101DF00063E27CE3D8014D935D936D937C931397DD
:101E0000C0E7D4E08DE397E4A1EFBEE8888399832F
:101E1000AA83BB8388E19BE1A4E1BCE080937404C6
:101E200090937504A0937604B09377048BE792EABD
:101E3000A2ECB6EA8093780490937904A0937A0494
:101E4000B0937B048FEA97E1A2EBBDEE80937C0414
:101E500090937D04A0937E04B0937F04AEEDB3E035
:101E6000B383A283E8ECF3E01196FC93EE9383EE48
:101E700092E0918380839383828395838483978385
:101E800086839187808793878287958784879787C2
:101E90008687918B808B938B828B958B848B80E84C
:101EA00094E015969C938E9314971396DC93CE939F
:101EB000129717963C932E9316978091430B90910F
:101EC000440BA091450BB091460BC5EDDAE08EA70F
:101ED0009FA7A8ABB9AB8EAB9FABA8AFB9AF8093B0
:101EE000130B9093140BA093150BB093160B8093C8
:101EF0001B0B90931C0BA0931D0BB0931E0B1B860A
:101F0000188200E012E0F80180A591A5A2A5B3A572
:101F10008F839887A987BA87812C912C5401839449
:101F200089829A82AB82BC8240EE5AE063E082E012
:101F30000E94BD03DD24D394DD821E828B850E9426
:101F4000D8041C86F80184A595A5A6A5B7A58A8BFB
:101F50009B8BAC8BBD8B8D869E86AF86B88A43E10A
:101F600050E062E170E090E080E00E941C06D98AB7
:101F70001EA28FA298A6A9A6BAA6E12CF12C8701D1
:101F8000A801970166E070E080E090E00E94C20145
:101F90009DA78CA7DBA61E8E8F8E98A2A9A2BAA29F
:101FA00061E087E00E943801DBA21E8A8F8A988E4A
:101FB000A98EBA8E61E088E00E943801DB8EDF9145
:101FC000CF911F910F91FF90EF90DF90BF90AF9056
:101FD0009F908F9008958091D50A811114C081E05F
:101FE0008093D50A8091D60A9091D70AA091D80AF9
:101FF000B091D90A0197A105B10529F48091DA0AB7
:1020000081110E94E5048091E10A811103C081E001
:102010008093E10A8091FB0A81112EC081E08093B8
:10202000FB0A8091FC0A9091FD0AA091FE0AB091F2
:10203000FF0A0197A105B105F9F48091000B8823EF
:10204000D9F066E070E080E090E00E947E0190931D
:10205000020B8093010B40E050E0BA010E9447015F
:1020600066E070E080E090E00E947E019093020BB9
:102070008093010B0E9413028091F30A811103C027
:1020800081E08093F30A8091EB0A811103C081E023
:102090008093EB0A089560E070E080E89FE7089580
:1020A00060E070E080E89FE7089560E070E080E81D
:1020B0009FEF089560E070E080E89FEF089560E092
:1020C00070E080EC9FEF089560E070E080EC9FEF9F
:1020D0000895F5DF6093470B7093480B8093490B8D
:1020E00090934A0BF1DF60933B0B70933C0B809312
:1020F0003D0B90933E0BCFDF6093430B7093440BEB
:102100008093450B9093460BCBDF60933F0B70930E
:10211000400B8093410B9093420BC7DF60934B0BB6
:1021200070934C0B80934D0B90934E0BC3DF6093D9
:102130004F0B7093500B8093510B9093520B08955B
:10214000CF92DF92EF92FF92CF936B017C01AC01B3
:102150009B016091430B7091440B8091450B9091D2
:10216000460B0E941031C1E0882371F0A70196014F
:1021700060914B0B70914C0B80914D0B90914E0BDD
:102180000E9410318111C0E08C2FCF91FF90EF9011
:10219000DF90CF9008950F931F938B019C01002730
:1021A000112720783F770115110520483F4749F452
:1021B000AB01BC016F77772781E0452B462B472B7E
:1021C00009F480E01F910F910895E5CF4F925F923F
:1021D0006F927F928F929F92AF92BF92CF92DF9237
:1021E000EF92FF920F931F93F8944090AB0450909E
:1021F000AC046090AD047090AE04C0909F04D09089
:10220000A004E090A104F090A2044130510509F02F
:10221000A4C09B01AC0124193509460957092901BD
:102220003A010091A7041091A8042091A9043091CB
:10223000AA0448015901840C951CA61CB71C8016E1
:102240009106A206B306A0F40091A3041091A40481
:102250002091A5043091A6040F5F1F4F2F4F3F4FD1
:102260000093A3041093A4042093A5043093A60420
:102270008092A7049092A804A092A904B092AA0404
:102280000091A3041091A4042091A5043091A60408
:102290008092AF049092B004A092B104B092B204C4
:1022A0000093B3041093B4042093B5043093B604A0
:1022B0006093AB047093AC048093AD049093AE0430
:1022C000A0E1B7E2A30192010E94D23B6C0D7D1DFB
:1022D0008E1D9F1D60939F047093A0048093A104A2
:1022E0009093A204009184021091850220918602AD
:1022F000309187020F3F1F4F2F4F3F4FF1F000915A
:1023000084021091850220918602309187020E3F4F
:102310001F4F2F4F3F4F89F0C0908402D09085020D
:10232000E0908602F090870221E08C149D04AE04B8
:10233000BF0408F420E02093BB0478941F910F9110
:10234000FF90EF90DF90CF90BF90AF909F908F90D5
:102350007F906F905F904F9008954B015C018418BF
:102360009508A608B708A3019201261B370B480B56
:10237000590B6415750586059705D0F082169306EE
:10238000A406B50640F420E030E0A90181149104D0
:10239000A104B10491F4A0E1B7E20E94D23BA701ED
:1023A0009601261B370B480B590BCA01B901C5CF43
:1023B00082169306A406B50670F7A0E1B7E2A50160
:1023C00094010E94D23B6C0D7D1D8E1D9F1DB5CFCB
:1023D000FDCECF93DF9300D01F92CDB7DEB71C8226
:1023E0001B821A8219821092B7041092B8041092BC
:1023F000B9041092BA04BE016F5F7F4FCE010396FD
:102400000E94E62E69817A818B819C810E94D4276B
:10241000009761F4BE016F5F7F4FCE0103960E946B
:10242000F22E69817A818B819C812FD50F900F903C
:102430000F900F90DF91CF910895FF920F931F930C
:10244000CF93DF93082F60E070E0CB010E94A935A5
:10245000FF24F3940E94BD26EC01892B89F010E043
:10246000CE3F8FEFD80769F0002361F160E070E0A4
:10247000CB010E94A93581E090E0892B59F322C05D
:1024800011E026D5EC01892B21F0CE3F8FEFD80744
:1024900059F711111EC011E0229609F410E00E94B4
:1024A0006D26EC01892B21F0CE3F8FEFD807E1F6A6
:1024B000111111C011E0CE3F8FEFD80709F410E0E1
:1024C00001110BC0CE01DF91CF911F910F91FF90B1
:1024D000089511E0E4CF11E0F3CF60E070E0CB01AC
:1024E0000E94A9351F25812F90E0C7CFCF93DF939E
:1024F0008091BB04882321F060E070E0CB014DD6D1
:1025000036D6D0E0C0E0892B71F06AE070E080E060
:1025100090E00E94A93581E090DF29D62196C03D48
:1025200027E0D20781F728D60E9428281092D304EA
:102530001092D2041092CC041092CD041092CE04CA
:102540001092CF041092C8041092C9041092CA04C9
:102550001092CB041092C4041092C5041092C604C9
:102560001092C7041092C0041092C1041092C204C9
:102570001092C3041092BC041092BD041092BE04C9
:102580001092BF044EEF5FEF6FEF7FEF4093840236
:102590005093850260938602709387021092BB0469
:1025A000EFEAF4E028E0DF011D922A95E9F71092A6
:1025B000AB041092AC041092AD041092AE041092D1
:1025C000A7041092A8041092A9041092AA041092D1
:1025D000A3041092A4041092A5041092A6041092D1
:1025E0009F041092A0041092A1041092A204DF9103
:1025F000CF9108951092DF041092E0041092E1044C
:102600001092E2041092DE048091E7049091E804B5
:102610009093DD048093DC041092DB041092DA04C2
:102620001092D6041092D7041092D8041092D904B4
:102630001092E4041092E30490E080E00895CF92B9
:10264000DF92EF92FF920F931F93CF938C0101972C
:1026500009F055C02091E7043091E8048091DC0432
:102660009091DD044091E7045091E8045093DD041B
:102670004093DC042817390781F01092DB04109294
:10268000DA041092D6041092D7041092D804109253
:10269000D9041092E4041092E3048091E70490912D
:1026A000E804019761F58091E3049091E404892B9B
:1026B00021F480918802811112C08091E3049091ED
:1026C000E4040197E1F48091D6049091D704A0919D
:1026D000D804B091D9040197A105B10581F41092F5
:1026E000D6041092D7041092D8041092D9041092F4
:1026F000880282E090E09093E4048093E304809168
:10270000E7049091E804019709F01CC18091FD0451
:102710009091FE048017910709F014C18091F9048B
:102720009091FA04A091FB04B091FC04009709F485
:1027300009C12091F80421110DC04091F904509174
:10274000FA046091FB047091FC04452B462B472B47
:1027500009F4F8C02091E3043091E40422303105FB
:1027600009F0F0C02091DA042111ECC0FC01C08016
:10277000D180E280F3808091DE04882309F4D3C005
:102780008091EA049091EB04892B09F4FEC020911A
:10279000EA043091EB0481E02230310509F080E059
:1027A0002091EA043091EB04C1E02130310549F079
:1027B0002091EA043091EB04C1E02230310509F0A8
:1027C000C0E0882309F456C02091F4043091F50448
:1027D0004091F6045091F704C701B6010E940033FE
:1027E00087FD14C02091F4043091F5044091F60463
:1027F0005091F7046091DF047091E0048091E1044E
:102800009091E2040E94103187FD22C02091F404CF
:102810003091F5044091F6045091F704C701B601D8
:102820000E940033181634F52091F4043091F50419
:102830004091F6045091F7046091DF047091E00438
:102840008091E1049091E2040E941031811112C044
:102850008091EC049091ED04A091EE04B091EF040E
:10286000892B8A2B8B2B19F481E08093DB0481E088
:102870008093DA04CC2309F456C02091F4043091FB
:10288000F5044091F6045091F704C701B6010E9487
:10289000103187FF14C02091F4043091F504409169
:1028A000F6045091F7046091DF047091E004809188
:1028B000E1049091E2040E94003387FF22C020913E
:1028C000F4043091F5044091F6045091F704C701E7
:1028D000B6010E941031811126C02091F40430917C
:1028E000F5044091F6045091F7046091DF04709173
:1028F000E0048091E1049091E2040E9400331816F4
:1029000094F48091EC049091ED04A091EE04B091C8
:10291000EF04892B8A2B8B2B19F481E08093DB0445
:1029200081E08093DA0481E09091DA04911180E0F3
:102930008093DE04C092DF04D092E004E092E104D0
:10294000F092E2040130110509F067C18091E304BF
:102950009091E404892BD9F41092E9041092DA04DE
:1029600080918802882379F082E090E09093E404DB
:102970008093E304109288022091E7043091E804E8
:1029800081E0232BE9F080E01BC081E009CF1092A9
:1029900088028091E904882349F01092DB041092A8
:1029A000E4041092E3041092E904EDCF8091E7046F
:1029B0009091E804892BE1F08091DA041092DA0416
:1029C0002091E3043091E4042230310509F45EC023
:1029D00088F42115310509F448C02130310509F486
:1029E000F3C01092DB041092DA041092E90438C0AC
:1029F00081E0E6CF2330310509F4B1C02430310540
:102A000081F74091D6045091D7046091D804709119
:102A1000D904411551056105710561F04150510915
:102A2000610971094093D6045093D7046093D80488
:102A30007093D9044091D6045091D7046091D80482
:102A40007091D904452B462B472BD9F42091E504EE
:102A50003091E6042130310509F046C01092DB04C4
:102A60001092E4041092E3040CC080918802882341
:102A700041F082E090E09093E4048093E3041092AC
:102A800088021092D4048091DB04CEC08823C9F35D
:102A90008091EC049091ED04A091EE04B091EF04CC
:102AA000181619061A061B060CF07DC08091E70463
:102AB0009091E804019709F076C08091EC04909120
:102AC000ED04A091EE04B091EF048093D6049093AE
:102AD000D704A093D804B093D90483E090E09093F6
:102AE000E4048093E304CDCF4091F0045091F104CD
:102AF0006091F2047091F304452B462B472BA9F00B
:102B00001092DB048091F0049091F104A091F20402
:102B1000B091F3048093D6049093D704A093D80483
:102B2000B093D90481E090E0DACF882399F08091C6
:102B3000890290918A02A0918B02B0918C028093BD
:102B4000D6049093D704A093D804B093D90484E01A
:102B500090E0C5CF1092DB0482E090E0C0CF80917E
:102B6000D6049091D704A091D804B091D9040097CD
:102B7000A105B10559F00197A109B1098093D604C7
:102B80009093D704A093D804B093D9048091D6042D
:102B90009091D704A091D804B091D904892B8A2BA5
:102BA0008B2B09F06ECF8091890290918A02A091BF
:102BB0008B02B0918C02892B8A2B8B2B09F44ECF80
:102BC00081E08093DB04B3CF4091D6045091D704C9
:102BD0006091D8047091D9044115510561057105C2
:102BE00061F041505109610971094093D604509335
:102BF000D7046093D8047093D9044091D6045091BF
:102C0000D7046091D8047091D904452B462B472BEB
:102C100009F037CF8111C7CF9FCF8091D40488238B
:102C200009F431CF8091D504CF911F910F91FF907E
:102C3000EF90DF90CF9008951092DF041092E0049F
:102C40001092E1041092E2041092DE041092E40467
:102C50001092E3041092DD041092DC041092FE0442
:102C60001092FD041092DB041092DA041092D60444
:102C70001092D7041092D8041092D9041092D5045F
:102C80001092D4041092F9041092FA041092FB04EA
:102C90001092FC041092F8041092F4041092F504BF
:102CA0001092F6041092F70488EE93E0A0E0B0E0F2
:102CB0008093890290938A02A0938B02B0938C0236
:102CC0001092F0041092F1041092F2041092F304A6
:102CD0001092EC041092ED041092EE041092EF04A6
:102CE0001092EB041092EA0481E080938802109223
:102CF000E9041092E8041092E7041092E60410929E
:102D0000E50490E080E008958091E7049091E80464
:102D1000892B19F580918802882351F08091E9046C
:102D2000811106C081E08093D5048093D404089576
:102D30002091E9043091880281E090E0332311F082
:102D400090E080E030E082239323892B21F01092E1
:102D5000D50481E0EACF1092D404089582E090E097
:102D6000FA01918380838FEF9FEF0895CF93DF93D4
:102D7000EA01009711F00E9448291982188290E018
:102D800080E0DF91CF910895DB01009719F48FEF78
:102D90008C9308952EEF2C93FC013F96EF30F105B4
:102DA00008F034C08827E852F94E8F4F0C94CA3B84
:102DB000041702170017FE16FC16F816FA16F61678
:102DC000F416F216EF16EB16E716ED16061780E36B
:102DD00011968C93089589E2FBCF82E2F9CF119688
:102DE0001C92089583E2F4CF81E2F2CF81E1F0CF2B
:102DF00087E2EECF8AE2ECCF80E1EACF84E2E8CF4F
:102E000088E2E6CF86E2E4CF81E3E2CF80E2E0CF62
:102E100080910B0590910C05089590930C0580937B
:102E20000B05089580910A05089590910A05892B54
:102E300080930A050895982F909580910A0589231B
:102E400080930A05089580910905089580910705EA
:102E50009091080508956115710559F0FB0130E066
:102E600020E070E060E02417350719F06115710566
:102E700011F0CB010895A081B181A817B90709F419
:102E8000BF012F5F3F4F3696EECF80910D05811128
:102E90001CC060D266D2909300058093FF040E940C
:102EA00046210E94582190930405809303050E94B7
:102EB000D5250E94DC25909302058093010581E0D1
:102EC00080930D0590E080E0089584EF9FEF0895D2
:102ED0008F929F92AF92BF92CF92DF92EF92FF922A
:102EE0000F931F93CF93DF9300D000D000D01F9299
:102EF000CDB7DEB71A86198618861F821E821D82FC
:102F00001C821B821A82198280910D0507EF1FEF28
:102F1000882309F49CC08E010D5F1F4F9E012B5F1B
:102F20003F4FAE01495F5F4FBE01675F7F4F90E04B
:102F300080E00E9459278C01009721F005960297A6
:102F400008F0DBC029853A852115310509F402C155
:102F5000ED80FE804B815C81B701640F751F8F810E
:102F600098858617970708F4F5C0E20EF31ED7017F
:102F70009C91903C09F07FC04230510508F47BC021
:102F800011968C9140910B0550910C05452B09F43D
:102F90009CC0913F08F071C02CE1290F2D3008F43E
:102FA0008BC02DE2290F203108F489C0903C21F418
:102FB0008150823008F483C088E3890F8B3008F495
:102FC00081C094ECC92E96E1D92EEEEAF6E16D812E
:102FD0007E81AE014F5F5F4F89859A8519955C01AF
:102FE000C114D104A1F189809A808114910479F1EE
:102FF0008B819C818815990508F487C010E000E05A
:103000004B815C8170E060E0C7010E94F43B0115D8
:103010001105E9F449815A8169857A858D819E81FE
:10302000680F791FC501F6011995E980FA800D81B5
:103030001E812F81388549855A856FEF7FEF81E0AA
:1030400090E00E94F4268C01892B09F056C0C8013B
:103050002A960FB6F894DEBF0FBECDBFDF91CF9199
:103060001F910F91FF90EF90DF90CF90BF90AF90A6
:103070009F908F90089580E085CF30E020E0220F70
:10308000331FF901E150FB4F0190F081E02D3097A3
:1030900009F497CF892F90E01995009709F491CF03
:1030A000DC011296ED91FC9113971496CD90DC9073
:1030B000309709F08CCF1FC021E030E0E0CF22E054
:1030C00030E0DDCF23E030E0DACFD12CC12CE6EBCD
:1030D000F6E19F3F09F07BCFE091FF04F0910005FE
:1030E000309721F4C90104EF1FEF0CC08FEF90E07F
:1030F00019950097A9F604EF1FEF89859A85009727
:1031000009F4A5CF0E944829A2CF0E9423288C0150
:1031100089859A850E94482970E060E0C4010E9478
:10312000BC2798878F830E94F1269E838D836F81B1
:1031300078856115710559F0C8010E94D42A9A87D3
:10314000898706EF1FEF892B09F058CF59CF08EF79
:103150001FEF56CF08EF1FEFD0CF20910D05222390
:1031600019F020E00C945D2187EF9FEF0895809186
:103170000B0590910C0508950E94E1250E943B25C6
:10318000F5D0EFEFF4E088E0DF011D928A95E9F7D2
:1031900010920D0590E080E008950C94992321E0B1
:1031A00040E050E0BA010C945D2186E090E0FA0125
:1031B0009183808390E080E0089547E050E066EEE0
:1031C00072E049CEDF92EF92FF920F931F93CF935D
:1031D000DF938A01EC01C60FD71FE0901105F09034
:1031E0001205D9800E940B28D816190678F082E0C3
:1031F00090E0F801918380838EEF9FEFDF91CF9174
:103200001F910F91FF90EF90DF900895EF2841F408
:1032100082E090E0F8019183808384EF9FEFEECF0E
:1032200089818093100590E00196F8019183808355
:1032300090E080E0E3CFCF93DF93EA010E944A243D
:10324000882321F00E9418280E944B2482E090E0FD
:10325000998388838BEF9FEFDF91CF910895CF9370
:10326000DF93EB0186E0FB0111928A95E9F78FEF7E
:103270008883D8DD8983E7DD8A83E8DD9D838C83BD
:10328000DF91CF910895CF93DF93EA010E944D24FF
:10329000811109C082E090E09983888385EF9FEFD8
:1032A000DF91CF91089590E080E0B7DD81E090E07C
:1032B0009983888390E080E0F3CF0F931F93CF939F
:1032C000DF93EA018C01060F171F0E944D24811124
:1032D0000BC082E090E09983888385EF9FEFDF91B8
:1032E000CF911F910F910895F8018181823038F0BC
:1032F00082E090E0998388838EEF9FEFF0CF81E0AA
:1033000090E08BDD88E090E09983888390E080E016
:10331000E6CFCF93DF930097D1F4EB01FB01329618
:1033200086E0DF011D928A95E9F78FEF888385E0BB
:1033300089831A820E940B288B830E940A289D830E
:103340008C8381E08E838F83DF91CF910895DF910D
:10335000CF911ACD8DED98E190930F0580930E05D6
:10336000089580910E0590910F05089510920F0514
:1033700010920E05089580911105909112050895FF
:10338000411105C0611571058105910561F06093DA
:1033900011057093120580931305909314054093C3
:1033A000150581E0089580E00895FF920F931F9323
:1033B000CF93DF938A01EC01C60FD71FF9800E94DB
:1033C0000B28F816190668F082E090E0F801918366
:1033D00080838EEF9FEFDF91CF911F910F91FF9030
:1033E00008956C817D818E819F814B81C9DF811120
:1033F00008C082E090E0F8019183808384EF9FEF22
:10340000EACF89818093100590E00196F8019183BD
:10341000808390E080E0DFCFCF93DF93EA01FC016F
:10342000E60FF71F64817581868197814381A8DF4C
:10343000811109C082E090E09983888384EF9FEF37
:10344000DF91CF91089581E090E09983888390E0A7
:1034500080E0F6CFE1E1F5E0408151816281738146
:10346000480F511D611D711D408351836283738319
:103470000895CF93C09110054C2F50E06091110535
:103480007091120501960E94EB3B8C2FE3DF1092A6
:103490001005CF910895009799F4809111059091AE
:1034A00012052FEFFB012083892B59F02091100585
:1034B00030E02F5F3F4F2417350719F4CB01D9CFE8
:1034C00063CC0895009799F48091110590911205AD
:1034D0002FEFFB012083892B59F02091100530E05C
:1034E0002F5F3F4F2417350719F4CB01C2CF4CCCC7
:1034F000089523E1AC01249FC001259F900D112464
:10350000E0911A05F0911B05E80FF91F2381348122
:103510002250310981E02230310508F080E0089521
:103520000F931F93CF93DF9300911C0510911D05FE
:10353000D0E0C0E080E00C171D0749F491E0811154
:1035400090E0892FDF91CF911F910F910895811104
:10355000F5CFCE01CEDF2196EECFA0911A05B09126
:103560001B05109729F120911C0530911D0582172C
:103570009307F0F453E1589F9001599F300D1124A7
:10358000A20FB31FED91FC911197309789F012961D
:103590008C91681768F48DE0689FE00DF11D11248F
:1035A00080819181892B21F081E09281491708F077
:1035B00080E008959C0143E1429FC001439F900D2C
:1035C0001124E0911A05F0911B05E80FF91F83857E
:1035D000823091F481E090E06581768140918D02A6
:1035E00050918E026417750711F490E080E0892BEA
:1035F00019F081E0232B09F080E00895FC01A081FF
:10360000B1818DE0689FA00DB11D112413964D91DD
:103610005C9185859685489F9001499F300D589F04
:10362000300D1124C9010196611103C0478144FD89
:1036300004960895EF92FF920F931F93CF93DF9319
:10364000EA01FC01E60FF71F02811381E480F58097
:103650004F2D6E2DC80181DF81110DC082E090E0F9
:10366000998388838EEF9FEFDF91CF911F910F9108
:10367000FF90EF900895C8013CDF882339F082E085
:1036800090E09983888388EF9FEFEECF10939402A8
:1036900000939302E0929502F092960281E090E00E
:1036A0009983888390E080E0DFCFCF92DF92EF9222
:1036B000FF920F931F93CF93DF937A01EC01C60F14
:1036C000D71FC0909302D090940200919502109160
:1036D0009602412F602FC60140DF811110C082E0A9
:1036E00090E0F701918380838AEF9FEFDF91CF9184
:1036F0001F910F91FF90EF90DF90CF900895C6013A
:10370000F8DE882341F082E090E0F7019183808326
:1037100088EF9FEFEBCF4C815D816E817F819A8135
:1037200089818F3F41F082E090E0F70191838083AF
:103730008EEF9FEFDBCFE3E1EC9D9001ED9D300D2F
:103740001124E0911A05F0911B05E20FF31F01907F
:10375000F081E02D2DE0029FE00DF11D112401907C
:10376000F081E02D27E0129FE00DF11D11248083F0
:1037700091838B81828343835483658376831F5F28
:103780001093960281E090E0F7019183808390E0AE
:1037900080E0ACCFEF92FF920F931F93CF93DF9314
:1037A0007A018C01060F171FC0911A05D0911B05D5
:1037B000209781F021E030E0F801828193814091EF
:1037C0001C0550911D058417950710F030E020E08E
:1037D000232B71F482E090E0F701918380838EEFD8
:1037E0009FEFDF91CF911F910F91FF90EF90089580
:1037F00043E1489F9001499F300D1124C20FD31F10
:1038000078DE882341F082E090E0F70191838083A5
:1038100088EF9FEFE6CFF80124813581203831050C
:10382000C8F687818111D6CF4181842F90E08F7EA9
:10383000009741F082E090E0F7019183808386EF6A
:103840009FEFCFCF4F833E832D8326812887198614
:10385000223010F421E0288721E030E0F7013183A5
:103860002083BFCF88E090E0FA019183808390E0CD
:1038700080E00895FB018FEF808381E181838FEFEA
:103880009FEF9383828380E890E095838483168200
:1038900017820895FB018FEF808391E091838283EB
:1038A0009383848384E3858381E090E09783868398
:1038B0000895DF92EF92FF920F931F93CF93DF93C0
:1038C000EA01FC01E60FF71F8181813071F082E08F
:1038D00090E0998388838FEF9FEFDF91CF911F91C5
:1038E0000F91FF90EF90DF90089582819381D480B3
:1038F0002581E680F78000911A0510911B050115BE
:10390000110539F482E090E0998388838CEF9FEF72
:10391000E4CF40911C0550911D058417950738F0A0
:1039200082E090E0998388838EEF9FEFD6CF892B3A
:1039300039F082E090E09983888386EF9FEFCDCFC6
:103940008D2D8D7FB1F72130A1F781E0D11006C018
:1039500091E0E916F10431F080E004C0E2E0EE16F7
:10396000F104D0F3882329F390E080E0C2DD8823BE
:1039700039F082E090E09983888388EF9FEFADCFA4
:10398000F801D38681E08487F686E586108A17865B
:1039900081E090E09983888390E080E09ECF4CE0C6
:1039A00050E060E173E057CA8F929F92BF92CF922E
:1039B000DF92EF92FF920F931F93CF93DF93EA0171
:1039C000FC01E60FF71F828193810481B580E091AD
:1039D0001A05F0911B05309791F482E090E09983ED
:1039E00088838CEF9FEFDF91CF911F910F91FF9014
:1039F000EF90DF90CF90BF909F908F90089520918F
:103A00001C0530911D058217930738F082E090E085
:103A1000998388838EEF9FEFE6CF23E1289F600193
:103A2000299FD00C1124EC0DFD1DE080F180E114E4
:103A3000F10499F28281081748F78DE0089F800110
:103A40001124E00EF11EF70180819181892B29F666
:103A5000BB20E1F2F7E0BF9E40011124C4010E94A7
:103A60000F29F70191838083E0911A05F0911B05DE
:103A7000EC0DFD1D0190F081E02DE00FF11F808124
:103A80009181009739F482E090E0998388838DEFEB
:103A90009FEFA9CFA40170E060E00E94F43B809109
:103AA0001A0590911B05C80ED91EF60180819181DF
:103AB000080F191FF801B28281E090E09983888392
:103AC00090E080E090CFAF92BF92CF92DF92FF92D2
:103AD0000F931F93CF93DF93EA01FC01E60FF71FCB
:103AE00082819381F48000911A0510911B050115C4
:103AF000110581F482E090E0998388838CEF9FEF39
:103B0000DF91CF911F910F91FF90DF90CF90BF90E9
:103B1000AF90089520911C0530911D0582179307E1
:103B200038F082E090E0998388838EEF9FEFE8CFB2
:103B30002FEF2F0D2C3FA8F723E1289F6001299F2D
:103B4000D00C11240C0D1D1DF80180819181892B51
:103B500089F6FDE0FF9E50011124C5010E940F2946
:103B6000F80191838083E0911A05F0911B05EC0D1B
:103B7000FD1D80819181009739F482E090E0998366
:103B800088838DEF9FEFBCCFA50170E060E00E94BD
:103B9000F43BE0911A05F0911B05EC0DFD1DF2823E
:103BA00081E090E09983888390E080E0A9CFCF9274
:103BB000DF92EF92FF920F931F93CF93DF93860FC5
:103BC000971FFC010281138180911A0590911B05BA
:103BD000892B81F082E090E0FA01918380838CEF61
:103BE0009FEFDF91CF911F910F91FF90EF90DF90AA
:103BF000CF900895C801B0E0A0E00197A109B109F4
:103C00008F3F9F4FA105B10540F082E090E0FA019F
:103C1000918380838EEF9FEFE4CF7A0183E1809FD1
:103C20006001819FD00C1124C6010E940F29EC0174
:103C3000009741F482E090E0F701918380838DEF5B
:103C40009FEFCFCFA60170E060E00E94F43BD093DD
:103C50001B05C0931A0510931D0500931C0590E0E9
:103C600080E02FEF3FEF41E061E070E080179107C7
:103C700041F481E090E0F7019183808390E080E05F
:103C8000B0CF3A8B298B1B864C877E876D87188A2D
:103C90001F8601966396EACFEF92FF921F93CF9310
:103CA000DF93EC0110E0F12CE12C6A811617B0F0E3
:103CB00083E0689FB0011124AE014F5E5F4FC701E2
:103CC0000E947429009721F02FEF3FEF3A8B298B48
:103CD000DF91CF911F91FF90EF900895612FCE015A
:103CE0008DDC61E070E00E94BC27E816F90608F45C
:103CF0007C011F5FDACFF8942091180530911905E7
:103D000081E02115310509F080E0232B09F078943A
:103D100008952F923F924F925F926F927F928F926F
:103D20009F92AF92BF92CF92DF92EF92FF920F934A
:103D30001F93CF93DF933C01660E771EF3018281C0
:103D400093814C01B12CA12CC0911A05D0911B0577
:103D5000209769F021E030E060911C0570911D050D
:103D60008617970710F030E020E0232BD1F482E093
:103D700090E0FA01918380838EEF9FEFDF91CF91E6
:103D80001F910F91FF90EF90DF90CF90BF90AF9079
:103D90009F908F907F906F905F904F903F902F906B
:103DA00008958092970290929802A0929902B09200
:103DB0009A0263E1689F9001699F300D1124C20F40
:103DC000D31FF3018181833040F082E090E0FA015B
:103DD0009183808386EF9FEFD1CF2A012B813C8195
:103DE000232BF1F4288139819F8191FF2EC0232B51
:103DF00009F46FC020911F059A81422F490F552762
:103E0000551FBA0141E050E06138710514F050E0EF
:103E100040E0452B09F45DC02A87920F90931F055F
:103E20008150823008F481C066DF882309F4D8C04D
:103E3000F3018181813009F48DC008F47BC08230A8
:103E400009F4C6C090E080E0ADC0232B09F441C066
:103E500020911E059A81E22FE90FFF27FF1F41E005
:103E600050E0ED3FF10514F050E040E0452B89F1C2
:103E70002A87920F90931E05D3CFA081B181A20F04
:103E8000B31F11966C91060F111D0196295F3F4FCC
:103E90008417950794F38D859E85089F1001099FCF
:103EA000300C189F300C1124C114D104D1F48F812F
:103EB00084FF17C00E940A28F5E02F0E311C21E074
:103EC0008215930508F420E0A701435F5F4F21119D
:103ED0000EC082E090E0F2019183808387EF9FEF34
:103EE0004DCF0E940A282FEF221A320AE8CF88818C
:103EF0009981E80EF91EF70114830383FFEFCF1AAF
:103F0000DF0A7A018A818C151D0409F00CF48CCF2C
:103F1000E881F981EE0DFF1D428150E030E020E0A4
:103F200010E000E090E080E0B3CFF12CE12CD12C48
:103F3000C12CE8CF81E090E09C838B83F1DA882369
:103F400009F480CF81E090E00E940D1780E40E9488
:103F50001B1778CF89899A89019661F083E090E0F8
:103F60009C838B8382E090E00E940D1780E40E9486
:103F7000151768CF8D819E8120918D0230918E0220
:103F800082179307D1F46091910270919202AE0171
:103F90004F5E5F4F80918F02909190020E94932A12
:103FA0000097E1F2789422E030E0F201318320833F
:103FB000892B99F08DEF9FEFE1CE89288A288B28F5
:103FC00069F6029758F6CE0167DE188A1F86E8CF99
:103FD00082E090E09C838B8335CF90E080E0CECE72
:103FE00082E090E0F2019183808385EF9FEFC6CE5F
:103FF0008F929F92AF92BF92CF92DF92EF92FF92F9
:104000000F931F93CF93DF93EA018C01060F171FC5
:10401000F8018181833098F082E090E09983888371
:1040200086EF9FEFDF91CF911F910F91FF90EF905F
:10403000DF90CF90BF90AF909F908F900895809128
:104040001A0590911B05892B61F081E090E0209189
:104050001C0530911D05232B11F490E080E0892B85
:1040600039F482E090E0998388838EEF9FEFDACF76
:1040700042DE882309F4E0C0F8018181813009F42F
:1040800096C0E8F0823099F420911C0530911D050E
:10409000E0911A05F0911B0590E080E041E050E0CE
:1040A0002817390709F0BEC03BDA811117C0789490
:1040B00081E090E09983888390E080E0B3CF209105
:1040C0001C0530911D05E0911A05F0911B0590E04B
:1040D00080E041E050E02817390741F481E090E0AA
:1040E0000E940D1780E40E941B17E1CF6381748149
:1040F000672B11F05483438301967396ECCFE091C4
:104100001A05F0911B05E00FF11F23813481223045
:104110003105D9F4218932892F3F3F4FB1F42581F0
:10412000368140918D0250918E022417350761F53A
:10413000AF014F5E5F4F609191027091920280914A
:104140008F02909190020E94932AEFEFCE1ADE0A1E
:10415000EE0AFE0A0D5E1F4F40911C0550911D0591
:1041600070E060E0C416D506E606F70644F5009751
:1041700031F27894892B09F49BCF82E090E0998307
:1041800088838DEF9FEF4ECFC114D104E104F10479
:10419000E1F622303105C8F6CF017EDDE0911A0547
:1041A000F0911B05E00FF11F108A1786CECF10E0AB
:1041B00000E090E080E0C12CD12C7601CDCF0097BB
:1041C000C1F610E000E0812C912C540183E0E82E30
:1041D000F12C1AC0E0911A05F0911B05E00FF11FB8
:1041E00083819481029749F4F482E38282E090E033
:1041F0000E940D1780E40E941517FFEF8F1A9F0A87
:10420000AF0ABF0A0D5E1F4F80911C0590911D05DE
:10421000B0E0A0E088169906AA06BB06DCF290E0A2
:1042200080E0A7CF638174816230710511F45483FB
:1042300043830196739634CF82E090E0998388831C
:1042400085EF9FEFEFCE0097B9F48FEFFB018083EE
:10425000209197023091980243E1429FC001439F11
:10426000900D1124E0911A05F0911B05E80FF91F3C
:104270008285FB01818308950C94C41688E090E048
:10428000FA019183808390E080E0089510921905EF
:1042900010921805EAE1F5E086E0DF011D928A95AB
:1042A000E9F78FEC9CE1909317058093160508952C
:1042B000809116059091170508952F923F924F9285
:1042C0005F926F927F928F929F92AF92BF92CF92A6
:1042D000DF92EF92FF920F931F93CF93DF93CDB7AF
:1042E000DEB72F970FB6F894DEBF0FBECDBFF894A0
:1042F000E0911805F09119053196F0931905E093B6
:104300001805789440901A0550901B0541145104EB
:1043100009F40CC2E0911C05F0911D05EF2B09F486
:1043200005C22D8749875A876B877C8798878F833B
:104330001201B12CA12C10E000E080911C0590919D
:104340001D05A816B90618F40115110529F1F894F0
:104350008091180590911905019790931905809304
:1043600018057894C8012F960FB6F894DEBF0FBEDB
:10437000CDBFDF91CF911F910F91FF90EF90DF9014
:10438000CF90BF90AF909F908F907F906F905F90F5
:104390004F903F902F9008957101E418F508D101D6
:1043A00017968C91179781FD54C013968D919C910F
:1043B0001497039709F04DC015968D919C91EF814C
:1043C000F8858E179F0709F044C0B50190E080E0A2
:1043D0007FD48A8320911A0530911B053D832C835D
:1043E0003D85332309F44CC04C815D81452B09F494
:1043F0009AC180911C0590911D05A816B90608F078
:1044000092C1C501D7D88823E9F06C817D816E0DFA
:104410007F1D7D836C83DB011F968D919C91892B81
:1044200089F0D12CC12CF12CE12CAC81BD811296EC
:104430008C9112978E151F0409F094F450961C92DB
:104440001E921F972A81222321F0B50190E080E07F
:1044500041D43FEFA31AB30A43E1240E311C6DCFC0
:10446000AC81BD81ED91FC91EC0DFD1D85819681A6
:104470000FD7BFEFEB1AFB0AEDE0CE0ED11CD5CF64
:10448000EC81FD81309709F44EC180911C0590911B
:104490001D05A816B90608F046C1EE0DFF1DFF87E1
:1044A000EE87C50187D88B83882339F1AE85BF8518
:1044B0001F968D919C915097019621E01D964D91EC
:1044C0005C918417950709F020E02E831982712CE6
:1044D00010E000E0AE85BF8512968C91781608F446
:1044E0005DC0EE85FF858785908901966585768517
:1044F0000E94943B908B8787A5CFB1E0BE83E6CF27
:10450000992493946BC08BD6F6019683858382C0E1
:10451000D601ED90FC90B7E06B9EE00CF11C1124ED
:10452000F7016381748180818F3F61F121E030E088
:1045300002C0220F331F8A95E2F7C901092E000C31
:10454000AA0BBB0BFB0140815181628173818423E3
:104550009523A623B72321E0892B8A2B8B2B09F4E3
:1045600020E0D4012C93D70111968C91F60123857C
:104570003485820F932F911D880E991E1486138601
:1045800063949BC0418150E0C4010E94EB3BEBCFA0
:10459000998206EF1FEFC5C01982C3C0F981F111DE
:1045A000A0CFEDE07E9E70011124AE85BF85CD9039
:1045B000DC90CE0CDF1C15D49D838C83BB81BB2388
:1045C00009F49ECF81E0EE85FF8527853089232B76
:1045D00009F080E0982E882309F458C0672D8E8555
:1045E0009F850CD8D60118969C938E93179761E0FF
:1045F00070E0C2D4EE85FF85218932892F3F3207D2
:1046000009F481CFBC01C901CFD7D60116969C937E
:104610008E931597D60115968D919C9116970097BC
:1046200009F4B6CFEC81FD818E0F9F1F1A969C93E3
:104630008E931997AE85BF85ED91FC911197EE0E83
:10464000FF1EF70121853285148613861A968C91F8
:10465000870DD9018D93711016C0EE85FF85878176
:1046600084FF11C049855A856B857C85F90141839A
:10467000528363837483F701838594850496A80F1E
:10468000B91F14861386F701B287A187D601159644
:104690008D919C911697892B09F443C0EE85FF8577
:1046A0002581368180918D0290918E0228173907DD
:1046B00079F019968D909C90612CD60112968C9170
:1046C0001297681608F424CF1A969C928E92199726
:1046D000BE81BB2309F460CF61E070E0F601878101
:1046E00090854AD4D6011796ED90FC9018971596B0
:1046F0004D915C91E1E0F0E0BA81BB2311F0F0E074
:10470000E0E00C811D819C01B501882799278E1B53
:104710009F0B6AD38C01892B21F0F601858196814C
:10472000B7D57394D7CE0FEF1FEF8CCE10E000E01B
:104730000ECE2F923F924F925F926F927F928F9206
:104740009F92AF92BF92CF92DF92EF92FF920F9320
:104750001F93CF93DF9380911A0590911B0510E072
:1047600000E0892BA9F0C7DA0AEF1FEF882381F058
:1047700020901C0530901D05C0911A05D0911B0595
:10478000D12CC12C10E000E02C143D04A9F4789445
:10479000C801DF91CF911F910F91FF90EF90DF90B3
:1047A000CF90BF90AF909F908F907F906F905F90D1
:1047B0004F903F902F900895C6010E94DA1A8823E7
:1047C00009F18B819C810397E9F48F859889892B66
:1047D000C9F0B60190E080E07BD221E030E0882390
:1047E00011F030E020E044245524421A530AB12C41
:1047F000A12C912C812C8A818815190409F038F498
:10480000188A1F864FEFC41AD40A6396BDCFE88179
:10481000F981EA0DFB1D85819681892BA1F161E06B
:1048200070E087819085A8D33C01DBD28C01E881C0
:10483000F981EA0DFB1D8185928525813681200F46
:10484000311FAC01421B530B9A0147815085421B1B
:10485000530B70E060E00E94F43BE881F981EA0DBF
:10486000FB1DE780F084458156819301B601C201AA
:10487000BBD28C01892B39F0E881F981EA0DFB1D4F
:104880008581968105D55FEF851A950A8DE0A80E82
:10489000B11CB1CF30CA789408952F923F924F92B5
:1048A0005F926F927F929F92AF92BF92CF92DF9270
:1048B000EF92FF920F931F93CF93DF9300D000D01E
:1048C000CDB7DEB700911A0510911B05992493947A
:1048D0000115110509F43EC0A0901C05B0901D05FE
:1048E0000ADA982E8823B1F110921B0510921A054E
:1048F00010921D0510921C0510921E0510921F05A6
:104900008FEF9FEFDC018093970290939802A09322
:104910009902B0939A0278947FD31E830D83C12CA1
:10492000D12C7601C501B0E0A0E089839A83AB83E6
:10493000BC8322242A94322C89819A81AB81BC8148
:10494000C816D906EA06FB06F4F0C801A1D480E433
:104950000E941B17892D26960FB6F894DEBF0FBE56
:10496000CDBFDF91CF911F910F91FF90EF90DF901E
:10497000CF90BF90AF909F907F906F905F904F903F
:104980003F902F900895AD81BE8115968D919C9199
:10499000169720918D0230918E0282179307D1F4E1
:1049A00051968D919C91EED5ED81FE818081918112
:1049B000B12CA12C412C512C3201892B89F5BFEF50
:1049C000CB1ADB0AEB0AFB0AED81FE817396FE83AC
:1049D000ED83B2CFC114D104E104F10429F70297A9
:1049E00018F7ED81FE81818992898F3F980709F040
:1049F00029D5AD81BE8152963C922E925197D4CF4B
:104A00008A0D9B1DDC018D919C91009709F040D48B
:104A1000BFEF4B1A5B0A6B0A7B0AEDE0AE0EB11CCE
:104A2000AD81BE818D919C91119712964C9150E071
:104A300070E060E044165506660677060CF328D44D
:104A4000BECFCF93DF93EA0128DF811109C082E056
:104A500090E09983888385EF9FEFDF91CF91089550
:104A600081E090E00E940D1781E090E099838883B7
:104A700090E080E0F2CF11DF10921705109216053A
:104A8000089542E050E068E573E00C942B17FF9224
:104A90000F931F93CF93DF938A01EC01C60FD71FAB
:104AA000F980B9D20897F816190671F068F082E01B
:104AB00090E0F801918380838EEF9FEFDF91CF919B
:104AC0001F910F91FF9008956C817D818E819F8150
:104AD0004B810E94C019811108C082E090E0F8016A
:104AE0009183808384EF9FEFE9CFF9800E94BB1907
:104AF0004F2D50E0BE01685F7F4F0E94EB3B8981E4
:104B00000E942A1A81E090E0F8019183808390E06E
:104B100080E0D4CFDF92EF92FF920F931F93CF9359
:104B2000DF938A01EC01C60FD71F0E94BB197C01DD
:104B3000D98071D2DD2059F0029721E030E0D816FB
:104B4000190619F010F030E020E0232B79F482E010
:104B500090E0F801918380838EEF9FEFDF91CF91FA
:104B60001F910F91FF90EF90DF900895EF2841F48F
:104B700082E090E0F8019183808384EF9FEFEECF95
:104B8000F9800E94BB194F2D50E0BE016E5F7F4F30
:104B90000E94EB3B89810E942A1A81E090E0F80193
:104BA0009183808390E080E0D9CF81E495E2909377
:104BB000210580932005089580912005909121057D
:104BC00008950895FC0111821082938382830895D1
:104BD000DB011D921C92DC011296ED91FC91139762
:104BE0007183608313967C936E9312970895FC01F2
:104BF00080819181DB018D939C93A081B18110977D
:104C000041F08D919C9191838083892B11F4F383E2
:104C1000E2830895FC0180819181DB018D939C9357
:104C2000892B11F473836283718360830895FC017F
:104C300011821082938382830895CF93DF931F9212
:104C40001F92CDB7DEB71A821982F894BE016F5F4A
:104C50007F4F87E295E0CBDF89819A81009709F049
:104C600017D389819A81892B89F7BE016F5F7F4FA6
:104C70008BE295E0BCDF89819A81009709F008D327
:104C800089819A81892B89F778940F900F90DF9111
:104C9000CF910895CF93DF931F921F92CDB7DEB7C8
:104CA0001A821982F894BE016F5F7F4F83E295E00C
:104CB0009EDF89819A81009709F0EAD289819A81E1
:104CC000892B89F778940F900F90DF91CF910895F9
:104CD00081E0089590E080E00895EF92FF920F93B5
:104CE0001F93CF93DF931F921F92CDB7DEB71A8227
:104CF00019828091220507EF1FEF8823A1F1F89414
:104D0000BE016F5F7F4F8BE295E071DF7894898100
:104D10009A81EE24E394F12C892B51F4F894BE018E
:104D20006F5F7F4F87E295E062DF7894F12CE12C92
:104D300089819A810EEF1FEF0097A9F0FC01428153
:104D4000538164E070E076D68C01892B61F0F89491
:104D500069817A81C701880F991F880F991F895D22
:104D60009A4F58DF7894C8010F900F90DF91CF9140
:104D70001F910F91FF90EF9008950F931F93CF9382
:104D8000DF9300D01F92CDB7DEB71C821B821A8240
:104D900019828091220507EF1FEF8823C1F0AE0131
:104DA0004D5F5F4F64E070E0CE010196B6D68C0196
:104DB000892B69F4E981FA818B819C8193838283B9
:104DC000F89469817A8183E295E002DF7894C801E2
:104DD0000F900F900F900F90DF91CF911F910F9137
:104DE0000895BBD7049608958F929F92AF92BF9279
:104DF000CF92DF92EF92FF920F931F93CF93DF93A7
:104E00001F921F92CDB7DEB71A821982BC016F5F65
:104E10007F4F6330710598F0AA24AA94BA2CC5017B
:104E20000F900F90DF91CF911F910F91FF90EF9016
:104E3000DF90CF90BF90AF909F908F9008954115D5
:104E4000510551F3480159018A016C01CADF8815E7
:104E5000990511F7E114F104F9F28E0D9F1DA816C2
:104E6000B906D0F2809122058823F1F0F894B501BB
:104E7000645071099701AE014F5F5F4FC8010496FE
:104E8000E1D65C01892B71F489819A81F8019383C1
:104E90008283C601880F991F880F991FB801895D09
:104EA0009A4F96DE7894BBCF87EFA82EBB24BA9496
:104EB000B6CFAF92BF92CF92DF92EF92FF920F9355
:104EC0001F93CF93DF931F921F92CDB7DEB71A8245
:104ED0001982892B09F047C06115710509F443C097
:104EE0004115510509F43FC02115310509F43BC0B6
:104EF00001151105C1F1809122058823B9F17901CD
:104F00006A015B01F894BE016F5F7F4F83E295E019
:104F10006EDE789489819A81009759F1DC011296AE
:104F20006D917C91A8010496A6D68C01E981FA8145
:104F3000D501ED93FC93828193810496F6019183D0
:104F400080834FDFD7018D939C93C8010F900F9002
:104F5000DF91CF911F910F91FF90EF90DF90CF9055
:104F6000BF90AF9008950FEF1FEFEFCF07EF1FEF48
:104F7000ECCF0EEF1FEFE9CFCF93DF93EC01672B60
:104F800071F4F4D68C179D0760F0E7D62496C80F0D
:104F9000D91FE6D68C0F9D1FDF91CF910895E3D6E0
:104FA000F1CF90E080E0F8CF0F931F93CF93DF9382
:104FB0002091220521112BC08B01EC0187E295E0A5
:104FC00001DE8BE295E0FEDD83E295E0FBDD97D02C
:104FD0000097C1F4CBD670E060E0CEDF4BE952E041
:104FE00062E070E081D1009769F480919B0290911A
:104FF0009C02CED6B801CE0103D5009719F421E06A
:1050000020932205DF91CF911F910F91089584EF96
:105010009FEFF8CFA8C6AAC6CF93DF93AAD6EC011C
:10502000892B11F40ADE36DECE01DF91CF9108958F
:10503000CF93DF939ED6EC01892B09F4FEDDCE01E0
:10504000DF91CF91089580919B0290919C020895E9
:10505000CF93DF9380912205D0E0C0E08823D1F088
:105060009CD6EC01892BB1F4E8DD14DE80919B0223
:1050700090919C02E7D1E8D2EC01892B59F487E2A8
:1050800095E0D5DD8BE295E0D2DD83E295E0CFDDE2
:1050900010922205CE01DF91CF910895EF92FF92F9
:1050A0000F931F93CF93DF93EC017A018B010F5F76
:1050B0001F4F0E9DA0010F9D500D1E9D500D1124E0
:1050C00070E060E00E94F43B90E080E0F0E0E0E01F
:1050D0002FEFE816F90639F4DF91CF911F910F9168
:1050E000FF90EF9008951A8219822883309711F06B
:1050F000D283C1830196FE01C00FD11FEACFCF92A8
:10510000DF92EF92FF920F931F93CF93DF930AE208
:1051100017E00C7F43E050E06DE972E083EA92E033
:105120001CD48DE9E82E82E0F82E93EAC92E92E095
:10513000D92EC9EED7E0D7014D915D917D01F601E1
:10514000619171916F01198308835D834C835B8347
:105150004A837F836E839B012F5F3F4F249FC00153
:10516000259F900D349F900D1124998788870115F4
:10517000110511F0C80192DF88859985080F191F64
:105180002A96F3EAEF16F2E0FF06A9F6E1E3F5E06E
:1051900086EF91E0DF019C011D9221503040E1F744
:1051A0001092300510922F051092080810920708EF
:1051B00010920C0810920B0810920A08109209081D
:1051C00010920E0810920D081092100810920F08FD
:1051D00010921208109211081092160810921508D9
:1051E00010921408109213081092180810921708C1
:1051F00010921A08109219081092E6071092E5070B
:105200001092E8071092E70790E080E0DF91CF91DD
:105210001F910F91FF90EF90DF90CF90089500972E
:10522000F1F0F894A3EAB2E0E9EEF7E030E020E034
:105230004D915D9148175907A8F04281538141155E
:10524000510581F08AE0829FF001839FF00D1124C7
:10525000E751F84F80819181009759F4789490E05C
:1052600080E008952F5F3F4F3A962330310501F7D4
:10527000F5CFDC0111966D917C9171836083415073
:10528000510953834283FC012193CF0178940895FF
:10529000009749F1DC018E91853041F4E091E707F8
:1052A000F091E8073097F9F0CD0119948530D8F4E2
:1052B000282F30E0F8948FEF8C938AE0829FF001E2
:1052C000839FF00D1124E751F84F80819181129650
:1052D0009C938E931197B183A083828193810196D1
:1052E0009383828378940895CF92DF92EF92FF9216
:1052F0000F931F93CF93DF939C0184E395E08C7F02
:105300004115510509F49BC02115310509F497C0D9
:105310006115710509F493C07A01AB01B9016D5FA4
:105320007F4F6C7F9B012F5F3F4F249F8001259F04
:10533000100D349F100D1124F8942091070830911E
:105340000808232B59F420910F08309110082115DB
:10535000310569F12017310708F058C02091110874
:1053600030911208232B91F420910F0830911008EE
:10537000820F931F2091190830911A0821153105C9
:1053800009F441C02017310708F056C07894CFEFD8
:10539000DFEF86EF9FEFF701D183C083DF91CF91DD
:1053A0001F910F91FF90EF90DF90CF900895C3E091
:1053B000D0E0C0902F05D090300523EF31E02C19BC
:1053C0003D092017310710F32AE02C9FF0012D9F93
:1053D000F00D1124E751F84F918380835583448366
:1053E000538342837783668311870087009709F090
:1053F00055DE0C0D1D1D1093300500932F0578947C
:1054000090E080E0C8CFC4E0D0E0D3CFC3E0D0E0EC
:105410002AE02C9FF0012D9FF00D1124E751F84F49
:105420009183808355834483538342837783668348
:10543000009729F333DEE3CFC4E0D0E0E9CF8FEF6C
:105440009FEFACCF9C010397029708F069C0F894D6
:1054500084E09AE0482F50E0241735070CF44DC043
:1054600091E08AE0829FF001839FF00D1124E751C3
:10547000F84F1182108215821482138212821782D1
:1054800016829923B1F18091070890910808892B21
:10549000A9F420910F08309110082115310571F001
:1054A00080912F0590913005821B930B90933005CE
:1054B00080932F051092100810920F088091110808
:1054C00090911208892BA9F42091190830911A089B
:1054D0002115310571F080912F0590913005821BC7
:1054E000930B9093300580932F0510921A08109219
:1054F0001908789490E080E00895949FF001959FBA
:10550000F00D1124E751F84F40815181452B31F4C2
:1055100040855185452B11F481509CCF90E0A1CF5F
:105520008FEF9FEF08954115510549F1009739F12B
:105530006115710521F1F8942091E5073091E60796
:10554000232BB9F42091E7073091E807232B89F446
:105550009093E6078093E5077093E8076093E70769
:10556000789425E030E090E080E0FA0131832083F8
:10557000089578942FEF3FEF86EF9FEFF6CF8FEFF0
:105580009FEF0895059769F4F8941092E60710923A
:10559000E5071092E8071092E707789490E080E022
:1055A00008958FEF9FEF08956115710519F4F0E0EC
:1055B000E0E011C08530910581F4E091E507F091BC
:1055C000E6073097A1F3CB0101961995009779F37F
:1055D000FC0185E08193CF0108959C01235031099E
:1055E0002230310520F72AE0289FD001299FB00DF5
:1055F0001124A751B84F2D913C911197232BB9F24B
:1056000016962D913C9117972617370780F2F8943C
:1056100012962D913C9113972115310529F0ED91AA
:10562000FC911197309711F47894C1CF4181528148
:1056300011965C934E932150310913963C932E930F
:10564000129781937894C7CFE7E2F7E08EEBDF0102
:105650001D928A95E9F7E1E3F5E086EF91E0DF013D
:105660009C011D9221503040E1F7109230051092BC
:105670002F05E9EEF7E082E3DF011D928A95E9F755
:10568000E5EEF7E084E0DF011D928A95E9F790E00E
:1056900080E00895CF93DF93C091A902D091AA0230
:1056A000CF3FDC0759F423D49093AA028093A90238
:1056B00097FF09C0D093AA02C093A90284EF9FEF7D
:1056C000DF91CF91089590E080E0FACF823091058C
:1056D00028F480931B0890E080E008958FEF9FEFFF
:1056E00008954F925F926F927F92AF92BF92CF9246
:1056F000DF92EF92FF920F931F93CF93DF931F924E
:105700001F92CDB7DEB71A821982009709F479C0CB
:105710006115710509F475C02091A9023091AA02A2
:1057200007EF1FEF2F3F3F4F09F445C06B015C01AE
:10573000412C512C3201F12CE12C10E000E09E01B3
:105740002F5F3F4FA6014E195F09B5016E0D7F1DFA
:105750008091A9029091AA022ED4892B09F04BC006
:1057600089819A81009741F4E114F10429F4209190
:105770001B08222309F442C0E80EF91EEC14FD04B4
:10578000D0F480E8481684E858068EE16806710473
:1057900020F560E070E0CB010E94A9352AE0420EBE
:1057A000511C611C711C0A3F4FEF140721F0043F8C
:1057B0008FEF1807A1F4C8010F900F90DF91CF91E0
:1057C0001F910F91FF90EF90DF90CF90BF90AF901F
:1057D0007F906F905F904F90089501EF1FEF81E0F1
:1057E00090E0013F2FEF120711F090E080E0892B4D
:1057F00009F4A5CFE0CF04EF1FEFDDCF0AEF1FEFD5
:10580000DACF0FEF1FEFD7CF4F925F926F927F9259
:10581000AF92BF92CF92DF92EF92FF920F931F93BE
:10582000CF93DF931F921F92CDB7DEB71A821982F2
:10583000009709F479C06115710509F475C02091CC
:10584000A9023091AA0207EF1FEF2F3F3F4F09F443
:1058500045C06B015C01412C512C3201F12CE12C33
:1058600010E000E09E012F5F3F4FA6014E195F0937
:10587000B5016E0D7F1D8091A9029091AA024ED3B1
:10588000892B09F04BC089819A81009741F4E1147A
:10589000F10429F420911B08222309F442C0E80EE8
:1058A000F91EEC14FD04D0F480E4481682E4580696
:1058B0008FE06806710420F560E070E0CB010E9483
:1058C000A9352AE0420E511C611C711C0E3F4FEF9E
:1058D000140721F0043F8FEF1807A1F4C8010F90BF
:1058E0000F90DF91CF911F910F91FF90EF90DF907C
:1058F000CF90BF90AF907F906F905F904F90089542
:1059000002EF1FEF81E090E0023F2FEF120711F04E
:1059100090E080E0892B09F4A5CFE0CF04EF1FEFE2
:10592000DDCF0EEF1FEFDACF0FEF1FEFD7CF809154
:10593000A9029091AA028F3F980749F0D0D2892BF3
:1059400049F48FEF9FEF9093AA028093A90290E011
:1059500080E0089584EF9FEF0895CF92DF92EF9259
:10596000FF920F931F93CF93DF9321E041155105D1
:1059700009F020E04150510921112CC0DC01FB014C
:10598000D12CC12C21E022C03FEFC31AD30A7D01E4
:105990000D911D91E701EA80FB80E016F106A8F465
:1059A00020813181E280F380F182E082338322839F
:1059B000ED90FC9011979D0122503109E901F98287
:1059C000E88211961C930E9320E03296C416D506F9
:1059D000D8F2D2CFDF91CF911F910F91FF90EF902E
:1059E000DF90CF900895FC01680F791F90E080E070
:1059F000E617F70709F408952191820F911DF8CF5A
:105A000020911C08211113C045DE009791F41092DB
:105A10002208109221081092200810921F0810925C
:105A20001E0810921D0821E020931C08089584EFA1
:105A30009FEF0895AF92BF92CF92DF92EF92FF92C5
:105A40000F931F93CF93DF93009709F460C0463004
:105A5000510508F45CC020911C08C7EFDFEF22233A
:105A600009F449C08C01060F171FF801C080D180CE
:105A7000C114D10409F44EC096012A5F3F4F42176A
:105A8000530708F447C07C018091210890912208B7
:105A900093838283B6016C5F7F4F5801A60EB71EB9
:105AA000C801A1DFF5019183808364E070E0C80143
:105AB00018DEEC01892BF9F481E090E007DEB601F5
:105AC000C80104960EDEEC01892B91F462E070E0CF
:105AD000C50107DEEC01892B59F4C701D9DB8091A0
