:1000000061C000000C9477290C949E2983C00000E5
:1000100081C000007FC000007DC000007BC00000E8
:1000200079C0000077C0000075C0000073C00000F8
:1000300071C000000C941D266DC000006BC0000054
:100040000C94C52967C000000C94892C0C94BB2C1F
:1000500061C000005FC000005DC000005BC0000028
:1000600059C0000057C00000000000080002010055
:100070000003040700000000000000000102040863
:100080001020408001020408102001020408102002
:10009000040404040404040402020202020203032E
:1000A00003030303000000002300260029000000D2
:1000B0000000250028002B0000000000240027007D
:1000C0002A00E02C11241FBECFEFD8E0DEBFCDBF49
:1000D00011E0A0E0B1E0E2E6FBE502C005900D9280
:1000E000AC3DB107D9F725E0ACEDB1E001C01D9200
:1000F000A432B207E1F710E0C2E6D0E004C02197D5
:10010000FE010E94802DC136D107C9F70E941B272E
:100110000C94AF2D75CFCF93DF93EC0170E060E0CE
:100120006C177D070CF5072E000C880B990B0E94AD
:100130003F2820E030E0A9010E94A42720E030E021
:10014000A9010E94A42720E030E040E450E40E948E
:10015000A42720E030E040E450E40E94A3270E945E
:100160000C286F5F7F4FDCCFDF91CF910895CF9345
:10017000DF938091EC019091ED010E94372BEC010F
:100180008091F2019091F301C6DF8091EE01909190
:10019000EF010E94372B019771F48091F00190914B
:1001A000F101219771F401969093F1018093F00190
:1001B000DF91CF9108958091F0019091F101CD2BC5
:1001C00091F30197F1CFCF93DF938091E401909168
:1001D000E5010E94372BEC018091EA019091EB013F
:1001E0009ADF8091E6019091E7010E94372B0197F9
:1001F00071F48091E8019091E901219771F40196E1
:100200009093E9018093E801DF91CF910895809167
:10021000E8019091E901CD2B91F30197F1CFCF93B4
:10022000DF938091DC019091DD010E94372BEC017E
:100230008091E2019091E3016EDF8091DE01909167
:10024000DF010E94372B019771F48091E0019091BA
:10025000E101219771F401969093E1018093E0010F
:10026000DF91CF9108958091E0019091E101CD2B34
:1002700091F30197F1CFCF93DF938091E6019091B5
:10028000E7010E94372BEC018091EA019091EB018C
:1002900042DF8091E4019091E5010E94372B0197A4
:1002A00071F48091E8019091E901CD2B71F40196F0
:1002B0009093E9018093E801DF91CF9108958091B7
:1002C000E8019091E901219791F30197F1CFCF9344
:1002D000DF938091DE019091DF010E94372BEC01CA
:1002E0008091E2019091E30116DF8091DC01909111
:1002F000DD010E94372B019771F48091E00190910C
:10030000E101CD2B71F401969093E1018093E0011E
:10031000DF91CF9108958091E0019091E1012197C3
:1003200091F30197F1CFCF93DF938091EE019091FC
:10033000EF010E94372BEC018091F2019091F301C3
:10034000EADE8091EC019091ED010E94372B01973C
:1003500071F48091F0019091F101CD2B71F401962F
:100360009093F1018093F001DF91CF9108958091F6
:10037000F0019091F101219791F30197F1CF0F9343
:100380001F93CF93DF938C01EC0183E0CC0FDD1F33
:100390008A95E1F7C452DE4F798368835B834A8391
:1003A0008881998160E00E94CE2A8A819B8160E0E9
:1003B0000E94CE2A8881998161E00E940A2B8A815D
:1003C0009B8161E00E940A2B01301105D9F10230B6
:1003D000110509F466C0012B09F092C08091DC017F
:1003E0009091DD0102978431910530F58B5C9E4F31
:1003F000FC018081082E000C990B41E050E067E67B
:1004000071E00E9457298091DE019091DF010297EF
:1004100084319105A0F48B5C9E4FFC018081082EF5
:10042000000C990B41E050E06FE071E0DF91CF915B
:100430001F910F910C9457298FEF9FEFDECF8FEF15
:100440009FEFF0CF8091E4019091E5010297843114
:10045000910508F58B5C9E4FFC018081082E000CF5
:10046000990B41E050E06BE371E00E9457298091C5
:10047000E6019091E70102978431910578F48B5C55
:100480009E4FFC018081082E000C990B41E050E04A
:1004900063EE70E0CBCF8FEF9FEFE3CF8FEF9FEF57
:1004A000F5CF8091EC019091ED0102978431910597
:1004B00008F58B5C9E4FFC018081082E000C990B87
:1004C00041E050E063E971E00E9457298091EE011C
:1004D0009091EF0102978431910578F48B5C9E4FE7
:1004E000FC018081082E000C990B41E050E067EB85
:1004F00070E09CCF8FEF9FEFE3CF8FEF9FEFF5CFB3
:10050000DF91CF911F910F91089523E0880F991FDC
:100510002A95E1F7FC01E452FE4F8481958108950C
:1005200090E080E008950F931F93009709F487C02F
:100530006115710509F483C000910801109109014A
:1005400020910A0130910B010E3F1F4F2F4F3F4F5B
:1005500009F066C04FEF5FEFBA0140930801509376
:10056000090160930A0170930B01409108015091B9
:10057000090160910A0170910B01DC011296ED9165
:10058000FC9180819181A281B38180935C029093E0
:100590005D02A0935E02B0935F0284819581A68183
:1005A000B7818093580290935902A0935A02B09356
:1005B0005B0280859185A285B385809354029093D8
:1005C0005502A0935602B093570284859585A6855F
:1005D000B7858093500290935102A0935202B0933A
:1005E000530210924C0210924D0210924E02109241
:1005F0004F022CD78BE49AE09093F5018093F4019D
:100600009093F7018093F60110D6009731F421E022
:1006100030E030936102209360021F910F910895A2
:10062000009108011091090120910A0130910B01FC
:10063000DB010D931D932D933C93139796CF8FEF72
:100640009FEFEBCF8F929F92AF92BF92CF92DF92AC
:10065000EF92FF921F93CF93DF934B015C011091B8
:10066000630282E090E090936102809360028114C3
:100670009104A104B10441F480916302811104C08A
:1006800080916202C1E08111C0E0C12CD12C7601C1
:1006900080916302811106C080916202811102C0C3
:1006A000CC23D9F083E090E09093610280936002C4
:1006B000CC2379F1CCE9DFEF111102C00E94AF0D1C
:1006C000CE01DF91CF911F91FF90EF90DF90CF90FF
:1006D000BF90AF909F908F9008956AE070E080E0A7
:1006E00090E00E94342A80E1C80E87E2D81EE11C07
:1006F000F11C8FEF88169806A806B80631F0C1E005
:100700008C149D04AE04BF0408F0C0E080E0C1D5A5
:10071000BFCFD0E0C0E0D0CFCF92DF92EF92FF9278
:100720000F931F93CF93DF938F3F910511F008F044
:1007300050C020916002309161022330310539F0C0
:1007400020916002309161022130310531F424E0C2
:1007500030E030936102209360026A017B01EC017A
:1007600082309105A0F011E0AE01C701B6015CD561
:10077000AB01BC01CE011123F9F0DF91CF911F91A4
:100780000F91FF90EF90DF90CF900C94D80F8C01D9
:10079000000F111F0C501E4FD8018D919C91892B79
:1007A00011F30E94E20F0297F1F6D801ED91FC914E
:1007B000CE010995182FD8CF0E94FA0F90E080E063
:1007C000DF91CF911F910F91FF90EF90DF90CF902D
:1007D00008958FEF9FEFF4CF80E05BC5CF93DF9359
:1007E00086E090E09093610280936002ABD5EC01CB
:1007F000E4EFF1E084E0DF011D928A95E9F70E94C1
:10080000470D1092610210926002CE01DF91CF91EC
:10081000089580916202089580914B02089560933B
:1008200008017093090180930A0190930B0190E0F5
:1008300080E008952F923F924F925F926F927F9245
:100840008F929F92AF92BF92CF92DF92EF92FF92E0
:100850000F931F93CF93DF93CDB7DEB7CB54D1095E
:100860000FB6F894DEBF0FBECDBF26967FAF6EAF3A
:10087000269728965FAF4EAF28973E8B2D8B2C96F0
:10088000FFAEEEAE2C97FB01E150F04CEE0FFF1FD8
:10089000EE0FFF1FE80FF91F80809180A280B380C8
:1008A0008F8A988EA98EBA8EB501A401442777FD50
:1008B000439555276627772729964FAF2997F90142
:1008C000E150F04CEE0FFF1FEE0FFF1F2896AEAC6D
:1008D000BFAC2897EA0DFB1DC080D180E280F38079
:1008E000CB8EDC8EED8EFE8EB701A601442777FD00
:1008F00043955527662777272A964FAF2A97188B57
:100900000F87F80130E020E02C96EEACFFAC2C977E
:100910002E153F050CF43FC022969FAF8EAF229755
:100920001A8B098B312C212C812C912C540183940E
:100930008D829E82AF82B88626968EAC9FAC26971B
:10094000281439047CF129969FAC29972A96AFACDC
:100950002A9730E020E041E050E060E070E09A103B
:10096000F5C1C55BDF4F0FB6F894DEBF0FBECDBF3C
:10097000DF91CF911F910F91FF90EF90DF90CF907B
:10098000BF90AF909F908F907F906F905F904F90AF
:100990003F902F90089511921192119211922F5F12
:1009A0003F4FB2CF2296EEADFFAD2297819191914C
:1009B000A191B1912296FFAFEEAF22978F88988CCC
:1009C000A98CBA8CB7FE23C04D815E816F8178857A
:1009D00041505109610971095A016B01A81AB90AFC
:1009E000CA0ADB0AD601C50121E0CD80DE80EF8096
:1009F000F8848C159D05AE05BF0508F020E0822E19
:100A0000912CB12CA12C8D829E82AF82B8865D0183
:100A1000CC24DD24A8A2B9A2CAA2DBA29C01AD010C
:100A2000442755272CA33DA34EA35FA32C96EEADE0
:100A3000FFAD2C97E219F3098D889E888E169F06CC
:100A40000CF4F4012896AEACBFAC28972496BFAE48
:100A5000AEAE2497C988DA88DC8ACB8A1E861D86CA
:100A6000812C912C5401839489869A86AB86BC860E
:100A7000812C912C5401CD84DE84CE16DF0604F146
:100A8000F7FF02C0F0E0E0E0E20DF31D2C96EEACC3
:100A9000FFAC2C97EE15FF0554F4EE0FFF1FEE0F81
:100AA000FF1FE00FF11F80829182A282B3822FEF9D
:100AB000221A320AE989FA893496FA8BE98B3CCFFB
:100AC0002496AEADBFAD2497CD90DD90ED90FD9016
:100AD0002496BFAFAEAF24972B8D3C8D4D8D5E8D90
:100AE00057FF22C089859A85AB85BC850197A109EE
:100AF000B109AC01BD014C195D096E097F096A019C
:100B00007B0181E029853A854B855C85C216D30639
:100B1000E406F50608F080E0482F50E070E060E061
:100B200049875A876B877C87B7018827992768A7E9
:100B300079A78AA79BA7EE24FF2428A139A14AA15F
:100B40005BA1C701B6010E943B2D2B013C012CA1EA
:100B50003DA14EA15FA168A579A58AA59BA50E948C
:100B60003B2D6CA77DA78EA79FA7AB89BC894D9114
:100B70005D916D917D91BC8BAB8BDB01CA01880DC2
:100B8000991DAA1DBB1D89839A83AB83BC8391E009
:100B90009F8F29813A814B815C81281539054A054F
:100BA0005B0508F01F8E2CA13DA14EA15FA1C701DE
:100BB000B6010E943B2D6B017C0189809A80AB803D
:100BC000BC808C0C9D1CAE1CBF1C89829A82AB829F
:100BD000BC8252019924882488AA99AAAAAABBAAED
:100BE00029813A814B815C81280D391D4A1D5B1D8D
:100BF0002CAB3DAB4EAB5FAB8CA49DA4AEA4BFA40D
:100C000054019924882488AE99AEAAAEBBAE280DB3
:100C1000391D4A1D5B1D2CAF3DAF4EAF5FAFAB8999
:100C2000BC8914972D933D934D935C93139728A102
:100C300039A14AA15BA168A579A58AA59BA50E94B7
:100C40003B2D9F8C690D711D811D911D2301662413
:100C50007724460E571E681E791E2CA53DA54EA56D
:100C60005FA54A01AA24BB24840C951CA61CB71CB2
:100C700081E090E0A0E0B0E049815A816B817C8105
:100C80004C155D056E057F0518F080E090E0DC01F5
:100C9000880D991DAA1DBB1D41E050E060E070E089
:100CA00088A899A8AAA8BBA8CCA8DDA8EEA8FFA8E8
:100CB000C814D904EA04FB0418F040E050E0BA017B
:100CC000840F951FA61FB71F812C912C540183946C
:100CD000C8ACD9ACEAACFBAC2CAD3DAD4EAD5FAD14
:100CE0002C153D054E055F0518F0812C912C540103
:100CF000880E991EAA1EBB1E4D855E854F5F5F4FF5
:100D00005E874D87B8CEEF85F889C190D190E1908C
:100D1000F190F88BEF87DB01CA010197A109B109B6
:100D20008C199D09AE09BF09349780839183A283F2
:100D3000B383E1E084179507A607B70708F0E0E062
:100D40004E2F50E070E060E02F5F3F4F2C968EAC4E
:100D50009FAC2C9728153905B4F203CECF92DF92C1
:100D6000EF92FF920F931F93CF93DF93CDB7DEB730
:100D700028970FB6F894DEBF0FBECDBFC09000011C
:100D8000D0900101E0900201F0900301A7019601CB
:100D90006091FC047091FD048091FE049091FF0429
:100DA0000E940828882341F0C092FC04D092FD04E0
:100DB000E092FE04F092FF0490E080E0A6DB409118
:100DC00004015091050160910601709107014D8366
:100DD0005E836F837887092E000CAA0BBB0B898377
:100DE0009A83AB83BC8382E0E82EF12C02E015E00D
:100DF00021E030E0AE014F5F5F4F61E070E0CE0177
:100E0000059618DD609122027091230280912402E0
:100E1000909125026F5F7F4F8F4F9F4F609322020B
:100E20007093230280932402909325020E943D2810
:100E30009B01AC01609126027091270280912802EB
:100E4000909129020E94F32860931E0270931F0262
:100E5000809320029093210228960FB6F894DEBF6B
:100E60000FBECDBFDF91CF911F910F91FF90EF90FB
:100E7000DF90CF900895CF93DF9384E090E09CD0F3
:100E8000E8E0F2E080E090E0A0E8BFEB82A393A36B
:100E9000A4A3B5A38AE097EDA3E2BCE3868F978F66
:100EA000A0A3B1A387E399E6A1E1B0E18483958390
:100EB000A683B78386E99AEDADE2BAEA8087918787
:100EC000A287B38785ED99E3A2E8BDEF8487958774
:100ED000A687B7878CE590E6AFEDB5E2808B918B66
:100EE000A28BB38BACEFB1E0B383A283E8EFF1E068
:100EF0001196FC93EE9389E491E091838083938330
:100F000082838CE192E015969C938E9314978CE0EB
:100F100092E013969C938E9312978EE192E017962F
:100F20009C938E931697C6EFD4E0188280910001AF
:100F300090910101A0910201B09103018E839F83E2
:100F4000A887B98781E090E0A0E0B0E089839A8328
:100F5000AB83BC8345E050E064E070E090E080E06B
:100F60000EDA81E08D83DF91CF9108958091F604B0
:100F7000811103C081E08093F604089560E070E081
:100F800080E89FE7089560E070E080E89FE70895BB
:100F900060E070E080E89FEF089560E070E080E836
:100FA0009FEF089560E070E080EC9FEF089560E0AF
:100FB00070E080EC9FEF0895F5DF60931605709365
:100FC00017058093180590931905F1DF60930A05C2
:100FD00070930B0580930C0590930D05CFDF609304
:100FE0001205709313058093140590931505CBDFBC
:100FF00060930E0570930F05809310059093110573
:10100000C7DF60931A0570931B0580931C059093AE
:101010001D05C3DF60931E0570931F058093200597
:101020009093210508954F925F926F927F928F92D5
:101030009F92AF92BF92CF92DF92EF92FF920F9367
:101040001F93F89440903B0250903C0260903D0208
:1010500070903E02C0902F02D0903002E09031029A
:10106000F0903202452B09F0A4C09B01AC01241979
:1010700035094609570929013A01009137021091B3
:1010800038022091390230913A0248015901840C0A
:10109000951CA61CB71C80169106A206B306A0F4E8
:1010A00000913302109134022091350230913602C2
:1010B0000F5F1F4F2F4F3F4F0093330210933402A7
:1010C0002093350230933602809237029092380294
:1010D000A0923902B0923A02009133021091340288
:1010E000209135023091360280923F029092400268
:1010F000A0924102B0924202009343021093440234
:10110000209345023093460260933B0270933C0269
:1011100080933D0290933E02A0E1B7E2A3019201C9
:101120000E94862D6C0D7D1D8E1D9F1D60932F02CC
:101130007093300280933102909332020091080143
:101140001091090120910A0130910B010F3F1F4FAF
:101150002F4F3F4FF1F000910801109109012091AC
:101160000A0130910B010E3F1F4F2F4F3F4F89F067
:10117000C0900801D0900901E0900A01F0900B01A5
:1011800021E08C149D04AE04BF0408F420E02093F9
:101190004B0278941F910F91FF90EF90DF90CF90CA
:1011A000BF90AF909F908F907F906F905F904F9087
:1011B00008954B015C0184189508A608B708A3019F
:1011C0009201261B370B480B590B641575058605D4
:1011D0009705D0F082169306A406B50640F420E0E9
:1011E00030E0A90181149104A104B10491F4A0E1BB
:1011F000B7E20E94862DA7019601261B370B480BEC
:10120000590BCA01B901C5CF82169306A406B506CB
:1012100070F7A0E1B7E2A50194010E94862D6C0D44
:101220007D1D8E1D9F1DB5CFFECECF93DF9300D0C9
:1012300000D0CDB7DEB71C821B821A8219821092B1
:101240004702109248021092490210924A02BE01CF
:101250006F5F7F4FCE0103960E94012669817A81DC
:101260008B819C810E94F91E009761F4BE016F5F23
:101270007F4FCE0103960E940D2669817A818B8172
:101280009C812CD50F900F900F900F90DF91CF91F4
:101290000895FF920F931F93CF93DF93082F60E081
:1012A00070E0CB010E94342AFF24F3940E94E41DD5
:1012B000EC01892B89F010E0CE3F8FEFD80769F061
:1012C000002361F160E070E0CB010E94342A81E0EC
:1012D00090E0892B59F322C011E023D5EC01892B32
:1012E00021F0CE3F8FEFD80759F711111EC011E042
:1012F000229609F410E00E94951DEC01892B21F043
:10130000CE3F8FEFD807E1F6111111C011E0CE3FAB
:101310008FEFD80709F410E001110BC0CE01DF9167
:10132000CF911F910F91FF90089511E0E4CF11E04C
:10133000F3CF60E070E0CB010E94342A1F25812F9B
:1013400090E0C7CFCF93DF9380914B02882321F0A9
:1013500060E070E0CB014CD635D6D0E0C0E0892B00
:1013600071F06AE070E080E090E00E94342A81E051
:1013700090DF28D62196C03D27E0D20781F727D6F7
:101380000E944D1F109263021092620210925C0242
:1013900010925D0210925E0210925F02109258024B
:1013A0001092590210925A0210925B02109254024B
:1013B000109255021092560210925702109250024B
:1013C00010925102109252021092530210924C024B
:1013D00010924D0210924E0210924F024EEF5FEFAC
:1013E0006FEF7FEF409308015093090160930A016A
:1013F00070930B0110924B02EFE3F2E028E0DF0163
:101400001D922A95E9F710923B0210923C0210922D
:101410003D0210923E021092370210923802109252
:10142000390210923A021092330210923402109252
:1014300035021092360210922F0210923002109252
:10144000310210923202DF91CF91089510926F0213
:1014500010927002109271021092720210926E023B
:10146000809177029091780290936D0280936C0244
:1014700010926B0210926A0210926602109267023A
:101480001092680210926902109274021092730214
:1014900090E080E00895CF92DF92EF92FF920F9359
:1014A0001F93CF938C01892B09F055C020917702AF
:1014B0003091780280916C0290916D024091770298
:1014C0005091780250936D0240936C0228173907AF
:1014D00081F010926B0210926A02109266021092D2
:1014E00067021092680210926902109274021092C0
:1014F00073028091770290917802019761F5809153
:10150000730290917402892B21F480910C01811156
:1015100012C080917302909174020197E1F480915E
:10152000660290916702A0916802B09169020197EA
:10153000A105B10581F41092660210926702109223
:1015400068021092690210920C0182E090E0909380
:1015500074028093730280917702909178020197D0
:1015600009F01CC180918D0290918E028017910725
:1015700009F014C18091890290918A02A0918B0296
:10158000B0918C02009709F409C1209188022111C1
:101590000DC04091890250918A0260918B02709136
:1015A0008C02452B462B472B09F4F8C0209173027F
:1015B000309174022230310509F0F0C020916A02A6
:1015C0002111ECC0FC01C080D180E280F3808091C9
:1015D0006E02882309F4D3C080917A0290917B0235
:1015E000892B09F4FDC020917A0230917B0281E0C1
:1015F0002230310509F080E020917A0230917B029F
:10160000C1E02130310549F020917A0230917B020E
:10161000C1E02230310509F0C0E0882309F456C04A
:101620002091840230918502409186025091870278
:10163000C701B6010E94EF2887FD14C020918402E3
:1016400030918502409186025091870260916F022D
:101650007091700280917102909172020E9408282C
:1016600087FD22C02091840230918502409186023C
:1016700050918702C701B6010E94EF28181634F571
:101680002091840230918502409186025091870218
:1016900060916F027091700280917102909172025C
:1016A0000E940828811112C080917C0290917D02D5
:1016B000A0917E02B0917F02892B8A2B8B2B19F48B
:1016C00081E080936B0281E080936A02CC2309F46D
:1016D00056C020918402309185024091860250913B
:1016E0008702C701B6010E94082887FF14C0209115
:1016F0008402309185024091860250918702609168
:101700006F027091700280917102909172020E943A
:10171000EF2887FF22C020918402309185024091FA
:10172000860250918702C701B6010E9408288111E4
:1017300026C020918402309185024091860250910A
:10174000870260916F027091700280917102909196
:1017500072020E94EF28181694F480917C029091F6
:101760007D02A0917E02B0917F02892B8A2B8B2B68
:1017700019F481E080936B0281E080936A0281E03A
:1017800090916A02911180E080936E02C0926F0284
:10179000D0927002E0927102F0927202012B09F075
:1017A00067C18091730290917402892BD9F41092D1
:1017B000790210926A0280910C01882379F082E00C
:1017C00090E0909374028093730210920C01209128
:1017D00077023091780281E0232BE9F080E01BC092
:1017E00081E00ACF10920C0180917902882349F0A0
:1017F00010926B021092740210927302109279028E
:10180000EDCF8091770290917802892BE1F0809161
:101810006A0210926A02209173023091740222309F
:10182000310509F45EC088F42115310509F448C07A
:101830002130310509F4F3C010926B0210926A0254
:101840001092790238C081E0E6CF2330310509F4E7
:10185000B1C02430310581F7409166025091670292
:101860006091680270916902411551056105710529
:1018700061F041505109610971094093660250932A
:10188000670260936802709369024091660250910A
:1018900067026091680270916902452B462B472BC5
:1018A000D9F420917502309176022130310509F08A
:1018B00046C010926B0210927402109273020CC018
:1018C00080910C01882341F082E090E090937402B3
:1018D0008093730210920C011092640280916B024B
:1018E000CEC08823C9F380917C0290917D02A091A3
:1018F0007E02B0917F02181619061A061B060CF01C
:101900007DC08091770290917802019709F076C0AE
:1019100080917C0290917D02A0917E02B0917F0225
:101920008093660290936702A0936802B093690265
:1019300083E090E09093740280937302CDCF409146
:101940008002509181026091820270918302452B46
:10195000462B472BA9F010926B0280918002909148
:101960008102A0918202B0918302809366029093DB
:101970006702A0936802B093690281E090E0DACF39
:10198000882399F080910D0190910E01A0910F0193
:10199000B09110018093660290936702A093680251
:1019A000B093690284E090E0C5CF10926B0282E0B0
:1019B00090E0C0CF8091660290916702A09168028A
:1019C000B09169020097A105B10559F00197A109ED
:1019D000B1098093660290936702A0936802B09366
:1019E00069028091660290916702A0916802B091AD
:1019F0006902892B8A2B8B2B09F06ECF80910D0108
:101A000090910E01A0910F01B0911001892B8A2BAA
:101A10008B2B09F44ECF81E080936B02B3CF4091C2
:101A200066025091670260916802709169024115E7
:101A300051056105710561F0415051096109710954
:101A40004093660250936702609368027093690244
:101A5000409166025091670260916802709169023C
:101A6000452B462B472B09F037CF8111C7CF9FCF8E
:101A700080916402882309F431CF80916502CF916F
:101A80001F910F91FF90EF90DF90CF9008951092EB
:101A90006F021092700210927102109272021092F4
:101AA0006E02109274021092730210926D021092E4
:101AB0006C0210928E0210928D0210926B021092A4
:101AC0006A021092660210926702109268021092E7
:101AD00069021092650210926402109289021092BB
:101AE0008A0210928B0210928C021092880210923D
:101AF000840210928502109286021092870288EE6C
:101B000093E0A0E0B0E080930D0190930E01A093CC
:101B10000F01B09310011092800210928102109276
:101B200082021092830210927C0210927D02109227
:101B30007E0210927F0210927B0210927A0281E064
:101B400080930C0110927902109278021092770221
:101B5000109276021092750290E080E008958091D4
:101B6000770290917802892B19F580910C018823D6
:101B700051F080917902811106C081E08093650265
:101B80008093640208952091790230910C0181E0E4
:101B900090E0332311F090E080E030E08223932343
:101BA000892B21F01092650281E0EACF1092640245
:101BB000089582E090E0FA01918380838FEF9FEF98
:101BC0000895CF93DF93EA01009711F00E946A20F5
:101BD0001982188290E080E0DF91CF910895DB01B7
:101BE000009719F48FEF8C9308952EEF2C930F9696
:101BF0008F30910508F033C0FC01EF5FF14F0C947A
:101C0000802D2D0E2B0E290E270E250E210E230EB4
:101C10001F0E1D0E1B0E180E140E100E160E2F0E7C
:101C200080E311968C93089589E2FBCF82E2F9CF8D
:101C300011961C92089583E2F4CF81E2F2CF81E104
:101C4000F0CF87E2EECF8AE2ECCF80E1EACF84E208
:101C5000E8CF88E2E6CF86E2E4CF81E3E2CF80E21C
:101C6000E0CF80919B0290919C02089590939C02FA
:101C700080939B02089580919A02089590919A0210
:101C8000892B80939A020895982F909580919A02BB
:101C9000892380939A0208958091990208958091F2
:101CA00097029091980208956115710559F0FB0112
:101CB00030E020E070E060E02417350719F061158E
:101CC000710511F0CB010895A081B181A817B90762
:101CD00009F4BF012F5F3F4F3696EECF80919D02F2
:101CE00081111CC062D268D29093900280938F02BF
:101CF0000E946F180E94811890939402809393021F
:101D00000E94FF1C0E94061D9093920280939102F4
:101D100081E080939D0290E080E0089584EF9FEF42
:101D200008958F929F92AF92BF92CF92DF92EF92DF
:101D3000FF920F931F93CF93DF93CDB7DEB72A9710
:101D40000FB6F894DEBF0FBECDBF1A86198618866F
:101D50001F821E821D821C821B821A821982809120
:101D60009D0207EF1FEF882309F49CC08E010D5FD1
:101D70001F4F9E012B5F3F4FAE01495F5F4FBE017A
:101D8000675F7F4F90E080E00E947F1E8C0100978C
:101D900021F00596029708F0DBC029853A852115C8
:101DA000310509F402C1ED80FE804B815C81B701F1
:101DB000640F751F8F8198858617970708F4F5C003
:101DC000E20EF31ED7019C91903C09F07FC0423097
:101DD000510508F47BC011968C9140919B02509163
:101DE0009C02452B09F49CC0913F08F071C02CE186
:101DF000290F2D3008F48BC02DE2290F203108F473
:101E000089C0903C21F48150823008F483C088E37B
:101E1000890F8B3008F481C09FEEC92E9DE0D92E2A
:101E2000E9EDFDE06D817E81AE014F5F5F4F8985F9
:101E30009A8509955C01C114D104A1F189809A8029
:101E40008114910479F18B819C818815990508F49E
:101E500087C010E000E04B815C8170E060E0C7016A
:101E60000E94A82D01151105E9F449815A8169855F
:101E70007A858D819E81680F791FC501F6010995CC
:101E8000E980FA800D811E812F81388549855A8528
:101E90006FEF7FEF81E090E00E941B1E8C01892B89
:101EA00009F056C0C8012A960FB6F894DEBF0FBEDF
:101EB000CDBFDF91CF911F910F91FF90EF90DF90F9
:101EC000CF90BF90AF909F908F90089580E085CF86
:101ED00030E020E0220F331FF901E157FD4F019060
:101EE000F081E02D309709F497CF892F90E0099584
:101EF000009709F491CFDC011296ED91FC911397B4
:101F00001496CD90DC90309709F08CCF1FC021E063
:101F100030E0E0CF22E030E0DDCF23E030E0DACF88
:101F2000D12CC12CE1EEFDE09F3F09F07BCFE09189
:101F30008F02F0919002309721F4C90104EF1FEF56
:101F40000CC08FEF90E009950097A9F604EF1FEF02
:101F500089859A85009709F4A5CF0E946A20A2CFAF
:101F60000E94481F8C0189859A850E946A2070E032
:101F700060E0C4010E94E11E98878F830E94181EB2
:101F80009E838D836F8178856115710559F0C80135
:101F90000E94F6219A87898706EF1FEF892B09F0A7
:101FA00058CF59CF08EF1FEF56CF08EF1FEFD0CF14
:101FB00020919D02222319F020E00C94861887EFCF
:101FC0009FEF089580919B0290919C0208950E943A
:101FD0000B1D0E94651CF5D0EFE8F2E088E0DF0100
:101FE0001D928A95E9F710929D0290E080E0089595
:101FF0000C94C21A21E040E050E0BA010C9486181B
:1020000086E090E0FA019183808390E080E008957B
:1020100047E050E06CE471E047CEDF92EF92FF9230
:102020000F931F93CF93DF938A01EC01C60FD71F45
:10203000E090A102F090A202D9800E94301FD81631
:10204000190678F082E090E0F801918380838EEFAA
:102050009FEFDF91CF911F910F91FF90EF90DF9055
:102060000895EF2841F482E090E0F80191838083A5
:1020700084EF9FEFEECF89818093A00290E00196DC
:10208000F8019183808390E080E0E3CFCF93DF93EA
:10209000EA010E94731B882321F00E943D1F0E94C9
:1020A000741B82E090E0998388838BEF9FEFDF9130
:1020B000CF910895CF93DF93EB0186E0FB0111925E
:1020C0008A95E9F78FEF8883D6DD8983E5DD8A83FA
:1020D000E6DD9D838C83DF91CF910895CF93DF93CD
:1020E000EA010E94761B811109C082E090E0998389
:1020F000888385EF9FEFDF91CF91089590E080E096
:10210000B5DD81E090E09983888390E080E0F3CFB3
:102110000F931F93CF93DF93EA018C01060F171FD4
:102120000E94761B81110BC082E090E09983888326
:1021300085EF9FEFDF91CF911F910F910895F801E7
:102140008181823038F082E090E0998388838EEF3D
:102150009FEFF0CF81E090E089DD88E090E0998307
:10216000888390E080E0E6CFCF93DF930097D1F4AF
:10217000EB01FB01329686E0DF011D928A95E9F7BB
:102180008FEF888385E089831A820E94301F8B83BA
:102190000E942F1F9D838C8381E08E838F83DF912C
:1021A000CF910895DF91CF911ACD88E090E190937F
:1021B0009F0280939E02089580919E0290919F02BB
:1021C000089510929F0210929E0208958091A1029C
:1021D0009091A2020895411105C061157105810514
:1021E000910561F06093A1027093A2028093A30213
:1021F0009093A4024093A50281E0089580E00895A1
:10220000FF920F931F93CF93DF938A01EC01C60FC8
:10221000D71FF9800E94301FF816190668F082E077
:1022200090E0F801918380838EEF9FEFDF91CF9153
:102230001F910F91FF9008956C817D818E819F8108
:102240004B81C9DF811108C082E090E0F8019183E1
:10225000808384EF9FEFEACF89818093A00290E092
:102260000196F8019183808390E080E0DFCFCF93E7
:10227000DF93EA01FC01E60FF71F64817581868117
:1022800097814381A8DF811109C082E090E09983A2
:10229000888384EF9FEFDF91CF91089581E090E0F4
:1022A0009983888390E080E0F6CFE1EAF2E0408114
:1022B000518162817381480F511D611D711D4083E1
:1022C0005183628373830895CF93C091A0024C2FF2
:1022D00050E06091A1027091A20201960E949F2D90
:1022E0008C2FE3DF1092A002CF910895009799F40C
:1022F0008091A1029091A2022FEFFB012083892BF4
:1023000059F02091A00230E02F5F3F4F241735078E
:1023100019F4CB01D9CF63CC0895009799F480913B
:10232000A1029091A2022FEFFB012083892B59F08B
:102330002091A00230E02F5F3F4F2417350719F49A
:10234000CB01C2CF4CCC089523E1AC01249FC00146
:10235000259F900D1124E091AA02F091AB02E80FA5
:10236000F91F238134812250310981E02230310567
:1023700008F080E008950F931F93CF93DF930091AF
:10238000AC021091AD02D0E0C0E080E00C171D0758
:1023900049F491E0811190E0892FDF91CF911F9155
:1023A0000F9108958111F5CFCE01CEDF2196EECFAA
:1023B000A091AA02B091AB02109729F12091AC0232
:1023C0003091AD0282179307F0F453E1589F9001CA
:1023D000599F300D1124A20FB31FED91FC9111975D
:1023E000309789F012968C91681768F48DE0689F99
:1023F000E00DF11D112480819181892B21F081E074
:102400009281491708F080E008959C0143E1429FC2
:10241000C001439F900D1124E091AA02F091AB02FC
:10242000E80FF91F8385823091F481E090E06581A7
:10243000768140911101509112016417750711F4D2
:1024400090E080E0892B19F081E0232B09F080E0F7
:102450000895FC01A081B1818DE0689FA00DB11DA0
:10246000112413964D915C9185859685489F900126
:10247000499F300D589F300D1124C90101966111FB
:1024800003C0478144FD04960895EF92FF920F9395
:102490001F93CF93DF93EA01FC01E60FF71F028140
:1024A0001381E480F5804F2D6E2DC80181DF8111ED
:1024B0000DC082E090E0998388838EEF9FEFDF91DB
:1024C000CF911F910F91FF90EF900895C8013CDFCD
:1024D000882339F082E090E09983888388EF9FEF2A
:1024E000EECF1093180100931701E0921901F092BA
:1024F0001A0181E090E09983888390E080E0DFCF4B
:10250000CF92DF92EF92FF920F931F93CF93DF93BF
:102510007A01EC01C60FD71FC0901701D0901801A7
:102520000091190110911A01412F602FC60140DF5F
:10253000811110C082E090E0F701918380838AEFDF
:102540009FEFDF91CF911F910F91FF90EF90DF9060
:10255000CF900895C601F8DE882341F082E090E034
:10256000F7019183808388EF9FEFEBCF4C815D81F2
:102570006E817F819A8189818F3F41F082E090E076
:10258000F701918380838EEF9FEFDBCFE3E1EC9D3A
:102590009001ED9D300D1124E091AA02F091AB0263
:1025A000E20FF31F0190F081E02D2DE0029FE00D7E
:1025B000F11D11240190F081E02D27E0129FE00D24
:1025C000F11D1124808391838B8182834383548303
:1025D000658376831F5F10931A0181E090E0F70115
:1025E0009183808390E080E0ACCFEF92FF920F93D5
:1025F0001F93CF93DF937A018C01060F171FC091B1
:10260000AA02D091AB02209781F021E030E0F801DE
:10261000828193814091AC025091AD02841795075D
:1026200010F030E020E0232B71F482E090E0F7011D
:10263000918380838EEF9FEFDF91CF911F910F9158
:10264000FF90EF90089543E1489F9001499F300D1E
:102650001124C20FD31F78DE882341F082E090E07E
:10266000F7019183808388EF9FEFE6CFF801248103
:10267000358120383105C8F687818111D6CF418157
:10268000842F90E08F7E009741F082E090E0F70188
:102690009183808386EF9FEFCFCF4F833E832D833F
:1026A000268128871986223010F421E0288721E02E
:1026B00030E0F70131832083BFCF88E090E0FA015A
:1026C0009183808390E080E00895FB018FEF808309
:1026D00081E181838FEF9FEF9383828380E890E095
:1026E00095838483168217820895FB018FEF808380
:1026F00091E0918382839383848384E3858381E063
:1027000090E0978386830895DF92EF92FF920F9374
:102710001F93CF93DF93EA01FC01E60FF71F81813E
:10272000813071F082E090E0998388838FEF9FEF92
:10273000DF91CF911F910F91FF90EF90DF9008955F
:1027400082819381D4802581E680F7800091AA025E
:102750001091AB020115110539F482E090E09983E4
:1027600088838CEF9FEFE4CF4091AC025091AD0293
:102770008417950738F082E090E0998388838EEF84
:102780009FEFD6CF892B39F082E090E09983888340
:1027900086EF9FEFCDCF8D2D8D7FB1F72130A1F743
:1027A00081E0D11006C091E0E916F10431F080E03B
:1027B00004C0E2E0EE16F104D0F3882329F390E0A0
:1027C00080E0C2DD882339F082E090E0998388833D
:1027D00088EF9FEFADCFF801D38681E08487F6863E
:1027E000E586108A178681E090E09983888390E0DF
:1027F00080E09ECF4CE050E066E771E055CA8F92D2
:102800009F92BF92CF92DF92EF92FF920F931F930E
:10281000CF93DF93EA01FC01E60FF71F82819381DA
:102820000481B580E091AA02F091AB02309791F457
:1028300082E090E0998388838CEF9FEFDF91CF91C6
:102840001F910F91FF90EF90DF90CF90BF909F90DE
:102850008F9008952091AC023091AD0282179307BA
:1028600038F082E090E0998388838EEF9FEFE6CF87
:1028700023E1289F6001299FD00C1124EC0DFD1D40
:10288000E080F180E114F10499F28281081748F7A1
:102890008DE0089F80011124E00EF11EF701808178
:1028A0009181892B29F6BB20E1F2F7E0BF9E400120
:1028B0001124C4010E943120F70191838083E091AB
:1028C000AA02F091AB02EC0DFD1D0190F081E02D0C
:1028D000E00FF11F80819181009739F482E090E050
:1028E000998388838DEF9FEFA9CFA40170E060E00A
:1028F0000E94A82D8091AA029091AB02C80ED91E09
:10290000F60180819181080F191FF801B28281E0E0
:1029100090E09983888390E080E090CFAF92BF925F
:10292000CF92DF92FF920F931F93CF93DF93EA0131
:10293000FC01E60FF71F82819381F4800091AA02C7
:102940001091AB020115110581F482E090E09983AA
:1029500088838CEF9FEFDF91CF911F910F91FF90B4
:10296000DF90CF90BF90AF9008952091AC0230914E
:10297000AD028217930738F082E090E09983888354
:102980008EEF9FEFE8CF2FEF2F0D2C3FA8F723E11D
:10299000289F6001299FD00C11240C0D1D1DF801EA
:1029A00080819181892B89F6FDE0FF9E50011124E1
:1029B000C5010E943120F80191838083E091AA0231
:1029C000F091AB02EC0DFD1D80819181009739F4EF
:1029D00082E090E0998388838DEF9FEFBCCFA501C3
:1029E00070E060E00E94A82DE091AA02F091AB0295
:1029F000EC0DFD1DF28281E090E09983888390E0E8
:102A000080E0A9CFCF92DF92EF92FF920F931F93B6
:102A1000CF93DF93860F971FFC0102811381809172
:102A2000AA029091AB02892B81F082E090E0FA013A
:102A3000918380838CEF9FEFDF91CF911F910F9156
:102A4000FF90EF90DF90CF900895C801B0E0A0E034
:102A50000197A109B1098F3F9F4FA105B10540F032
:102A600082E090E0FA01918380838EEF9FEFE4CFC4
:102A70007A0183E1809F6001819FD00C1124C601FF
:102A80000E943120EC01009741F482E090E0F701D0
:102A9000918380838DEF9FEFCFCFA60170E060E040
:102AA0000E94A82DD093AB02C093AA021093AD024E
:102AB0000093AC0290E080E02FEF3FEF41E061E057
:102AC00070E08017910741F481E090E0F701918375
:102AD000808390E080E0B0CF3A8B298B1B864C87B7
:102AE0007E876D87188A1F8601966396EACFEF92DC
:102AF000FF921F93CF93DF93EC0110E0F12CE12CB8
:102B00006A811617A8F070E0660F771FAE014F5E5E
:102B10005F4FC7010E949620009721F02FEF3FEFF3
:102B20003A8B298BDF91CF911F91FF90EF90089501
:102B3000612FCE018EDC61E070E00E94E11EE8169C
:102B4000F90608F47C011F5FDBCFF8942091A802FE
:102B50003091A90281E02115310509F080E0232B95
:102B600009F0789408952F923F924F925F926F925E
:102B70007F928F929F92AF92BF92CF92DF92EF920D
:102B8000FF920F931F93CF93DF933C01660E771E46
:102B9000F301828193814C01B12CA12CC091AA0236
:102BA000D091AB02209769F021E030E06091AC0257
:102BB0007091AD028617970710F030E020E0232BCC
:102BC000D1F482E090E0FA01918380838EEF9FEF51
:102BD000DF91CF911F910F91FF90EF90DF90CF90F9
:102BE000BF90AF909F908F907F906F905F904F902D
:102BF0003F902F90089580921B0190921C01A0920B
:102C00001D01B0921E0163E1689F9001699F300D24
:102C10001124C20FD31FF3018181833040F082E081
:102C200090E0FA019183808386EF9FEFD1CF2A0154
:102C30002B813C81232BF1F4288139819F8191FFE5
:102C40002EC0232B09F46FC02091AF029A81422F2E
:102C5000490F5527551FBA0141E050E06138710511
:102C600014F050E040E0452B09F45DC02A87920F34
:102C70009093AF028150823008F481C066DF8823D0
:102C800009F4D8C0F3018181813009F48DC008F4C2
:102C90007BC0823009F4C6C090E080E0ADC0232B39
:102CA00009F441C02091AE029A81E22FE90FFF277B
:102CB000FF1F41E050E0ED3FF10514F050E040E02F
:102CC000452B89F12A87920F9093AE02D3CFA08132
:102CD000B181A20FB31F11966C91060F111D0196C1
:102CE000295F3F4F8417950794F38D859E85089F34
:102CF0001001099F300C189F300C1124C114D1040D
:102D0000D1F48F8184FF17C00E942F1FF5E02F0E92
:102D1000311C21E08215930508F420E0A701435FF0
:102D20005F4F21110EC082E090E0F2019183808319
:102D300087EF9FEF4DCF0E942F1F2FEF221A320AED
:102D4000E8CF88819981E80EF91EF7011483038387
:102D5000FFEFCF1ADF0A7A018A818C151D0409F072
:102D60000CF48CCFE881F981EE0DFF1D428150E01B
:102D700030E020E010E000E090E080E0B3CFF12C04
:102D8000E12CD12CC12CE8CF81E090E09C838B8397
:102D9000F2DA882309F480CF81E090E00E94360EB9
:102DA00080E40E94440E78CF89899A89019661F067
:102DB00083E090E09C838B8382E090E00E94360E5B
:102DC00080E40E943E0E68CF8D819E81209111018A
:102DD0003091120182179307D1F46091150170911F
:102DE0001601AE014F5E5F4F809113019091140167
:102DF0000E94B5210097E1F2789422E030E0F201E0
:102E000031832083892B99F08DEF9FEFE1CE8928C4
:102E10008A288B2869F6892B59F6CE0168DE188A34
:102E20001F86E8CF82E090E09C838B8335CF90E0D3
:102E300080E0CECE82E090E0F2019183808385EF46
:102E40009FEFC6CE8F929F92AF92BF92CF92DF92AA
:102E5000EF92FF920F931F93CF93DF93EA018C01C0
:102E6000060F171FF8018181833098F082E090E00F
:102E70009983888386EF9FEFDF91CF911F910F9108
:102E8000FF90EF90DF90CF90BF90AF909F908F908A
:102E900008958091AA029091AB02892B61F081E0A4
:102EA00090E02091AC023091AD02232B11F490E020
:102EB00080E0892B39F482E090E0998388838EEF5B
:102EC0009FEFDACF42DE882309F4DFC0F801818169
:102ED000813009F495C0E8F0823099F42091AC0279
:102EE0003091AD02E091AA02F091AB0290E080E057
:102EF00041E050E02817390709F0BDC03CDA8111E4
:102F000017C0789481E090E09983888390E080E016
:102F1000B3CF2091AC023091AD02E091AA02F091C2
:102F2000AB0290E080E041E050E02817390741F41F
:102F300081E090E00E94360E80E40E94440EE1CFD2
:102F400063817481672B11F05483438301967396D8
:102F5000ECCFE091AA02F091AB02E00FF11F2381C8
:102F6000348122303105D9F4218932892F3F3F4FF6
:102F7000B1F425813681409111015091120124173D
:102F8000350761F5AF014F5E5F4F6091150170919C
:102F9000160180911301909114010E94B521EFEF69
:102FA000CE1ADE0AEE0AFE0A0D5E1F4F4091AC02F9
:102FB0005091AD0270E060E0C416D506E606F70653
:102FC0003CF5009731F27894892B09F49BCF82E08D
:102FD00090E0998388838DEF9FEF4ECFC114D10489
:102FE000E104F104E1F6232BD1F6CF0180DDE0917D
:102FF000AA02F091AB02E00FF11F108A1786CFCF23
:1030000010E000E090E080E0C12CD12C7601CECF22
:103010000097C9F610E000E0812C912C540183E068
:10302000E82EF12C1AC0E091AA02F091AB02E00F59
:10303000F11F83819481029749F4F482E38282E054
:1030400090E00E94360E80E40E943E0EFFEF8F1A41
:103050009F0AAF0ABF0A0D5E1F4F8091AC0290918C
:10306000AD02B0E0A0E088169906AA06BB06DCF225
:1030700090E080E0A8CF638174816230710511F423
:10308000548343830196739635CF82E090E0998311
:10309000888385EF9FEFF0CE0097B9F48FEFFB01A7
:1030A000808320911B0130911C0143E1429FC001AC
:1030B000439F900D1124E091AA02F091AB02E80F1A
:1030C000F91F8285FB01818308950C94EF0D88E040
:1030D00090E0FA019183808390E080E0089510925F
:1030E000A9021092A802EAEAF2E086E0DF011D924E
:1030F0008A95E9F78AEF93E19093A7028093A6025D
:1031000008958091A6029091A70208952F923F9270
:103110004F925F926F927F928F929F92AF92BF92E7
:10312000CF92DF92EF92FF920F931F93CF93DF9393
:10313000CDB7DEB72F970FB6F894DEBF0FBECDBF69
:10314000F894E091A802F091A9023196F093A902B7
:10315000E093A80278944090AA025090AB024114E8
:10316000510409F40CC2E091AC02F091AD02EF2BD6
:1031700009F405C22D8749875A876B877C87988712
:103180008F831201B12CA12C10E000E08091AC02E1
:103190009091AD02A816B90618F40115110529F190
:1031A000F8948091A8029091A90201979093A902A6
:1031B0008093A8027894C8012F960FB6F894DEBFCA
:1031C0000FBECDBFDF91CF911F910F91FF90EF9078
:1031D000DF90CF90BF90AF909F908F907F906F9037
:1031E0005F904F903F902F9008957101E418F5087B
:1031F000D10117968C91179781FD54C013968D912C
:103200009C911497039709F04DC015968D919C9150
:10321000EF81F8858E179F0709F044C0B50190E053
:1032200080E07ED48A832091AA023091AB023D8354
:103230002C833D85332309F44CC04C815D81452BA3
:1032400009F49AC18091AC029091AD02A816B9061A
:1032500008F092C1C501D9D88823E9F06C817D813D
:103260006E0D7F1D7D836C83DB011F968D919C917C
:10327000892B89F0D12CC12CF12CE12CAC81BD81A2
:1032800012968C9112978E151F0409F094F45096A3
:103290001C921E921F972A81222321F0B50190E0F3
:1032A00080E040D43FEFA31AB30A43E1240E311C5F
:1032B0006DCFAC81BD81ED91FC91EC0DFD1D858143
:1032C000968108D7BFEFEB1AFB0AEDE0CE0ED11CBA
:1032D000D5CFEC81FD81309709F44EC18091AC02CD
:1032E0009091AD02A816B90608F046C1EE0DFF1D7B
:1032F000FF87EE87C50189D88B83882339F1AE8596
:10330000BF851F968D919C915097019621E01D9647
:103310004D915C918417950709F020E02E83198266
:10332000712C10E000E0AE85BF8512968C91781666
:1033300008F45DC0EE85FF858785908901966585D7
:1033400076850E944A2D908B8787A5CFB1E0BE83FA
:10335000E6CF992493946BC084D6F6019683858337
:1033600082C0D601ED90FC90B7E06B9EE00CF11CA2
:103370001124F7016381748180818F3F61F121E025
:1033800030E002C0220F331F8A95E2F7C901092EEF
:10339000000CAA0BBB0BFB01408151816281738140
:1033A00084239523A623B72321E0892B8A2B8B2BFB
:1033B00009F420E0D4012C93D70111968C91F601E9
:1033C00023853485820F932F911D880E991E1486B4
:1033D000138663949BC0418150E0C4010E949F2DDD
:1033E000EBCF998206EF1FEFC5C01982C3C0F981E8
:1033F000F111A0CFEDE07E9E70011124AE85BF8556
:10340000CD90DC90CE0CDF1C13D49D838C83BB81CC
:10341000BB2309F49ECF81E0EE85FF8527853089A7
:10342000232B09F080E0982E882309F458C0672DDB
:103430008E859F850ED8D60118969C938E931797EC
:1034400061E070E0BED4EE85FF85218932892F3F8F
:10345000320709F481CFBC01C901C8D7D60116963D
:103460009C938E931597D60115968D919C911697E6
:10347000009709F4B6CFEC81FD818E0F9F1F1A963D
:103480009C938E931997AE85BF85ED91FC91119712
:10349000EE0EFF1EF70121853285148613861A96DB
:1034A0008C91870DD9018D93711016C0EE85FF8523
:1034B000878184FF11C049855A856B857C85F90118
:1034C0004183528363837483F701838594850496D3
:1034D000A80FB91F14861386F701B287A187D601FA
:1034E00015968D919C911697892B09F443C0EE8512
:1034F000FF85258136818091110190911201281755
:10350000390779F019968D909C90612CD60112960E
:103510008C911297681608F424CF1A969C928E927A
:103520001997BE81BB2309F460CF61E070E0F6011A
:103530008781908546D4D6011796ED90FC90189718
:1035400015964D915C91E1E0F0E0BA81BB2311F05A
:10355000F0E0E0E00C811D819C01B50188279927EE
:103560008E1B9F0B68D38C01892B21F0F60185817E
:103570009681B0D57394D7CE0FEF1FEF8CCE10E0AD
:1035800000E00ECE2F923F924F925F926F927F9209
:103590008F929F92AF92BF92CF92DF92EF92FF9263
:1035A0000F931F93CF93DF938091AA029091AB0268
:1035B00010E000E0892BA9F0C8DA0AEF1FEF88239A
:1035C00081F02090AC023090AD02C091AA02D0915F
:1035D000AB02D12CC12C10E000E02C143D04A9F466
:1035E0007894C801DF91CF911F910F91FF90EF90D8
:1035F000DF90CF90BF90AF909F908F907F906F9013
:103600005F904F903F902F900895C6010E94051241
:10361000882309F18B819C810397E9F48F85988930
:10362000892BC9F0B60190E080E07AD221E030E049
:10363000882311F030E020E044245524421A530A34
:10364000B12CA12C912C812C8A818815190409F0A8
:1036500038F4188A1F864FEFC41AD40A6396BDCF78
:10366000E881F981EA0DFB1D85819681892BA1F105
:1036700061E070E087819085A4D33C01D9D28C01B0
:10368000E881F981EA0DFB1D8185928525813681CE
:10369000200F311FAC01421B530B9A01478150850B
:1036A000421B530B70E060E00E94A82DE881F98175
:1036B000EA0DFB1DE780F084458156819301B60138
:1036C000C201B9D28C01892B39F0E881F981EA0D68
:1036D000FB1D85819681FED45FEF851A950A8DE0EA
:1036E000A80EB11CB1CF31CA789408952F923F92A1
:1036F0004F925F926F927F929F92AF92BF92CF92C2
:10370000DF92EF92FF920F931F93CF93DF9300D03E
:1037100000D000D0CDB7DEB70091AA021091AB0265
:10372000992493940115110509F43EC0A090AC02B0
:10373000B090AD020ADA982E8823B1F11092AB0254
:103740001092AA021092AD021092AC021092AE0238
:103750001092AF028FEF9FEFDC0180931B019093DB
:103760001C01A0931D01B0931E0178947AD31E838F
:103770000D83C12CD12C7601C501B0E0A0E0898376
:103780009A83AB83BC8322242A94322C89819A8128
:10379000AB81BC81C816D906EA06FB06F4F0C80165
:1037A00099D480E40E94440E892D26960FB6F89491
:1037B000DEBF0FBECDBFDF91CF911F910F91FF9064
:1037C000EF90DF90CF90BF90AF909F907F906F90E1
:1037D0005F904F903F902F900895AD81BE811596D8
:1037E0008D919C91169720911101309112018217B1
:1037F0009307D1F451968D919C91E6D5ED81FE8190
:1038000080819181B12CA12C412C512C3201892B2A
:1038100089F5BFEFCB1ADB0AEB0AFB0AED81FE81CB
:103820007396FE83ED83B2CFC114D104E104F10499
:1038300029F7892B19F7ED81FE81818992898F3FC4
:10384000980709F021D5AD81BE8152963C922E9207
:103850005197D4CF8A0D9B1DDC018D919C910097CF
:1038600009F038D4BFEF4B1A5B0A6B0A7B0AEDE014
:10387000AE0EB11CAD81BE818D919C9111971296B7
:103880004C9150E070E060E04416550666067706FD
:103890000CF320D4BECFCF93DF93EA0127DF811151
:1038A00009C082E090E09983888385EF9FEFDF91E4
:1038B000CF91089581E090E00E94360E81E090E083
:1038C0009983888390E080E0F2CF10DF1092A70206
:1038D0001092A602089542E050E06EEB71E00C9465
:1038E000540EFF920F931F93CF93DF938A01EC0145
:1038F000C60FD71FF980B4D20897F816190671F0D1
:1039000068F082E090E0F801918380838EEF9FEF72
:10391000DF91CF911F910F91FF9008956C817D8170
:103920008E819F814B810E94EB10811108C082E043
:1039300090E0F8019183808384EF9FEFE9CFF980D5
:103940000E94E6104F2D50E0BE01685F7F4F0E943D
:103950009F2D89810E94551181E090E0F8019183AB
:10396000808390E080E0D4CFDF92EF92FF920F93BC
:103970001F93CF93DF938A01EC01C60FD71F0E94DC
:10398000E6107C01D9806CD2DD2059F0029721E04D
:1039900030E0D816190619F010F030E020E0232BA3
:1039A00079F482E090E0F801918380838EEF9FEFBD
:1039B000DF91CF911F910F91FF90EF90DF900895CD
:1039C000EF2841F482E090E0F8019183808384EF56
:1039D0009FEFEECFF9800E94E6104F2D50E0BE0120
:1039E0006E5F7F4F0E949F2D89810E94551181E05B
:1039F00090E0F8019183808390E080E0D9CF8BE65E
:103A00009CE19093B1028093B00208958091B0023E
:103A10009091B10208950895FC0111821082938360
:103A200082830895DB011D921C92DC011296ED91B8
:103A3000FC9113977183608313967C936E93129716
:103A40000895FC0180819181DB018D939C93A0817D
:103A5000B181109741F08D919C9191838083892B46
:103A600011F4F383E2830895FC0180819181DB01ED
:103A70008D939C93892B11F473836283718360838C
:103A80000895FC0111821082938382830895CF935D
:103A9000DF9300D0CDB7DEB71A821982F894BE0149
:103AA0006F5F7F4F87EB92E0CCDF89819A8100972F
:103AB00009F010D389819A81892B89F7BE016F5F44
:103AC0007F4F8BEB92E0BDDF89819A81009709F0EF
:103AD00001D389819A81892B89F778940F900F906F
:103AE000DF91CF910895CF93DF9300D0CDB7DEB7AC
:103AF0001A821982F894BE016F5F7F4F83EB92E0C8
:103B0000A0DF89819A81009709F0E4D289819A81A6
:103B1000892B89F778940F900F90DF91CF910895BA
:103B200081E0089590E080E00895EF92FF920F9376
:103B30001F93CF93DF9300D0CDB7DEB71A821982DF
:103B40008091B20207EF1FEF8823A1F1F894BE0124
:103B50006F5F7F4F8BEB92E074DF789489819A815D
:103B6000EE24E394F12C892B51F4F894BE016F5F9D
:103B70007F4F87EB92E065DF7894F12CE12C89810F
:103B80009A810EEF1FEF0097A9F0FC01428153814B
:103B900064E070E06AD68C01892B61F0F894698149
:103BA0007A81C701880F991F880F991F89549D4FEB
:103BB0005BDF7894C8010F900F90DF91CF911F9138
:103BC0000F91FF90EF9008950F931F93CF93DF9382
:103BD00000D000D0CDB7DEB71C821B821A821982BA
:103BE0008091B20207EF1FEF8823C1F0AE014D5F55
:103BF0005F4F64E070E0CE010196AAD68C01892B5C
:103C000069F4E981FA818B819C8193838283F894A2
:103C100069817A8183EB92E005DF7894C8010F9087
:103C20000F900F900F90DF91CF911F910F910895FA
:103C3000AFD7049608958F929F92AF92BF92CF9282
:103C4000DF92EF92FF920F931F93CF93DF9300D0F9
:103C5000CDB7DEB71A821982BC016F5F7F4F633028
:103C6000710598F0AA24AA94BA2CC5010F900F9060
:103C7000DF91CF911F910F91FF90EF90DF90CF9048
:103C8000BF90AF909F908F9008954115510551F3CB
:103C9000480159018A016C01CBDF8815990511F79C
:103CA000E114F104F9F28E0D9F1DA816B906D0F2A9
:103CB0008091B2028823F1F0F894B5016450710943
:103CC0009701AE014F5F5F4FC8010496D6D65C01E5
:103CD000892B71F489819A81F80193838283C601CB
:103CE000880F991F880F991FB80189549D4F9ADE3C
:103CF0007894BBCF87EFA82EBB24BA94B6CFAF92EF
:103D0000BF92CF92DF92EF92FF920F931F93CF93C8
:103D1000DF9300D0CDB7DEB71A821982892B09F064
:103D200047C06115710509F443C04115510509F4F7
:103D30003FC02115310509F43BC001151105C1F142
:103D40008091B2028823B9F179016A015B01F8948C
:103D5000BE016F5F7F4F83EB92E073DE78948981C1
:103D60009A81009759F1DC0112966D917C91A8011E
:103D700004969CD68C01E981FA81D501ED93FC93E0
:103D8000828193810496F6019183808351DFD7016C
:103D90008D939C93C8010F900F90DF91CF911F914D
:103DA0000F91FF90EF90DF90CF90BF90AF9008956C
:103DB0000FEF1FEFEFCF07EF1FEFECCF0EEF1FEF6F
:103DC000E9CFCF93DF93EC01672B71F4EAD68C1720
:103DD0009D0760F0DDD62496C80FD91FDCD68C0F66
:103DE0009D1FDF91CF910895D9D6F1CF90E080E06B
:103DF000F8CF0F931F93CF93DF932091B20221113D
:103E00002BC08B01EC0187EB92E006DE8BEB92E09E
:103E100003DE83EB92E000DE97D00097C1F4C1D6B9
:103E200070E060E0CEDF4FE151E062E070E07ED113
:103E3000009769F480911F0190912001C4D6B801C8
:103E4000CE01F9D4009719F421E02093B202DF915A
:103E5000CF911F910F91089584EF9FEFF8CF9EC6E9
:103E6000A0C6CF93DF93A0D6EC01892B11F40FDE0F
:103E70003ADECE01DF91CF910895CF93DF9394D6B0
:103E8000EC01892B09F403DECE01DF91CF91089577
:103E900080911F01909120010895CF93DF9380912D
:103EA000B202D0E0C0E08823D1F092D6EC01892B99
:103EB000B1F4EDDD18DE80911F0190912001E4D175
:103EC000E5D2EC01892B59F487EB92E0DADD8BEB3C
:103ED00092E0D7DD83EB92E0D4DD1092B202CE0106
:103EE000DF91CF910895EF92FF920F931F93CF939D
:103EF000DF93EC017A018B010F5F1F4F0E9DA00134
:103F00000F9D500D1E9D500D112470E060E00E9429
:103F1000A82D90E080E0F0E0E0E02FEFE816F90651
:103F200039F4DF91CF911F910F91FF90EF90089599
:103F30001A8219822883309711F0D283C1830196A7
:103F4000FE01C00FD11FEACFCF92DF92EF92FF9216
:103F50000F931F93CF93DF930BEA13E00C7F43E0A3
:103F600050E061E271E087E291E012D481E2E82E54
:103F700081E0F82E97E2C92E91E0D92EC2E1D4E07B
:103F8000D7014D915D917D01F601619171916F01B4
:103F9000198308835D834C835B834A837F836E83AD
:103FA0009B012F5F3F4F249FC001259F900D349FA1
:103FB000900D1124998788870115110511F0C8010A
:103FC00092DF88859985080F191F2A96F7E2EF1668
:103FD000F1E0FF06A9F6E1ECF2E087EEDF011D92C9
:103FE0008A95E9F71092C0021092BF021092310434
:103FF000109230041092350410923404109233045D
:104000001092320410923704109236041092390440
:104010001092380410923B0410923A0410923F041C
:1040200010923E0410923D0410923C041092410400
:1040300010924004109243041092420410920F0414
:1040400010920E04109211041092100490E080E07F
:10405000DF91CF911F910F91FF90EF90DF90CF9064
:1040600008950097F1F0F894A7E2B1E0E2E1F4E0FE
:1040700030E020E04D915D9148175907A8F042814A
:1040800053814115510581F08AE0829FF001839FA1
:10409000F00D1124EE5EFB4F80819181009759F461
:1040A000789490E080E008952F5F3F4F3A96233058
:1040B000310501F7F5CFDC0111966D917C9171838B
:1040C00060834150510953834283FC012193CF0106
:1040D00078940895009749F1DC018E91853041F480
:1040E000E0911004F09111043097F9F0CD0109949A
:1040F0008530D8F4282F30E0F8948FEF8C938AE045
:10410000829FF001839FF00D1124EE5EFB4F8081B2
:10411000918112969C938E931197B183A083828193
:10412000938101969383828378940895CF92DF924E
:10413000EF92FF920F931F93CF93DF939C0184EC38
:1041400092E08C7F4115510509F49BC02115310582
:1041500009F497C06115710509F493C07A01AB01A8
:10416000B9016D5F7F4F6C7F9B012F5F3F4F249F95
:104170008001259F100D349F100D1124F89420917B
:10418000300430913104232B59F4209138043091BC
:1041900039042115310569F12017310708F058C09D
:1041A00020913A0430913B04232B91F42091380460
:1041B00030913904820F931F2091420430914304BF
:1041C0002115310509F441C02017310708F056C008
:1041D0007894CFEFDFEF86EF9FEFF701D183C083B5
:1041E000DF91CF911F910F91FF90EF90DF90CF90D3
:1041F0000895C3E0D0E0C090BF02D090C00224EE8A
:1042000030E02C193D092017310710F32AE02C9FCC
:10421000F0012D9FF00D1124EE5EFB4F9183808302
:104220005583448353834283778366831187008752
:10423000009709F058DE0C0D1D1D1093C00200936D
:10424000BF02789490E080E0C8CFC4E0D0E0D3CF44
:10425000C3E0D0E02AE02C9FF0012D9FF00D112447
:10426000EE5EFB4F91838083558344835383428367
:1042700077836683009729F336DEE3CFC4E0D0E08E
:10428000E9CF8FEF9FEFACCF9C010397029708F027
:1042900069C0F89484E09AE0482F50E0241735076D
:1042A0000CF44DC091E08AE0829FF001839FF00DF5
:1042B0001124EE5EFB4F118210821582148213824C
:1042C0001282178216829923B1F180913004909165
:1042D0003104892BA9F42091380430913904211537
:1042E000310571F08091BF029091C002821B930B47
:1042F0009093C0028093BF02109239041092380448
:1043000080913A0490913B04892BA9F420914204B6
:10431000309143042115310571F08091BF029091D5
:10432000C002821B930B9093C0028093BF02109235
:10433000430410924204789490E080E00895949FA2
:10434000F001959FF00D1124EE5EFB4F40815181ED
:10435000452B31F440855185452B11F481509CCF7C
:1043600090E0A1CF8FEF9FEF08954115510549F1DE
:10437000009739F16115710521F1F89420910E042F
:1043800030910F04232BB9F42091100430911104C3
:10439000232B89F490930F0480930E0470931104DF
:1043A00060931004789425E030E090E080E0FA011A
:1043B00031832083089578942FEF3FEF86EF9FEFAE
:1043C000F6CF8FEF9FEF0895059769F4F894109258
:1043D0000F0410920E04109211041092100478949D
:1043E00090E080E008958FEF9FEF089561157105CB
:1043F00019F4F0E0E0E011C08530910581F4E0911E
:104400000E04F0910F043097A1F3CB0101960995AA
:10441000009779F3FC0185E08193CF0108959C0119
:10442000235031092230310520F72AE0289FD0019E
:10443000299FB00D1124AE5EBB4F2D913C91119779
:10444000232BB9F216962D913C9117972617370713
:1044500080F2F89412962D913C9113972115310515
:1044600029F0ED91FC911197309711F47894C1CF18
:104470004181528111965C934E93215031091396DC
:104480003C932E93129781937894C7CFE8EAF3E098
:1044900086E6DF011D928A95E9F7E1ECF2E087EE0E
:1044A000DF011D928A95E9F71092C0021092BF02B7
:1044B000E2E1F4E082E3DF011D928A95E9F7EEE0A4
:1044C000F4E084E0DF011D928A95E9F790E080E056
:1044D0000895CF93DF93C0912D01D0912E01CF3F4E
:1044E000DC0759F407D490932E0180932D0197FF98
:1044F00009C0D0932E01C0932D0184EF9FEFDF916F
:10450000CF91089590E080E0FACF8230910528F4B1
:104510008093440490E080E008958FEF9FEF08952A
:104520004F925F926F927F92AF92BF92CF92DF9243
:10453000EF92FF920F931F93CF93DF9300D0CDB7ED
:10454000DEB71A821982009709F478C061157105E7
:1045500009F474C020912D0130912E0107EF1FEF57
:104560002F3F3F4F09F444C06B015C01412C512C9B
:104570003201F12CE12C10E000E09E012F5F3F4F53
:10458000A6014E195F09B5016E0D7F1D80912D01A9
:1045900090912E010ED4892B09F04AC089819A810D
:1045A000009741F4E114F10429F4209144042223FA
:1045B00009F441C0E80EF91EEC14FD04C8F480E8CB
:1045C000481684E858068EE16806710418F560E024
:1045D00070E0CB0149D72AE0420E511C611C711CCE
:1045E0000A3F4FEF140721F0043F8FEF1807A1F4A3
:1045F000C8010F900F90DF91CF911F910F91FF9005
:10460000EF90DF90CF90BF90AF907F906F905F90D2
:104610004F90089501EF1FEF81E090E0013F2FEFF1
:10462000120711F090E080E0892B09F4A6CFE0CFCB
:1046300004EF1FEFDDCF0AEF1FEFDACF0FEF1FEF11
:10464000D7CF4F925F926F927F92AF92BF92CF92ED
:10465000DF92EF92FF920F931F93CF93DF9300D0DF
:10466000CDB7DEB71A821982009709F478C06115B8
:10467000710509F474C020912D0130912E0107EFCE
:104680001FEF2F3F3F4F09F444C06B015C01412CE9
:10469000512C3201F12CE12C10E000E09E012F5F43
:1046A0003F4FA6014E195F09B5016E0D7F1D809128
:1046B0002D0190912E0133D3892B09F04AC08981B5
:1046C0009A81009741F4E114F10429F42091440403
:1046D000222309F441C0E80EF91EEC14FD04C8F4CD
:1046E00080E4481682E458068FE06806710418F5E5
:1046F00060E070E0CB01B8D62AE0420E511C611C8C
:10470000711C0E3F4FEF140721F0043F8FEF180785
:10471000A1F4C8010F900F90DF91CF911F910F91DD
:10472000FF90EF90DF90CF90BF90AF907F906F9011
:104730005F904F90089502EF1FEF81E090E0023FFD
:104740002FEF120711F090E080E0892B09F4A6CF3B
:10475000E0CF04EF1FEFDDCF0EEF1FEFDACF0FEF4B
:104760001FEFD7CF80912D0190912E018F3F980799
:1047700049F0B8D2892B49F48FEF9FEF90932E0127
:1047800080932D0190E080E0089584EF9FEF0895DD
:10479000CF92DF92EF92FF920F931F93CF93DF930D
:1047A00021E04115510509F020E041505109211146
:1047B0002CC0DC01FB01D12CC12C21E022C03FEF39
:1047C000C31AD30A7D010D911D91E701EA80FB8098
:1047D000E016F106A8F420813181E280F380F182B5
:1047E000E08233832283ED90FC9011979D0122504B
:1047F0003109E901F982E88211961C930E9320E0B9
:104800003296C416D506D8F2D2CFDF91CF911F9140
:104810000F91FF90EF90DF90CF900895FC01680F0B
:10482000791F90E080E0E617F70709F408952191D9
:10483000820F911DF8CF20914504211113C049DE4C
:10484000009791F410924B0410924A04109249047C
:1048500010924804109247041092460421E02093DD
:104860004504089584EF9FEF0895AF92BF92CF92D1
:10487000DF92EF92FF920F931F93CF93DF930097F6
:1048800009F460C04630510508F45CC0209145042D
:10489000C7EFDFEF222309F449C08C01060F171F71
:1048A000F801C080D180C114D10409F44EC0960132
:1048B0002A5F3F4F4217530708F447C07C0180919D
:1048C0004A0490914B0493838283B6016C5F7F4FBF
:1048D0005801A60EB71EC801A1DFF50191838083A0
:1048E00064E070E0C8011CDEEC01892BF9F481E082
:1048F00090E00BDEB601C801049612DEEC01892BB4
:1049000091F462E070E0C5010BDEEC01892B59F4F3
:10491000C701E0DB80914A0490914B04019690938B
:104920004B0480934A0490E080E0EFDDCE01DF91FC
:10493000CF911F910F91FF90EF90DF90CF90BF909C
:10494000AF900895CFEFDFEFF1CFC9EFDFEFEECFFC
:104950006F927F928F929F92AF92BF92CF92DF928F
:10496000EF92FF920F931F93CF93DF9300D000D06D
:10497000CDB7DEB7009709F47AC04115510509F4A7
:1049800076C02091450407EF1FEF222309F44DC0A4
:104990003A017B015C0164E070E0CE01019651DEDA
:1049A0008C01892B09F041C009811A81011511057B
:1049B00009F45AC0480186E0880E911CB701680DC1
:1049C000791D80912F019091300110DD6C010097CD
:1049D00009F450C0A70170E060E00E94A82D898111
:1049E0009A81AB81BC81EC0CFD1CF7018193919302
:1049F000A193B1937F0181E090E087DDB801C70109
:104A000020DE892B31F562E070E0C701800F911F35
:104A100018DE8C01892BE9F490E080E076DDF50169
:104A2000D182C082F30191828082C8010F900F90E1
:104A30000F900F90DF91CF911F910F91FF90EF900A
:104A4000DF90CF90BF90AF909F908F907F906F90AE
:104A5000089590E080E059DDF50111821082F301A4
:104A600011821082C60136DB09EF1FEFDECF0FEF98
:104A70001FEFDBCF06EF1FEFD8CF0097A1F0411556
:104A8000510589F02115310571F0F90136966E173F
:104A90007F0748F0DC012D933C93DA01ED93FC9302
:104AA00090E080E008958FEF9FEF0895AF92BF925E
:104AB000CF92DF92EF92FF920F931F93CF93DF93EA
:104AC000009709F45FC04115510509F45BC06530DA
:104AD000710508F457C020914504C7EFDFEF22238A
:104AE00091F1DC01CD90DC9011971296ED91FC9143
:104AF00096012A5F3F4FC9EFDFEF2617370719F5F9
:104B0000C0914604D0914704209749F521E030E058
:104B100030934704209346047A018C01F0934904B2
:104B2000E09348045601B4E0AB0EB11CB50176DE4B
:104B30000A0D1B1DF801208131818217930729F589
:104B4000D701CD92DC92CE01DF91CF911F910F91D1
:104B5000FF90EF90DF90CF90BF90AF90089520919D
:104B60004804309149042F5F3F4FCCEFDFEFE2174D
:104B7000F30790F2CBEFDFEF2E173F0768F2D0E09C
:104B8000C0E0CACFCFEFDFEFDECFC3EFDFEFDBCF89
:104B900084E090E0089582E090E008958CEF9FEF2C
:104BA000089580E290E0089510924B0410924A0418
:104BB000109249041092480410924704109246043F
:104BC00090E080E008959093300180932F01089544
:104BD00080914504882391F0C5DD009789F41092F7
:104BE0004B0410924A041092490410924804109207
:104BF00047041092460410924504089590E080E026
:104C00000895009749F06115710531F0FC0111829A
:104C10001082FB01118210820895F3CF26E030E06C
:104C200040E855E260E070E090E080E000C0892B51
:104C300019F489E594E00DC608951F920F920FB6FE
:104C40000F9211242F933F934F935F936F937F9312
:104C50008F939F93AF93BF93EF93FF938FE89DEF55
:104C60009093850080938400B7D0FF91EF91BF911E
:104C7000AF919F918F917F916F915F914F913F91F4
:104C80002F910F900FBE0F901F9018958FE89DEFFA
:104C90009093850080938400AFE6B0E08C918E7F86
:104CA0008C93E0E8F0E080818C7F8083E1E8F0E0A5
:104CB0008081877E808380818460808380818C7FF7
:104CC00080838C9181608C930895EFE6F0E0808181
:104CD00090819E7F90838170089581E00895109265
:104CE0004C04089568EE73E080E090E0BDD390E05E
:104CF00080E0089526E030E040E050E16EE070E0B2
:104D000090E080E094DF89E594E0D9D4892B21F00C
:104D100089E594E0EED4F7CF90E080E00895CF925B
:104D2000DF92EF92FF920F931F93CF93DF936B016C
:104D30007A01E9011982188289E594E0C0D4892BAF
:104D400069F18601CC24C39482E0D82E80914C0472
:104D5000811110C089E594E0CCD40297B9F7C092D4
:104D60004C04F801D1928F01888199810196998331
:104D70008883ECCF888199818E159F0578F489E529
:104D800094E0B7D48F3F9807A9F3F80181938F017E
:104D900088819981019699838883ECCF90E080E0A7
:104DA000DF91CF911F910F91FF90EF90DF90CF9007
:104DB00008950F931F93CF93DF93EA01890189E54B
:104DC00094E02BD6F801D183C08390E080E0DF919E
:104DD000CF911F910F910895CF92DF92EF92FF92A2
:104DE00080914D0491E0980F90934D04882369F0D1
:104DF00021E030E030934F0420934E0480934D0423
:104E0000FF90EF90DF90CF9008957894E0914A0161
:104E1000F0914B01C28CD38CE48CF58C0E94AE06D1
:104E2000B701A60190E080E00E948C03F894809185
:104E30004D048150E3CF0F931F93CF93DF931092D4
:104E400023051092220546D3E9DEC0914A01D09194
:104E50004B01198218826FEF7FEFCB010E940F0484
:104E600070E060E090E080E00E949002009709F01E
:104E70003AC00E943B07F8947894BE016E5D7F4F64
:104E80008A819B810E949302892B59F46FEF7FEFF7
:104E9000CB010E9422030E940904882311F081E0C3
:104EA0008EA3F894F3DE0E940C04882311F080E0B6
:104EB00008C00E9409048111FACF81E09EA19111DE
:104EC000F6CF8093220578940E94310E8C0178945D
:104ED0008091220581110CC00E94B6070E94EE034A
:104EE000F89490E080E0DF91CF911F910F910895A9
:104EF0000E94EC030E940C048823D9F081E0809387
:104F000023059091230581E0911180E08093220593
:104F1000809123058111D9DE0130110529F40E9409
:104F2000310E892B09F4DBDE0E94310E8C01D5DEB7
:104F3000CFCF0E9409048111E1CF81E09EA19111A0
:104F4000DECF80E0DCCF5058BB27AA270ED00DC1A2
:104F5000FED030F003D120F031F49F3F11F41EF465
:104F6000F3C00EF4E095E7FBE9C0E92F0FD180F321
:104F7000BA17620773078407950718F071F49EF556
:104F800027C10EF4E0950B2EBA2FA02D0B01B9010D
:104F900090010C01CA01A0011124FF27591B99F0AF
:104FA000593F50F4503E68F11A16F040A22F232FBB
:104FB000342F4427585FF3CF469537952795A7950B
:104FC000F0405395C9F77EF41F16BA0B620B730BB2
:104FD000840BBAF09150A1F0FF0FBB1F661F771F23
:104FE000881FC2F70EC0BA0F621F731F841F48F4D8
:104FF000879577956795B795F7959E3F08F0B3CF5E
:105000009395880F08F09927EE0F97958795089547
:1050100071D008F481E0089504D06894B111D9C02A
:105020000895BCD088F09F5790F0B92F9927B751B9
:10503000A0F0D1F0660F771F881F991F1AF0BA955C
:10504000C9F712C0B13081F0C3D0B1E00895C0C03B
:10505000672F782F8827B85F39F0B93FCCF3869552
:1050600077956795B395D9F73EF4909580957095AF
:1050700061957F4F8F4F9F4F0895E89409C097FB2C
:105080003EF490958095709561957F4F8F4F9F4F1F
:105090009923A9F0F92F96E9BB279395F695879563
:1050A00077956795B795F111F8CFFAF4BB0F11F426
:1050B00060FF1BC06F5F7F4F8F4F9F4F16C08823CD
:1050C00011F096E911C0772321F09EE8872F762F03
:1050D00005C0662371F096E8862F70E060E02AF044
:1050E0009A95660F771F881FDAF7880F9695879530
:1050F00097F90895990F0008550FAA0BE0E8FEEF05
:1051000016161706E807F907C0F012161306E4078B
:10511000F50798F0621B730B840B950B39F40A2684
:1051200061F0232B242B252B21F408950A2609F462
:10513000A140A6958FEF811D811D089597F99F6766
:1051400080E870E060E008959FEF80EC089500240F
:105150000A941616170618060906089500240A94DC
:1051600012161306140605060895092E0394000C62
:1051700011F4882352F0BB0F40F4BF2B11F460FFF1
:1051800004C06F5F7F4F8F4F9F4F089557FD90581A
:10519000440F551F59F05F3F71F04795880F97FBFB
:1051A000991F61F09F3F79F08795089512161306B5
:1051B0001406551FF2CF4695F1DF08C016161706E4
:1051C0001806991FF1CF8695710561050894089519
:1051D000E894BB2766277727CB0197F908958ADFE4
:1051E00008F48FEF08950BD0C0CFB1DF28F0B6DF01
:1051F00018F0952309F0A2CFA7CF1124EACFC6DF7C
:10520000A0F3959FD1F3950F50E0551F629FF001D9
:10521000729FBB27F00DB11D639FAA27F00DB11D32
:10522000AA1F649F6627B00DA11D661F829F2227BB
:10523000B00DA11D621F739FB00DA11D621F839F42
:10524000A00D611D221F749F3327A00D611D231F18
:10525000849F600D211D822F762F6A2F11249F5766
:1052600050408AF0E1F088234AF0EE0FFF1FBB1F89
:10527000661F771F881F91505040A9F79E3F510528
:1052800070F05CCFA6CF5F3FECF3983EDCF38695E1
:1052900077956795B795F795E7959F5FC1F7FE2BD3
:1052A000880F911D9695879597F9089508958230F6
:1052B000E8F4E82FF0E0EE0FFF1FEF5CFE4F718384
:1052C0006083813041F0809169008C7F482B40934E
:1052D0006900E89A089580916900837F440F551F03
:1052E000440F551F482B40936900E99A08951F9277
:1052F0000F920FB60F9211242F933F934F935F930A
:105300006F937F938F939F93AF93BF93EF93FF938D
:10531000E0913101F09132010995FF91EF91BF9138
:10532000AF919F918F917F916F915F914F913F913D
:105330002F910F900FBE0F901F9018951F920F92F4
:105340000FB60F9211242F933F934F935F936F9358
:105350007F938F939F93AF93BF93EF93FF93E091CE
:105360003301F09134010995FF91EF91BF91AF9115
:105370009F918F917F916F915F914F913F912F916D
:105380000F900FBE0F901F9018951F920F920FB69F
:105390000F9211242F933F938F939F93AF93BF93BB
:1053A0008091510490915204A0915304B0915404FF
:1053B0003091500423E0230F2D3758F50196A11D9D
:1053C000B11D209350048093510490935204A093F4
:1053D0005304B09354048091550490915604A091C5
:1053E0005704B09158040196A11DB11D8093550436
:1053F00090935604A0935704B0935804BF91AF9173
:105400009F918F913F912F910F900FBE0F901F9002
:10541000189526E8230F0296A11DB11DD2CF3FB7E4
:10542000F8948091550490915604A0915704B0913E
:10543000580426B5A89B05C02F3F19F00196A11D61
:10544000B11D3FBFBA2FA92F982F8827BC01CD01CE
:10545000620F711D811D911D42E0660F771F881F2D
:10546000991F4A95D1F708958F929F92AF92BF925C
:10547000CF92DF92EF92FF926B017C01D0DF4B0164
:105480005C01C114D104E104F104D9F0F3D2C7DF07
:10549000681979098A099B09683E7340810591055D
:1054A00080F321E0C21AD108E108F10888EE880EE5
:1054B00083E0981EA11CB11CC114D104E104F104C5
:1054C00031F7FF90EF90DF90CF90BF90AF909F901B
:1054D0008F900895789484B5826084BD84B581608E
:1054E00084BD85B5826085BD85B5816085BDEEE6EC
:1054F000F0E0808181608083E1E8F0E010828081CB
:1055000082608083808181608083E0E8F0E0808138
:1055100081608083E1EBF0E0808184608083E0EB58
:10552000F0E0808181608083EAE7F0E08081846040
:10553000808380818260808380818160808380819C
:10554000806880831092C1000895833081F028F430
:10555000813099F08230A9F008958730A9F0883021
:10556000C9F08430B1F4809180008F7D03C08091B8
:1055700080008F7780938000089584B58F7784BDF5
:10558000089584B58F7DFBCF8091B0008F77809395
:10559000B00008958091B0008F7DF9CFCF93DF9355
:1055A00090E0FC01E458FF4F249180579F4FFC018D
:1055B00084918823C9F090E0880F991FFC01E8547A
:1055C000FF4FA591B491FC01E255FF4FC591D491D5
:1055D00061110DC09FB7F8948C91209582238C9314
:1055E0008881282328839FBFDF91CF91089562305F
:1055F00051F49FB7F8943C91822F809583238C932C
:10560000E8812E2BEFCF8FB7F894EC912E2B2C93B3
:105610008FBFEACF1F93CF93DF93282F30E0F9019C
:10562000E859FF4F8491F901E458FF4FD491F901F3
:10563000E057FF4FC491CC23A1F0162F811185DFD5
:10564000EC2FF0E0EE0FFF1FE255FF4FA591B49154
:105650008FB7F894EC91111108C0D095DE23DC933C
:105660008FBFDF91CF911F910895DE2BF8CFCF939D
:10567000DF93282F30E0F901E859FF4F8491F901B9
:10568000E458FF4FD491F901E057FF4FC491CC2368
:1056900099F081115ADFEC2FF0E0EE0FFF1FEC556F
:1056A000FF4FA591B491EC91ED2381E090E009F4D6
:1056B00080E0DF91CF91089580E090E0FACFFC0187
:1056C000918D228D892F90E0805C9F4F821B9109E4
:1056D0008F7399270895FC01918D828D981731F071
:1056E000828DE80FF11D858D90E008958FEF9FEF7B
:1056F0000895FC01918D828D981761F0A28DAE0FF7
:10570000BF2FB11D5D968C91928D9F5F9F73928F7D
:1057100090E008958FEF9FEF0895FC01538D448D25
:10572000252F30E0842F90E0821B930B541710F04C
:10573000CF96089501970895FC01A48DA80FB92F65
:10574000B11DA35ABF4F2C91848D90E001968F73A9
:105750009927848FA689B7892C93A089B1898C91C8
:10576000837080648C93938D848D981306C0028817
:10577000F389E02D80818F7D80830895CF93DF931F
:10578000EC01888D8823B1F0AA89BB89E889F98961
:105790008C9185FD03C0808186FD0CC00FB607FC8F
:1057A000F7CF8C9185FFF2CF808185FFEDCFCE01C1
:1057B000C3DFEACFDF91CF910895EF92FF920F936D
:1057C0001F93CF93DF93EC0181E0888F9B8D8C8DAD
:1057D00098131AC0E889F989808185FF15C09FB7A1
:1057E000F894EE89FF896083E889F9898081837064
:1057F000806480839FBF81E090E0DF91CF911F9113
:105800000F91FF90EF900895F62E0B8D10E00F5F33
:105810001F4F0F731127E02E8C8D8E110BC00FB60A
:1058200007FCFACFE889F989808185FFF5CFCE01A1
:1058300083DFF2CFEB8DEC0FFD2FF11DE35AFF4F0D
:10584000F0829FB7F8940B8FEA89FB898081806290
:10585000D0CFCF92DF92EF92FF921F93CF93DF933F
:10586000EC016A017B01122FE889F98982E08083CB
:10587000C11481EED806E104F10499F060E079E00A
:105880008DE390E0A701960119D12150310941091A
:1058900051095695479537952795211580E1380789
:1058A00090F0E889F989108260E874E88EE190E070
:1058B000A701960103D1215031094109510956959B
:1058C000479537952795EC85FD853083EE85FF85D7
:1058D0002083188EEC89FD891083EA89FB898081F9
:1058E00080618083EA89FB89808188608083EA897E
:1058F000FB89808180688083EA89FB8980818F7D34
:105900008083DF91CF911F91FF90EF90DF90CF9038
:1059100008951F920F920FB60F9211242F938F9319
:105920009F93EF93FF93E0916904F0916A04808163
:10593000E0916F04F091700482FD1BC09081809112
:1059400072048F5F8F7320917304821741F0E0918E
:105950007204F0E0E75AFB4F958F80937204FF9139
:10596000EF919F918F912F910F900FBE0F901F90ED
:1059700018958081F4CF1F920F920FB60F921124C9
:105980002F933F934F935F936F937F938F939F9347
:10599000AF93BF93EF93FF9389E594E0CDDEFF9142
:1059A000EF91BF91AF919F918F917F916F915F9197
:1059B0004F913F912F910F900FBE0F901F90189510
:1059C000E9E5F4E01382128288EE93E0A0E0B0E013
:1059D00084839583A683B7838EEC91E09183808343
:1059E00085EC90E09587848784EC90E097878687A4
:1059F00080EC90E0918B808B81EC90E0938B828B9C
:105A000082EC90E0958B848B86EC90E0978B868B74
:105A1000118E128E138E148E0895AF92BF92CF9274
:105A2000DF92EF92FF920F931F93CF93DF936C015E
:105A30007B018B01040F151FEB015E01AE18BF083F
:105A4000C017D10759F06991D601ED91FC910190F1
:105A5000F081E02DC6010995892B79F7C501DF9109
:105A6000CF911F910F91FF90EF90DF90CF90BF905B
:105A7000AF9008950895DB018F939F9347D0BF9116
:105A8000AF91A29F800D911DA39F900DB29F900D8D
:105A900011240895AA1BBB1B51E107C0AA1FBB1FFD
:105AA000A617B70710F0A61BB70B881F991F5A95AA
:105AB000A9F780959095BC01CD010895A1E21A2E19
:105AC000AA1BBB1BFD010DC0AA1FBB1FEE1FFF1FA2
:105AD000A217B307E407F50720F0A21BB30BE40BF2
