:1000000061C000000C948E320C94B53283C00000A5
:1000100081C000007FC000007DC000007BC00000E8
:1000200079C0000077C0000075C0000073C00000F8
:1000300071C000000C94282D6DC000006BC0000042
:100040000C94DC3267C000000C94A0350C94D235BF
:1000500061C000005FC000005DC000005BC0000028
:1000600059C0000057C00000000000080002010055
:100070000003040700000000000000000102040863
:100080001020408001020408102001020408102002
:10009000040404040404040402020202020203032E
:1000A00003030303000000002300260029000000D2
:1000B0000000250028002B0000000000240027007D
:1000C0002A00F73511241FBECFEFD8E0DEBFCDBF29
:1000D00012E0A0E0B1E0E2E7FDE602C005900D927B
:1000E000AC38B107D9F727E0ACE8B2E001C01D9207
:1000F000AF31B207E1F710E0C2E6D0E004C02197CB
:10010000FE010E948836C136D107C9F70E94162F1A
:100110000C94B73675CFCF93DF93EC0170E060E0BD
:100120006C177D070CF5072E000C880B990B0E94AD
:10013000B53020E030E0A9010E949F2F20E030E0A0
:10014000A9010E949F2F20E030E040E450E40E948B
:100150009F2F20E030E040E450E40E949E2F0E9458
:1001600082306F5F7F4FDCCFDF91CF910895CF93C7
:10017000DF9380919C0290919D020E944E34EC018D
:100180008091A2029091A302C6DF80919E0290917D
:100190009F020E944E34019771F48091A0029091C9
:1001A000A102219771F401969093A1028093A0027D
:1001B000DF91CF9108958091A0029091A102CD2B63
:1001C00091F30197F1CFCF93DF93809194029091B7
:1001D00095020E944E34EC0180919A0290919B020C
:1001E0009ADF80919602909197020E944E34019777
:1001F00071F48091980290919902219771F401967F
:100200009093990280939802DF91CF910895809105
:10021000980290919902CD2B91F30197F1CFCF9352
:10022000DF9380918C0290918D020E944E34EC01FC
:1002300080919202909193026EDF80918E02909154
:100240008F020E944E34019771F480919002909138
:100250009102219771F401969093910280939002FC
:10026000DF91CF9108958091900290919102CD2BD2
:1002700091F30197F1CFCF93DF9380919602909104
:1002800097020E944E34EC0180919A0290919B0259
:1002900042DF80919402909195020E944E34019722
:1002A00071F48091980290919902CD2B71F401968E
:1002B0009093990280939802DF91CF910895809155
:1002C000980290919902219791F30197F1CFCF93E2
:1002D000DF9380918E0290918F020E944E34EC0148
:1002E000809192029091930216DF80918C029091FE
:1002F0008D020E944E34019771F48091900290918A
:100300009102CD2B71F4019690939102809390020B
:10031000DF91CF9108958091900290919102219761
:1003200091F30197F1CFCF93DF9380919E0290914B
:100330009F020E944E34EC018091A2029091A30290
:10034000EADE80919C0290919D020E944E340197BA
:1003500071F48091A0029091A102CD2B71F40196CD
:100360009093A1028093A002DF91CF910895809194
:10037000A0029091A102219791F30197F1CF0F93E1
:100380001F93CF93DF938C01EC0183E0CC0FDD1F33
:100390008A95E1F7C457DD4F798368835B834A838D
:1003A0008881998160E00E94E5338A819B8160E0C9
:1003B0000E94E5338881998161E00E9421348A811D
:1003C0009B8161E00E94213401301105D9F1023096
:1003D000110509F466C0012B09F092C080918C02CE
:1003E00090918D0202978431910530F58B519E4F8B
:1003F000FC018081082E000C990B41E050E067E67B
:1004000071E00E946E3280918E0290918F0202976D
:1004100084319105A0F48B519E4FFC018081082E00
:10042000000C990B41E050E06FE071E0DF91CF915B
:100430001F910F910C946E328FEF9FEFDECF8FEFF5
:100440009FEFF0CF809194029091950202978431B2
:10045000910508F58B519E4FFC018081082E000C00
:10046000990B41E050E06BE371E00E946E328091A5
:1004700096029091970202978431910578F48B51FE
:100480009E4FFC018081082E000C990B41E050E04A
:1004900063EE70E0CBCF8FEF9FEFE3CF8FEF9FEF57
:1004A000F5CF80919C0290919D0202978431910535
:1004B00008F58B519E4FFC018081082E000C990B92
:1004C00041E050E063E971E00E946E3280919E024B
:1004D00090919F0202978431910578F48B519E4F41
:1004E000FC018081082E000C990B41E050E067EB85
:1004F00070E09CCF8FEF9FEFE3CF8FEF9FEFF5CFB3
:10050000DF91CF911F910F91089523E0880F991FDC
:100510002A95E1F7FC01E457FD4F84819581089508
:1005200090E080E008950F931F93009709F48DC029
:100530006115710509F489C00091B8011091B901E4
:100540002091BA013091BB010E3F1F4F2F4F3F4FFB
:1005500009F06CC04FEF5FEFBA014093B8015093C0
:10056000B9016093BA017093BB014091B8015091F9
:10057000B9016091BA017091BB01DC011296ED9155
:10058000FC9180819181A281B3818093300390930B
:100590003103A0933203B093330384819581A68104
:1005A000B78180932C0390932D03A0932E03B093D7
:1005B0002F0380859185A285B3858093280390932E
:1005C0002903A0932A03B0932B0384859585A685E0
:1005D000B7858093240390932503A0932603B093BB
:1005E00027031092200310922103109222031092ED
:1005F00023030E9448118DE691E19093A502809318
:10060000A4029093A7028093A6029093A9028093DC
:10061000A8020E943710009731F421E030E03093B7
:100620003503209334031F910F9108950091B80171
:100630001091B9012091BA013091BB01DB010D93FA
:100640001D932D933C93139790CF8FEF9FEFEBCF9C
:100650008F929F92AF92BF92CF92DF92EF92FF92D2
:100660001F93CF93DF934B015C011091370382E01E
:1006700090E0909335038093340381149104A10496
:10068000B10441F480913703811104C08091360395
:10069000C1E08111C0E0C12CD12C760180913703DB
:1006A000811106C080913603811102C0CC23D9F09C
:1006B00083E090E09093350380933403CC2381F161
:1006C000CCE9DFEF111102C00E94D114CE01DF91FD
:1006D000CF911F91FF90EF90DF90CF90BF90AF90A0
:1006E0009F908F9008956AE070E080E090E00E9413
:1006F0004B3380E1C80E87E2D81EE11CF11C8FEF5E
:1007000088169806A806B80631F0C1E08C149D043E
:10071000AE04BF0408F0C0E080E00E946B10BECFC2
:10072000D0E0C0E0CFCFCF92DF92EF92FF920F9355
:100730001F93CF93DF938F3F910511F008F051C0C5
:1007400020913403309135032330310539F0209165
:100750003403309135032130310531F424E030E0A9
:1007600030933503209334036A017B01EC0183301D
:100770009105A8F011E0AE01C701B6010E94361044
:10078000AB01BC01CE011123F9F0DF91CF911F9194
:100790000F91FF90EF90DF90CF900C94FA168C01A0
:1007A000000F111F0C551D4FD8018D919C91892B65
:1007B00009F30E9404170297E9F6D801ED91FC9124
:1007C000CE010995182FD7CF0E941C1790E080E02A
:1007D000DF91CF911F910F91FF90EF90DF90CF901D
:1007E00008958FEF9FEFF4CF80E00C946B10CF93C0
:1007F000DF9386E090E090933503809334030E946A
:10080000C410EC01E4EAF2E086E0DF011D928A9573
:10081000E9F70E9469141092350310923403CE0157
:10082000DF91CF91089580913603089580911F0341
:1008300008956093B8017093B9018093BA019093C1
:10084000BB0190E080E0089521E03091FB0231117E
:1008500020E0FC01218321E03091FC02311120E0F5
:10086000FC01228308954F925F926F927F928F9244
:100870009F92AF92BF92CF92DF92EF92FF92CF936F
:10088000DF9300D000D0CDB7DEB74B015C0169012A
:100890007A010E94340F8823E9F08090110790902C
:1008A0001207A0901307B0901407C501B4010F9070
:1008B0000F900F900F90DF91CF91FF90EF90DF900E
:1008C000CF90BF90AF909F908F907F906F905F90F0
:1008D0004F900895C701B6010E94340F8111DDCFFA
:1008E000C501B4010E94EF0E8111D7CFC701B60137
:1008F0000E94EF0E8111D9CF20E030E0A901C7019D
:10090000B6010E94163087FF4CC0C701B6010E9495
:1009100003302B013C01A3019201C701B6010E94E3
:100920001630882309F44CC0A7019601C501B40113
:100930000E941A302B013C01E89477F820E030E067
:1009400040E05FE3C301B2010E949F2F0E94F0309C
:100950009B01AC01C301B2010E949E2F9B01AC011F
:100960005F7729833A834B835C8320E030E040E06B
:1009700054E3C301B2010E940A329B01AC016981B8
:100980007A818B819C810E9406321816CCF020E07F
:1009900030E0A901C501B4010E940A324B015C019B
:1009A00084CFC701B6010E94F0302B013C0120E04A
:1009B00030E0A901C701B6010E9416308111ABCF0A
:1009C000A7019601C501B4010F900F900F900F90F1
:1009D000DF91CF91FF90EF90DF90CF90BF90AF90DD
:1009E0009F908F907F906F905F904F900C940A3102
:1009F0004F925F926F927F928F929F92AF92BF922F
:100A0000CF92DF92EF92FF929091FB028091FC02D5
:100A1000911105C021E0811120E02093FD029F5F2C
:100A20009A3008F076C09093FB028F5F843608F00E
:100A300073C08093FC02C090DE02D090DF02E09091
:100A4000E002F090E1028FEFC81AD80AE80AF80A2B
:100A5000C092DE02D092DF02E092E002F092E10268
:100A6000C114D104E104F10499F48091E20290915F
:100A7000E302A091E402B091E5020196A11DB11D2F
:100A80008093E2029093E302A093E402B093E50224
:100A90008090E6029090E702A090E802B090E90210
:100AA0006091E2027091E3028091E4029091E5028C
:100AB0000E94B330A50194010E940A3220E030E088
:100AC00040E85FE40E940A322B013C01C701B601F5
:100AD0000E94B330A50194010E940A329B01AC012F
:100AE000C301B2010E949F2F6093DA027093DB0270
:100AF0008093DC029093DD02FF90EF90DF90CF9027
:100B0000BF90AF909F908F907F906F905F904F902D
:100B100008951092FB0289CF1092FC028CCF3F9275
:100B20004F925F926F927F928F929F92AF92BF92FD
:100B3000CF92DF92EF92FF920F931F93CF93DF93A9
:100B4000CDB7DEB72E970FB6F894DEBF0FBECDBF80
:100B50008091FD02882381F08091E1069091E20668
:100B6000A091E306B091E40680938D0690938E06E3
:100B7000A0938F06B0939006209191063091920633
:100B8000409193065091940660912001709121014B
:100B900080912201909123010E940A324B015C0155
:100BA000C0901801D0901901E0901A01F0901B013B
:100BB000AC019B01C701B6010E941630181674F4EF
:100BC000C701B6010E94340F811108C0809018013E
:100BD00090901901A0901A01B0901B013090FD0275
:100BE000332081F08091E5069091E606A091E7061A
:100BF000B091E8068093990690939A06A0939B067D
:100C0000B0939C06809103078823C9F14090990610
:100C100050909A0660909B0670909C064092D90670
:100C20005092DA066092DB067092DC06C09070018A
:100C3000D0907101E0907201F0907301A7019601CC
:100C4000C301B2010E94063218164CF4C092D906B4
:100C5000D092DA06E092DB06F092DC0610C0C0907B
:100C60007401D0907501E0907601F0907701A701B2
:100C70009601C301B2010E94163087FDE7CF20E044
:100C800030E0A90160916401709165018091660175
:100C9000909167010E941630811104C08091010774
:100CA0008823C9F14090990650909A0660909B065F
:100CB00070909C064092D9065092DA066092DB064C
:100CC0007092DC06C0907001D0907101E0907201CA
:100CD000F0907301A7019601C301B2010E94063290
:100CE00018164CF4C092D906D092DA06E092DB06D0
:100CF000F092DC0610C0C0907401D0907501E090B5
:100D00007601F0907701A7019601C301B2010E941C
:100D1000163087FDE7CF332081F08091E90690916E
:100D2000EA06A091EB06B091EC0680939D069093A5
:100D30009E06A0939F06B093A0067090D906C0901F
:100D4000DA06D090DB06E090DC0600917801109185
:100D5000790180917A018D8390917B01998398012B
:100D6000AC01672D7C2D8D2D9E2D0E94063218160C
:100D7000C4F000917C0110917D01A0917E01AD83B2
:100D8000B0917F01B9839801AD01672D7C2D8D2D28
:100D90009E2D0E94163087FD04C0072D1C2DDD827C
:100DA000E98220E030E0A901C501B4010E941630BB
:100DB00020E030E0A901811104C020E030E040E8EB
:100DC00055E2C501B4010E949F2F9B01AC0160E078
:100DD00070E080E89FE30E941A304B015C019801AB
:100DE0004D81598160919D0670919E0680919F066C
:100DF0009091A0060E949E2FA50194010E940A32A4
:100E00006D837E838F83988720911001309111012B
:100E100040911201509113010E940A324B015C0172
:100E2000409008015090090160900A0170900B01F8
:100E3000AC019B01C301B2010E94163087FF8EC036
:100E40004092A1065092A2066092A3067092A40658
:100E5000332081F08091ED069091EE06A091EF068F
:100E6000B091F0068093A5069093A606A093A706DE
:100E7000B093A8062091A9063091AA064091AB062E
:100E80005091AC066091240170912501809126015A
:100E9000909127010E940A326B017C0180901C0115
:100EA00090901D01A0901E01B0901F01AC019B010C
:100EB000C501B4010E94163018166CF4C501B401C6
:100EC000D3D7811108C0C0901C01D0901D01E090C3
:100ED0001E01F0901F018091FD028987882381F017
:100EE0008091F1069091F206A091F306B091F4067C
:100EF0008093B1069093B206A093B306B093B40664
:100F000080910407882309F453C08090B106909023
:100F1000B206A090B306B090B4068092DD0690921F
:100F2000DE06A092DF06B092E00640909401509059
:100F300095016090960170909701A3019201C501FF
:100F4000B4010E94063218161CF54092DD0650923C
:100F5000DE066092DF067092E0062AC04090000133
:100F6000509001016090020170900301A50194016D
:100F7000C301B2010E94063218160CF461CF8092B0
:100F8000A1069092A206A092A306B092A40660CFFA
:100F9000409098015090990160909A0170909B0147
:100FA000A3019201C501B4010E94163087FDCDCF87
:100FB0008091880190918901A0918A01B0918B0163
:100FC00089839A83AB83BC8320E030E0A901BC0114
:100FD000CD010E941630811104C080910207882340
:100FE000C9F18090B1069090B206A090B306B0907F
:100FF000B4068092DD069092DE06A092DF06B092E3
:10100000E006409094015090950160909601709098
:101010009701A3019201C501B4010E94063218167E
:101020004CF44092DD065092DE066092DF0670922C
:10103000E00610C0409098015090990160909A018C
:1010400070909B01A3019201C501B4010E9416306A
:1010500087FDE7CF9985992381F08091F5069091DE
:10106000F606A091F706B091F8068093B506909326
:10107000B606A093B706B093B806A091DD06AD877B
:10108000B091DE06BE871091DF060091E0068090E9
:101090009C0190909D01A0909E01B0909F019401B1
:1010A000A501BD01812F902F0E9406321816B4F0C1
:1010B0008090A0019090A101A090A201B090A30106
:1010C0009401A5016D857E85812F902F0E94163099
:1010D00087FD04C08D849E84A12EB02E20E030E0D8
:1010E000A901C701B6010E94163020E030E0A90135
:1010F000811104C020E030E040E855E2C701B601AC
:101100000E949F2F9B01AC0160E070E080E89FE3AC
:101110000E941A306B017C019401A5016091B50613
:101120007091B6068091B7069091B8060E949E2FE6
:10113000A70196010E940A3269877A878B879C876C
:101140002091140130911501409116015091170121
:101150000E940A326B017C0180900C0190900D017D
:10116000A0900E01B0900F01AC019B01C501B4012C
:101170000E94163087FF54C08092B9069092BA063A
:10118000A092BB06B092BC0610920307C090640107
:10119000D0906501E0906601F090670120E030E0BA
:1011A000A901C701B6010E941630811163C02091C8
:1011B0006C0130916D0140916E0150916F016D8114
:1011C0007E818F8198850E940A322091D9063091C4
:1011D000DA064091DB065091DC060E949F2F4B01FE
:1011E0005C018092D9069092DA06A092DB06B0925A
:1011F000DC06409070015090710160907201709017
:101200007301A30192010E94063218161CF5409248
:10121000D9065092DA066092DB067092DC062AC08C
:101220008090040190900501A0900601B090070104
:10123000A7019601C501B4010E94063218160CF4EC
:101240009BCFC092B906D092BA06E092BB06F0924C
:10125000BC069ACF40907401509075016090760161
:1012600070907701A3019201C501B4010E9416306C
:1012700087FDCDCF20E030E0A901C701B6010E9473
:101280000632181624F481E08093010716C020E08E
:1012900030E0A901C701B6010E94163087FF02C0E5
:1012A0008FEFF2CF20E030E0A901C701B6010E9424
:1012B0001630811144C0109201071092040720E0FB
:1012C00030E0A90169817A818B819C810E9416306E
:1012D000811147C02091900130919101409192017C
:1012E0005091930169857A858B859C850E940A328D
:1012F0002D853E85412F502F0E949F2F6B017C0131
:10130000C092DD06D092DE06E092DF06F092E006A3
:101310008090940190909501A0909601B0909701D3
:10132000A50194010E94063218165CF48092DD0635
:101330009092DE06A092DF06B092E00612C082E034
:10134000A3CF8090980190909901A0909A01B090BD
:101350009B01A5019401C701B6010E94163087FDCB
:10136000E5CF20E030E0A90169817A818B819C8101
:101370000E940632181624F481E0809302071AC0F6
:1013800020E030E0A90169817A818B819C810E94F3
:10139000163087FF02C08FEFF0CF20E030E0A901C8
:1013A00069817A818B819C810E941630811144C0B1
:1013B000109202078091EA029091EB02A091EC0258
:1013C000B091ED020196A11DB11D8093EA029093A8
:1013D000EB02A093EC02B093ED02892B8A2B8B2BAE
:1013E00099F48091EE029091EF02A091F002B091F9
:1013F000F1020196A11DB11D8093EE029093EF02C0
:10140000A093F002B093F1022E960FB6F894DEBFCF
:101410000FBECDBFDF91CF911F910F91FF90EF9045
:10142000DF90CF90BF90AF909F908F907F906F9004
:101430005F904F903F90089582E09FCF4F925F92D0
:101440006F927F928F929F92AF92BF92CF92DF92D4
:10145000EF92FF92C0902C01D0902D01E0902E01D0
:10146000F0902F01A70196016091D5067091D606E4
:101470008091D7069091D8060E9416308823B1F04B
:10148000C701B601ACD4882309F46EC180902C0149
:1014900090902D01A0902E01B0902F018092D50642
:1014A0009092D606A092D706B092D80681E090E03E
:1014B0002CD87C016091B0017091B1018091B20192
:1014C0009091B3010E94B53020E030E040E85CE24A
:1014D0000E940A324B015C01B701FF0C880B990B8B
:1014E0000E94B5309B01AC01C501B4010E940A32D3
:1014F0004B015C01AC019B016091A8017091A901B5
:101500008091AA019091AB010E94163087FF39C1EA
:10151000C0904801D0904901E0904A01F0904B0101
:1015200020914C0130914D0140914E0150914F015D
:10153000C501B4010E949F2FA701960194D99B0178
:10154000AC016091500170915101809152019091D4
:1015500053010E949F2F6093BD067093BE06809337
:10156000BF069093C006C0902801D0902901E0905A
:101570002A01F0902B01A70196016091CB06709192
:10158000CC068091CD069091CE060E94163088231D
:10159000B1F0C701B60123D4882309F414C14090E7
:1015A00028015090290160902A0170902B014092EF
:1015B000CB065092CC066092CD067092CE0690E09B
:1015C00080E00E9485027C016091B4017091B501B8
:1015D0008091B6019091B7010E94B53020E030E0D3
:1015E00040E05CE20E940A322B013C01B701FF0C93
:1015F000880B990B0E94B5309B01AC01C301B2016D
:101600000E940A326B017C01AC019B016091AC012C
:101610007091AD018091AE019091AF010E941630A2
:1016200087FFDEC040903001509031016090320160
:101630007090330120913401309135014091360191
:1016400050913701C701B6010E949F2FA30192015B
:101650000AD99B01AC0160913801709139018091E8
:101660003A0190913B010E949F2F6093C1067093B5
:10167000C2068093C3069093C4068092F1069092AE
:10168000F206A092F306B092F4068092F5069092CC
:10169000F606A092F706B092F806C092E506D09240
:1016A000E606E092E706F092E806C092E906D092DC
:1016B000EA06E092EB06F092EC068091BD0690916E
:1016C000BE06A091BF06B091C0068093ED06909330
:1016D000EE06A093EF06B093F0068091C1069091BC
:1016E000C206A091C306B091C4068093E106909310
:1016F000E206A093E306B093E4068091F202909193
:10170000F302A091F402B091F5020196A11DB11D62
:101710008093F2029093F302A093F402B093F50247
:10172000892B8A2B8B2B99F48091F6029091F702EA
:10173000A091F802B091F9020196A11DB11D80930C
:10174000F6029093F702A093F802B093F902FF908B
:10175000EF90DF90CF90BF90AF909F908F907F9051
:101760006F905F904F90089560912C0170912D01C2
:1017700080912E0190912F0177D3882309F486CE92
:101780008DCEC0905401D0905501E0905601F0905C
:101790005701209158013091590140915A015091BF
:1017A0005B01C501B4010E949F2FA70196015BD880
:1017B0009B01AC0160915C0170915D0180915E01C3
:1017C00090915F01C6CE60912801709129018091AE
:1017D0002A0190912B0148D3882309F4E0CEE7CE6B
:1017E00040903C0150903D0160903E0170903F015F
:1017F00020914001309141014091420150914301BB
:10180000C701B6010E949F2FA30192012CD89B0112
:10181000AC01609144017091450180914601909125
:10182000470121CF8F929F92AF92BF92CF92DF92CA
:10183000EF92FF9284E090E09BD280911507909107
:101840001607A0911707B091180780930001909395
:101850000101A0930201B0930301809304019093CE
:101860000501A0930601B093070140910D07509127
:101870000E0760910F077091100740930801509375
:10188000090160930A0170930B0140930C0150937E
:101890000D0160930E0170930F01409370015093FE
:1018A000710160937201709373018093740190933E
:1018B0007501A0937601B09377014093780150931E
:1018C000790160937A0170937B0180937C019093FE
:1018D0007D01A0937E01B0937F01409394015093CA
:1018E000950160939601709397018093980190936E
:1018F0009901A0939A01B0939B0140939C0150934E
:101900009D0160939E0170939F018093A00190932D
:10191000A101A093A201B093A301E4ECF2E08FE354
:10192000DF011D928A95E9F780E090E0A0E8BFEB27
:101930008093FE029093FF02A0930003B0930103F3
:101940008FE692E1A3E8BAE38093E6029093E70280
:10195000A093E802B093E9028BE890E6A2E4B7EA2C
:101960008093C8029093C902A093CA02B093CB029D
:1019700083EE9EE1A1E6B4E58093CC029093CD0284
:10198000A093CE02B093CF0285EA98E4A6EDB9E821
:101990008093D0029093D102A093D202B093D3024D
:1019A0008EE791E1ADE9B7E48093D4029093D5023C
:1019B000A093D602B093D70288EB92E09093C7022F
:1019C0008093C6028AEA92E09093B9028093B802AB
:1019D00089EF91E09093AB028093AA029093AD02BD
:1019E0008093AC029093AF028093AE029093B102C9
:1019F0008093B0029093B3028093B2029093B502A9
:101A00008093B4029093B7028093B60288ED92E07F
:101A10009093BD028093BC0288EC92E09093BB024D
:101A20008093BA028AED92E09093BF028093BE0247
:101A3000E5E9F6E080E3DF011D928A95E9F7E5EC40
:101A4000F6E080E4DF011D928A95E9F7809160015C
:101A500090916101A0916201B091630180938D0624
:101A600090938E06A0938F06B09390068AE097ED30
:101A7000A3E2BCE38093910690939206A093930611
:101A8000B0939406409168015091690160916A0198
:101A900070916B014093990650939A0660939B0650
:101AA00070939C0640918001509181016091820168
:101AB0007091830140939D0650939E0660939F060C
:101AC0007093A00640918401509185016091860138
:101AD000709187014093A5065093A6066093A706D0
:101AE0007093A8068093A9069093AA06A093AB06CC
:101AF000B093AC0680918C0190918D01A0918E01E4
:101B0000B0918F018093B1069093B206A093B30673
:101B1000B093B4068091A4019091A501A091A60173
:101B2000B091A7018093B5069093B606A093B7062F
:101B3000B093B80660912C0170912D0180912E0117
:101B400090912F014CD1882309F4CBC0C0902C0177
:101B5000D0902D01E0902E01F0902F01C092D5067B
:101B6000D092D606E092D706F092D80681E090E0B7
:101B7000A0E0B0E08093D0069093D106A093D20667
:101B8000B093D30644E050E062E070E00E94BF01F1
:101B900081E08093D4061092C5066091280170916F
:101BA000290180912A0190912B0119D1882309F4F0
:101BB000A5C08090280190902901A0902A01B090A2
:101BC0002B018092CB069092CC06A092CD06B092CB
:101BD000CE0681E090E0A0E0B0E08093C60690934E
:101BE000C706A093C806B093C90645E050E063E07D
:101BF00070E090E080E00E94BF0181E08093CA061F
:101C000040916001509161016091620170916301A6
:101C10004093E1065093E2066093E3067093E40676
:101C2000409168015091690160916A0170916B0166
:101C30004093E5065093E6066093E7067093E80646
:101C40001092010780930307409180015091810118
:101C500060918201709183014093E9065093EA06F6
:101C60006093EB067093EC064091840150918501DE
:101C700060918601709187014093ED065093EE06C6
:101C80006093EF067093F00640918C0150918D01A6
:101C900060918E0170918F014093F1065093F2068E
:101CA0006093F3067093F406109202078093040782
:101CB0008091A4019091A501A091A601B091A701E6
:101CC0008093F5069093F606A093F706B093F80676
:101CD000FF90EF90DF90CF90BF90AF909F908F904C
:101CE000089560912C0170912D0180912E019091A9
:101CF0002F01BAD0882309F429CF30CF6091280171
:101D00007091290180912A0190912B01ADD08823F7
:101D100009F44FCF56CF8091CF06811103C081E0E7
:101D20008093CF068091C506811103C081E0809326
:101D3000C506089560E070E080E89FE7089560E0E0
:101D400070E080E89FE7089560E070E080E89FEF32
:101D5000089560E070E080E89FEF089560E070E033
:101D600080EC9FEF089560E070E080EC9FEF0895B5
:101D7000F5DF609311077093120780931307909318
:101D80001407F1DF60930507709306078093070738
:101D900090930807CFDF60930D0770930E07809331
:101DA0000F0790931007CBDF6093090770930A0722
:101DB00080930B0790930C07C7DF60931507709310
:101DC00016078093170790931807C3DF60931907CE
:101DD00070931A0780931B0790931C070895CF9266
:101DE000DF92EF92FF92CF936B017C01AC019B01DC
:101DF00060910D0770910E0780910F079091100769
:101E00000E941630C1E0882371F0A701960160910D
:101E100015077091160780911707909118070E9477
:101E200016308111C0E08C2FCF91FF90EF90DF90A2
:101E3000CF9008950F931F938B019C0100271127CA
:101E400020783F770115110520483F4749F4AB0141
:101E5000BC016F77772781E0452B462B472B09F490
:101E600080E01F910F910895E5CF4F925F926F929E
:101E70007F928F929F92AF92BF92CF92DF92EF921A
:101E8000FF920F931F93F89440900F03509010030C
:101E90006090110370901203C0900303D09004036C
:101EA000E0900503F0900603452B09F0A4C09B01C8
:101EB000AC01241935094609570929013A01009155
:101EC0000B0310910C0320910D0330910E03480178
:101ED0005901840C951CA61CB71C80169106A206FD
:101EE000B306A0F4009107031091080320910903A1
:101EF00030910A030F5F1F4F2F4F3F4F009307038F
:101F0000109308032093090330930A0380920B0374
:101F100090920C03A0920D03B0920E030091070360
:101F2000109108032091090330910A038092130352
:101F300090921403A0921503B09216030093170316
:101F4000109318032093190330931A0360930F031F
:101F5000709310038093110390931203A8EEB3E0E3
:101F6000A30192010E948E366C0D7D1D8E1D9F1D5A
:101F70006093030370930403809305039093060317
:101F80000091B8011091B9012091BA013091BB01C3
:101F90000F3F1F4F2F4F3F4FF1F00091B8011091AD
:101FA000B9012091BA013091BB010E3F1F4F2F4F55
:101FB0003F4F89F0C090B801D090B901E090BA01CC
:101FC000F090BB0121E08C149D04AE04BF0408F422
:101FD00020E020931F0378941F910F91FF90EF90C2
:101FE000DF90CF90BF90AF909F908F907F906F9039
:101FF0005F904F9008954B015C0184189508A608E6
:10200000B708A3019201261B370B480B590B641527
:10201000750586059705D0F082169306A406B506C9
:1020200040F420E030E0A90181149104A104B1043E
:1020300091F4A8EEB3E00E948E36A7019601261B0C
:10204000370B480B590BCA01B901C5CF821693064D
:10205000A406B50670F7A8EEB3E0A50194010E94AE
:102060008E366C0D7D1D8E1D9F1DB5CFFECECF9380
:10207000DF9300D000D0CDB7DEB71C821B821A825E
:10208000198210921B0310921C0310921D031092D0
:102090001E03BE016F5F7F4FCE0103960E940B2D82
:1020A00069817A818B819C810E942E26009761F440
:1020B000BE016F5F7F4FCE0103960E94172D69818D
:1020C0007A818B819C812CD50F900F900F900F906F
:1020D000DF91CF910895FF920F931F93CF93DF93DA
:1020E000082F60E070E0CB010E944B33FF24F39493
:1020F0000E941925EC01892B89F010E0CE3F8FEF6B
:10210000D80769F0002361F160E070E0CB010E9424
:102110004B3381E090E0892B59F322C011E023D5A5
:10212000EC01892B21F0CE3F8FEFD80759F7111121
:102130001EC011E0229609F410E00E94CA24EC01AE
:10214000892B21F0CE3F8FEFD807E1F6111111C096
:1021500011E0CE3F8FEFD80709F410E001110BC05A
:10216000CE01DF91CF911F910F91FF90089511E063
:10217000E4CF11E0F3CF60E070E0CB010E944B337D
:102180001F25812F90E0C7CFCF93DF9380911F034E
:10219000882321F060E070E0CB014CD635D6D0E04A
:1021A000C0E0892B71F06AE070E080E090E00E946E
:1021B0004B3381E090DF28D62196C03D27E0D2073F
:1021C00081F727D60E948226109237031092360399
:1021D00010923003109231031092320310923303A5
:1021E00010922C0310922D0310922E0310922F03A5
:1021F000109228031092290310922A0310922B03A5
:1022000010922403109225031092260310922703A4
:1022100010922003109221031092220310922303A4
:102220004EEF5FEF6FEF7FEF4093B8015093B9012E
:102230006093BA017093BB0110921F03E3E1F3E0D6
:1022400028E0DF011D922A95E9F710920F03109202
:102250001003109211031092120310920B031092AC
:102260000C0310920D0310920E03109207031092AC
:1022700008031092090310920A03109203031092AC
:1022800004031092050310920603DF91CF91089585
:102290001092430310924403109245031092460398
:1022A0001092420380914B0390914C039093410311
:1022B0008093400310923F0310923E0310923A0322
:1022C00010923B0310923C0310923D03109248037E
:1022D0001092470390E080E00895CF92DF92EF9252
:1022E000FF920F931F93CF938C01892B09F055C058
:1022F00020914B0330914C03809140039091410316
:1023000040914B0350914C03509341034093400341
:102310002817390781F010923F0310923E03109264
:102320003A0310923B0310923C0310923D0310922B
:1023300048031092470380914B0390914C030197FF
:1023400061F58091470390914803892B21F4809196
:10235000BC01811112C080914703909148030197FD
:10236000E1F480913A0390913B03A0913C03B0913A
:102370003D030197A105B10581F410923A03109233
:102380003B0310923C0310923D031092BC0182E08B
:1023900090E0909348038093470380914B03909182
:1023A0004C03019709F01CC1809161039091620375
:1023B0008017910709F014C180915D0390915E032D
:1023C000A0915F03B0916003009709F409C12091C7
:1023D0005C0321110DC040915D0350915E0360913B
:1023E0005F0370916003452B462B472B09F4F8C01F
:1023F00020914703309148032230310509F0F0C0A5
:1024000020913E032111ECC0FC01C080D180E2800C
:10241000F38080914203882309F4D3C080914E0356
:1024200090914F03892B09F4FDC020914E03309108
:102430004F0381E02230310509F080E020914E0306
:1024400030914F03C1E02130310549F020914E0316
:1024500030914F03C1E02230310509F0C0E08823FC
:1024600009F456C0209158033091590340915A0302
:1024700050915B03C701B6010E94063287FD14C06C
:10248000209158033091590340915A0350915B03B6
:1024900060914303709144038091450390914603FA
:1024A0000E94163087FD22C02091580330915903B5
:1024B00040915A0350915B03C701B6010E94063256
:1024C000181634F5209158033091590340915A035E
:1024D00050915B03609143037091440380914503E5
:1024E000909146030E941630811112C080915003D2
:1024F00090915103A0915203B0915303892B8A2BE1
:102500008B2B19F481E080933F0381E080933E039D
:10251000CC2309F456C020915803309159034091BF
:102520005A0350915B03C701B6010E94163087FF22
:1025300014C0209158033091590340915A0350918F
:102540005B03609143037091440380914503909134
:1025500046030E94063287FF22C020915803309123
:10256000590340915A0350915B03C701B6010E9481
:102570001630811126C020915803309159034091A3
:102580005A0350915B03609143037091440380911F
:102590004503909146030E940632181694F48091E8
:1025A000500390915103A0915203B0915303892B92
:1025B0008A2B8B2B19F481E080933F0381E0809379
:1025C0003E0381E090913E03911180E080934203AD
:1025D000C0924303D0924403E0924503F092460335
:1025E000012B09F067C18091470390914803892B23
:1025F000D9F410924D0310923E038091BC018823C0
:1026000079F082E090E09093480380934703109222
:10261000BC0120914B0330914C0381E0232BE9F066
:1026200080E01BC081E00ACF1092BC0180914D0375
:10263000882349F010923F031092480310924703F9
:1026400010924D03EDCF80914B0390914C03892B59
:10265000E1F080913E0310923E03209147033091B8
:1026600048032230310509F45EC088F42115310594
:1026700009F448C02130310509F4F3C010923F033A
:1026800010923E0310924D0338C081E0E6CF233014
:10269000310509F4B1C02430310581F740913A0386
:1026A00050913B0360913C0370913D0341155105EE
:1026B0006105710561F0415051096109710940934B
:1026C0003A0350933B0360933C0370933D03409166
:1026D0003A0350913B0360913C0370913D03452BBD
:1026E000462B472BD9F42091490330914A032130DE
:1026F000310509F046C010923F0310924803109232
:1027000047030CC08091BC01882341F082E090E037
:1027100090934803809347031092BC0110923803B2
:1027200080913F03CEC08823C9F3809150039091DC
:102730005103A0915203B0915303181619061A06BB
:102740001B060CF07DC080914B0390914C030197C8
:1027500009F076C08091500390915103A0915203EB
:10276000B091530380933A0390933B03A0933C03AF
:10277000B0933D0383E090E0909348038093470338
:10278000CDCF409154035091550360915603709101
:102790005703452B462B472BA9F010923F038091FE
:1027A000540390915503A0915603B0915703809321
:1027B0003A0390933B03A0933C03B0933D0381E025
:1027C00090E0DACF882399F08091BD019091BE010D
:1027D000A091BF01B091C00180933A0390933B0355
:1027E000A0933C03B0933D0384E090E0C5CF1092EA
:1027F0003F0382E090E0C0CF80913A0390913B0389
:10280000A0913C03B0913D030097A105B10559F09B
:102810000197A109B10980933A0390933B03A093D8
:102820003C03B0933D0380913A0390913B03A09108
:102830003C03B0913D03892B8A2B8B2B09F06ECF83
:102840008091BD019091BE01A091BF01B091C001E6
:10285000892B8A2B8B2B09F44ECF81E080933F0389
:10286000B3CF40913A0350913B0360913C03709188
:102870003D03411551056105710561F04150510954
:102880006109710940933A0350933B0360933C0301
:1028900070933D0340913A0350913B0360913C0398
:1028A00070913D03452B462B472B09F037CF811103
:1028B000C7CF9FCF80913803882309F431CF80910F
:1028C0003903CF911F910F91FF90EF90DF90CF9040
:1028D00008951092430310924403109245031092FE
:1028E000460310924203109248031092470310923D
:1028F0004103109240031092620310926103109200
:102900003F0310923E0310923A0310923B03109241
:102910003C0310923D031092390310923803109239
:102920005D0310925E0310925F0310926003109299
:102930005C03109258031092590310925A0310929C
:102940005B0388EE93E0A0E0B0E08093BD0190933C
:10295000BE01A093BF01B093C00110925403109226
:102960005503109256031092570310925003109281
:102970005103109252031092530310924F0310927E
:102980004E0381E08093BC0110924D0310924C03E2
:1029900010924B0310924A031092490390E080E09A
:1029A000089580914B0390914C03892B19F58091E8
:1029B000BC01882351F080914D03811106C081E054
:1029C0008093390380933803089520914D0330910B
:1029D000BC0181E090E0332311F090E080E030E032
:1029E00082239323892B21F01092390381E0EACFCF
:1029F00010923803089582E090E0FA019183808379
:102A00008FEF9FEF0895CF93DF93EA01009711F0C6
:102A10000E949C271982188290E080E0DF91CF917C
:102A20000895DB01009719F48FEF8C9308952EEF32
:102A30002C930F968F30910508F033C0FC01ED5DAB
:102A4000FA4E0C9488364F154D154B154915471500
:102A50004315451541153F153D153A1536153215E7
:102A60003815511580E311968C93089589E2FBCFB8
:102A700082E2F9CF11961C92089583E2F4CF81E2AD
:102A8000F2CF81E1F0CF87E2EECF8AE2ECCF80E1B6
:102A9000EACF84E2E8CF88E2E6CF86E2E4CF81E3C2
:102AA000E2CF80E2E0CF80916F03909170030895B0
:102AB0009093700380936F03089580916E0308953F
:102AC00090916E03892B80936E030895982F9095B3
:102AD00080916E03892380936E03089580916D0326
:102AE000089580916B0390916C03089561157105B1
:102AF00059F0FB0130E020E070E060E0241735077A
:102B000019F06115710511F0CB010895A081B18113
:102B1000A817B90709F4BF012F5F3F4F3696EECFD4
:102B20008091710381111CC062D268D290936403BA
:102B3000809363030E94A21F0E94B41F90936803B6
:102B4000809367030E9434240E943B249093660381
:102B50008093650381E08093710390E080E00895A5
:102B600084EF9FEF08958F929F92AF92BF92CF9282
:102B7000DF92EF92FF920F931F93CF93DF93CDB726
:102B8000DEB72A970FB6F894DEBF0FBECDBF1A8608
:102B9000198618861F821E821D821C821B821A8241
:102BA00019828091710307EF1FEF882309F49CC0FD
:102BB0008E010D5F1F4F9E012B5F3F4FAE01495F9E
:102BC0005F4FBE01675F7F4F90E080E00E94B425B9
:102BD0008C01009721F00596029708F0DBC029854B
:102BE0003A852115310509F402C1ED80FE804B8143
:102BF0005C81B701640F751F8F81988586179707D1
:102C000008F4F5C0E20EF31ED7019C91903C09F048
:102C10007FC04230510508F47BC011968C914091E1
:102C20006F0350917003452B09F49CC0913F08F04D
:102C300071C02CE1290F2D3008F48BC02DE2290F33
:102C4000203108F489C0903C21F48150823008F48E
:102C500083C088E3890F8B3008F481C091E1C92ECD
:102C600095E1D92EEBEFF4E16D817E81AE014F5FEE
:102C70005F4F89859A8509955C01C114D104A1F142
:102C800089809A808114910479F18B819C818815C7
:102C9000990508F487C010E000E04B815C8170E08A
:102CA00060E0C7010E94B03601151105E9F44981C1
:102CB0005A8169857A858D819E81680F791FC5014A
:102CC000F6010995E980FA800D811E812F813885F2
:102CD00049855A856FEF7FEF81E090E00E94502593
:102CE0008C01892B09F056C0C8012A960FB6F894BA
:102CF000DEBF0FBECDBFDF91CF911F910F91FF902F
:102D0000EF90DF90CF90BF90AF909F908F900895FD
:102D100080E085CF30E020E0220F331FF901ED592C
:102D2000FC4F0190F081E02D309709F497CF892F67
:102D300090E00995009709F491CFDC011296ED918E
:102D4000FC9113971496CD90DC90309709F08CCFBE
:102D50001FC021E030E0E0CF22E030E0DDCF23E013
:102D600030E0DACFD12CC12CE3E0F5E19F3F09F050
:102D70007BCFE0916303F0916403309721F4C901A4
:102D800004EF1FEF0CC08FEF90E009950097A9F6B4
:102D900004EF1FEF89859A85009709F4A5CF0E945B
:102DA0009C27A2CF0E947D268C0189859A850E944E
:102DB0009C2770E060E0C4010E94162698878F83EC
:102DC0000E944D259E838D836F81788561157105E5
:102DD00059F0C8010E94FB289A87898706EF1FEFE8
:102DE000892B09F058CF59CF08EF1FEF56CF08EFC6
:102DF0001FEFD0CF20917103222319F020E00C9413
:102E0000B91F87EF9FEF089580916F039091700332
:102E100008950E9440240E949A23F5D0E3E6F3E04F
:102E200088E0DF011D928A95E9F71092710390E026
:102E300080E008950C94F62121E040E050E0BA01D2
:102E40000C94B91F86E090E0FA019183808390E0B2
:102E500080E0089547E050E06CEF71E047CEDF92EC
:102E6000EF92FF920F931F93CF93DF938A01EC01B0
:102E7000C60FD71FE0907503F0907603D9800E94AB
:102E80006526D816190678F082E090E0F801918363
:102E900080838EEF9FEFDF91CF911F910F91FF9075
:102EA000EF90DF900895EF2841F482E090E0F80180
:102EB0009183808384EF9FEFEECF898180937403A9
:102EC00090E00196F8019183808390E080E0E3CF69
:102ED000CF93DF93EA010E94A722882321F00E946A
:102EE00072260E94A82282E090E0998388838BEF6B
:102EF0009FEFDF91CF910895CF93DF93EB0186E0B1
:102F0000FB0111928A95E9F78FEF8883D6DD8983DB
:102F1000E5DD8A83E6DD9D838C83DF91CF91089583
:102F2000CF93DF93EA010E94AA22811109C082E0B7
:102F300090E09983888385EF9FEFDF91CF9108958B
:102F400090E080E0B5DD81E090E09983888390E0B7
:102F500080E0F3CF0F931F93CF93DF93EA018C01AF
:102F6000060F171F0E94AA2281110BC082E090E079
:102F70009983888385EF9FEFDF91CF911F910F9108
:102F80000895F8018181823038F082E090E09983E1
:102F900088838EEF9FEFF0CF81E090E089DD88E0BD
:102FA00090E09983888390E080E0E6CFCF93DF9331
:102FB0000097D1F4EB01FB01329686E0DF011D9210
:102FC0008A95E9F78FEF888385E089831A820E94CA
:102FD00065268B830E9464269D838C8381E08E838B
:102FE0008F83DF91CF910895DF91CF911ACD8AE23F
:102FF00097E1909373038093720308958091720315
:1030000090917303089510927303109272030895C0
:1030100080917503909176030895411105C0611563
:1030200071058105910561F06093750370937603D6
:1030300080937703909378034093790381E0089518
:1030400080E00895FF920F931F93CF93DF938A013F
:10305000EC01C60FD71FF9800E946526F8161906E5
:1030600068F082E090E0F801918380838EEF9FEF1B
:10307000DF91CF911F910F91FF9008956C817D8119
:103080008E819F814B81C9DF811108C082E090E071
:10309000F8019183808384EF9FEFEACF8981809349
:1030A000740390E00196F8019183808390E080E0C2
:1030B000DFCFCF93DF93EA01FC01E60FF71F6481B6
:1030C0007581868197814381A8DF811109C082E0E3
:1030D00090E09983888384EF9FEFDF91CF910895EB
:1030E00081E090E09983888390E080E0F6CFE5E787
:1030F000F3E04081518162817381480F511D611D50
:10310000711D40835183628373830895CF93C0916F
:1031100074034C2F50E06091750370917603019613
:103120000E94A7368C2FE3DF10927403CF9108958D
:10313000009799F480917503909176032FEFFB012E
:103140002083892B59F02091740330E02F5F3F4F8B
:103150002417350719F4CB01D9CF63CC0895009714
:1031600099F480917503909176032FEFFB012083F2
:10317000892B59F02091740330E02F5F3F4F2417C3
:10318000350719F4CB01C2CF4CCC089523E1AC0133
:10319000249FC001259F900D1124E0917E03F091A2
:1031A0007F03E80FF91F238134812250310981E028
:1031B0002230310508F080E008950F931F93CF93DC
:1031C000DF930091800310918103D0E0C0E080E0A4
:1031D0000C171D0749F491E0811190E0892FDF91D0
:1031E000CF911F910F9108958111F5CFCE01CEDFC0
:1031F0002196EECFA0917E03B0917F03109729F125
:10320000209180033091810382179307F0F453E1FA
:10321000589F9001599F300D1124A20FB31FED91BB
:10322000FC911197309789F012968C91681768F489
:103230008DE0689FE00DF11D112480819181892B23
:1032400021F081E09281491708F080E008959C0107
:1032500043E1429FC001439F900D1124E0917E0302
:10326000F0917F03E80FF91F8385823099F481E0A4
:1032700090E0658176814091C1015091C20164174F
:10328000750711F490E080E0892B21F081E0223075
:10329000310508F080E00895FC01A081B1818DE046
:1032A000689FA00DB11D112413964D915C918585E9
:1032B0009685489F9001499F300D589F300D1124ED
:1032C000C9010196611103C0478144FD0496089528
:1032D000EF92FF920F931F93CF93DF93EA01FC01CC
:1032E000E60FF71F02811381E480F5804F2D6E2DCC
:1032F000C80180DF81110DC082E090E0998388834E
:103300008EEF9FEFDF91CF911F910F91FF90EF9084
:103310000895C8013BDF882339F082E090E099836B
:10332000888388EF9FEFEECF1093C8010093C70109
:10333000E092C901F092CA0181E090E0998388830C
:1033400090E080E0DFCFCF92DF92EF92FF920F9379
:103350001F93CF93DF937A01EC01C60FD71FC09064
:10336000C701D090C8010091C9011091CA01412F35
:10337000602FC6013FDF811110C082E090E0F701AD
:10338000918380838AEF9FEFDF91CF911F910F91FF
:10339000FF90EF90DF90CF900895C601F7DE88236D
:1033A00041F082E090E0F7019183808388EF9FEF06
:1033B000EBCF4C815D816E817F819A8189818F3FC6
:1033C00041F082E090E0F701918380838EEF9FEFE0
:1033D000DBCFE3E1EC9D9001ED9D300D1124E091F8
:1033E0007E03F0917F03E20FF31F0190F081E02D47
:1033F0002DE0029FE00DF11D11240190F081E02DE0
:1034000027E0129FE00DF11D1124808391838B81B1
:10341000828343835483658376831F5F1093CA013D
:1034200081E090E0F7019183808390E080E0ACCF71
:10343000EF92FF920F931F93CF93DF937A018C014A
:10344000060F171FC0917E03D0917F03209781F054
:1034500021E030E0F8018281938140918003509116
:1034600081038417950710F030E020E0232B71F4DE
:1034700082E090E0F701918380838EEF9FEFDF91F0
:10348000CF911F910F91FF90EF90089543E1489FD6
:103490009001499F300D1124C20FD31F77DE88237E
:1034A00041F082E090E0F7019183808388EF9FEF05
:1034B000E6CFF8012481358120383105C8F68781AF
:1034C0008111D6CF4181842F90E08F7E009741F00B
:1034D00082E090E0F7019183808386EF9FEFCFCF6A
:1034E0004F833E832D83268128871986223010F44E
:1034F00021E0288721E030E0F70131832083BFCF2E
:1035000088E090E0FA019183808390E080E0089564
:10351000FB018FEF808381E181838FEF9FEF9383A6
:10352000828380E890E095838483168217820895D1
:10353000FB018FEF808391E0918382839383848367
:1035400084E3858381E090E0978386830895BF922A
:10355000CF92DF92EF92FF920F931F93CF93DF935F
:10356000DA01FC01E60FF71F8181813081F082E0F2
:1035700090E08D939C938FEF9FEFDF91CF911F9100
:103580000F91FF90EF90DF90CF90BF900895C28190
:10359000D381B480858106811781E0907E03F0900D
:1035A0007F03E114F10439F482E090E08D939C9361
:1035B0008CEF9FEFE2CF2091800330918103C217FF
:1035C000D30738F082E090E08D939C938EEF9FEFCD
:1035D000D4CFC230D10538F082E090E08D939C9337
:1035E00086EF9FEFCACF9B2D9D7FB1F78130A1F76A
:1035F000B11005C00130110531F080E004C081E058
:1036000002301105D0F3882339F36D01CE01BEDD00
:10361000882341F082E090E0F6019183808388EF77
:103620009FEFABCF83E18C9FF0018D9FF00D1124B4
:10363000EE0DFF1DB38681E0848716870587108A0B
:10364000178681E090E0F6019183808390E080E02E
:1036500094CF4CE050E066E272E048CA8F929F92AD
:10366000BF92CF92DF92EF92FF920F931F93CF936F
:10367000DF93EA01FC01E60FF71F82819381048149
:10368000B580E0917E03F0917F03309791F482E062
:1036900090E0998388838CEF9FEFDF91CF911F910A
:1036A0000F91FF90EF90DF90CF90BF909F908F9001
:1036B000089520918003309181038217930738F099
:1036C00082E090E0998388838EEF9FEFE6CF23E13D
:1036D000289F6001299FD00C1124EC0DFD1DE08076
:1036E000F180E114F10499F28281081748F78DE026
:1036F000089F80011124E00EF11EF7018081918165
:10370000892B29F6BB20E1F2F7E0BF9E400111248E
:10371000C4010E946327F70191838083E0917E03B7
:10372000F0917F03EC0DFD1D0190F081E02DE00F85
:10373000F11F80819181009739F482E090E09983B4
:1037400088838DEF9FEFA9CFA40170E060E00E9415
:10375000B03680917E0390917F03C80ED91EF6018A
:1037600080819181080F191FF801B28281E090E0F9
:103770009983888390E080E090CFAF92BF92CF9200
:10378000DF92FF920F931F93CF93DF93EA01FC0127
:10379000E60FF71F82819381F48000917E031091E0
:1037A0007F030115110581F482E090E099838883FD
:1037B0008CEF9FEFDF91CF911F910F91FF90DF90E2
:1037C000CF90BF90AF9008952091800330918103F6
:1037D0008217930738F082E090E0998388838EEF18
:1037E0009FEFE8CF2FEF2F0D2C3FA8F723E1289F65
:1037F0006001299FD00C11240C0D1D1DF801808142
:103800009181892B89F6FDE0FF9E50011124C501AD
:103810000E946327F80191838083E0917E03F091F9
:103820007F03EC0DFD1D80819181009739F482E0CA
:1038300090E0998388838DEF9FEFBCCFA50170E066
:1038400060E00E94B036E0917E03F0917F03EC0DC2
:10385000FD1DF28281E090E09983888390E080E012
:10386000A9CFCF92DF92EF92FF920F931F93CF9346
:10387000DF93860F971FFC010281138180917E03E5
:1038800090917F03892B81F082E090E0FA0191838F
:1038900080838CEF9FEFDF91CF911F910F91FF906D
:1038A000EF90DF90CF900895C801B0E0A0E00197BD
:1038B000A109B1098F3F9F4FA105B10540F082E0FA
:1038C00090E0FA01918380838EEF9FEFE4CF7A013D
:1038D00083E1809F6001819FD00C1124C6010E946A
:1038E0006327EC01009741F482E090E0F7019183B7
:1038F00080838DEF9FEFCFCFA60170E060E00E9444
:10390000B036D0937F03C0937E031093810300935E
:10391000800390E080E02FEF3FEF41E061E070E056
:103920008017910741F481E090E0F7019183808353
:1039300090E080E0B0CF3A8B298B1B864C877E8746
:103940006D87188A1F8601966396EACFEF92FF92E1
:103950001F93CF93DF93EC0110E0F12CE12C6A81EF
:103960001617A8F070E0660F771FAE014F5E5F4F2D
:10397000C7010E94C827009721F02FEF3FEF3A8B35
:10398000298BDF91CF911F91FF90EF900895612FC8
:10399000CE0182DC61E070E00E941626E816F9068E
:1039A00008F47C011F5FDBCFF89420917C033091F9
:1039B0007D0381E02115310509F080E0232B09F01A
:1039C000789408952F923F924F925F926F927F92D8
:1039D0008F929F92AF92BF92CF92DF92EF92FF921F
:1039E0000F931F93CF93DF933C01660E771EF30175
:1039F000828193814C01B12CA12CC0917E03D09186
:103A00007F03209769F021E030E06091800370919E
:103A100081038617970710F030E020E0232BD1F4C4
:103A200082E090E0FA01918380838EEF9FEFDF9137
:103A3000CF911F910F91FF90EF90DF90CF90BF90AB
:103A4000AF909F908F907F906F905F904F903F903E
:103A50002F9008958092CB019092CC01A092CD013D
:103A6000B092CE0163E1689F9001699F300D1124EF
:103A7000C20FD31FF3018181833040F082E090E0D8
:103A8000FA019183808386EF9FEFD1CF2A012B81AA
:103A90003C81232BF1F4288139819F8191FF2EC035
:103AA000232B09F46FC0209183039A81422F490F81
:103AB0005527551FBA0141E050E06138710514F0F7
:103AC00050E040E0452B09F45DC02A87920F9093A7
:103AD00083038150823008F481C066DF882309F4B3
:103AE000DAC0F3018181813009F48DC008F47BC014
:103AF000823009F4C8C090E080E0ADC0232B09F407
:103B000041C0209182039A81E22FE90FFF27FF1F16
:103B100041E050E0ED3FF10514F050E040E0452B6E
:103B200089F12A87920F90938203D3CFA081B1812C
:103B3000A20FB31F11966C91060F111D0196295FFC
:103B40003F4F8417950794F38D859E85089F10013C
:103B5000099F300C189F300C1124C114D104D1F4EA
:103B60008F8184FF17C00E946426F5E02F0E311C60
:103B700021E08215930508F420E0A701435F5F4F21
:103B800021110EC082E090E0F2019183808387EFE3
:103B90009FEF4DCF0E9464262FEF221A320AE8CF02
:103BA00088819981E80EF91EF70114830383FFEFE2
:103BB000CF1ADF0A7A018A818C151D0409F00CF4F2
:103BC0008CCFE881F981EE0DFF1D428150E030E09D
:103BD00020E010E000E090E080E0B3CFF12CE12C99
:103BE000D12CC12CE8CF81E090E09C838B83E5DA77
:103BF000882309F480CF81E090E00E94581580E48A
:103C00000E94661578CF89899A89019661F083E0D0
:103C100090E09C838B8382E090E00E94581580E4C2
:103C20000E94601568CF8D819E812091C1013091E5
:103C3000C20182179307D1F46091C5017091C6014A
:103C4000AE014F5E5F4F8091C3019091C4010E940D
:103C5000BA280097E1F2789422E030E0F201318353
:103C60002083892BA9F08DEF9FEFE1CE22E0821611
:103C70009104A104B1045CF6039748F6CE0166DE18
:103C8000188A1F86E6CF82E090E09C838B8333CF37
:103C900090E080E0CCCE82E090E0F20191838083DE
:103CA00085EF9FEFC4CE8F929F92AF92BF92CF923B
:103CB000DF92EF92FF920F931F93CF93DF93EA016E
:103CC0008C01060F171FF8018181833098F082E084
:103CD00090E09983888386EF9FEFDF91CF911F91CA
:103CE0000F91FF90EF90DF90CF90BF90AF909F909B
:103CF0008F90089580917E0390917F03892B61F0CE
:103D000081E090E02091800330918103232B11F416
:103D100090E080E0892B39F482E090E099838883F9
:103D20008EEF9FEFDACF40DE882309F4E1C0F8017F
:103D30008181813009F497C0E8F0823099F42091B4
:103D4000800330918103E0917E03F0917F0390E046
:103D500080E041E050E02817390709F0BFC02DDAB4
:103D6000811117C0789481E090E09983888390E076
:103D700080E0B3CF2091800330918103E0917E03F6
:103D8000F0917F0390E080E041E050E02817390790
:103D900041F481E090E00E94581580E40E9466158D
:103DA000E1CF63817481672B11F0548343830196C3
:103DB0007396ECCFE0917E03F0917F03E00FF11F4B
:103DC0002381348122303105D9F4218932892F3F72
:103DD0003F4FB1F4258136814091C1015091C2011C
:103DE0002417350761F5AF014F5E5F4F6091C50144
:103DF0007091C6018091C3019091C4010E94BA28BC
:103E0000EFEFCE1ADE0AEE0AFE0A0D5E1F4F40915A
:103E100080035091810370E060E0C416D506E60689
:103E2000F7064CF5009731F27894892B09F49BCF73
:103E300082E090E0998388838DEF9FEF4ECF42E040
:103E4000C416D104E104F104DCF623303105C0F6D8
:103E5000CF017CDDE0917E03F0917F03E00FF11F45
:103E6000108A1786CDCF10E000E090E080E0C12CF2
:103E7000D12C7601CCCF0097B9F610E000E0812C70
:103E8000912C540183E0E82EF12C1AC0E0917E03BE
:103E9000F0917F03E00FF11F83819481029749F431
:103EA000F482E38282E090E00E94581580E40E9450
:103EB0006015FFEF8F1A9F0AAF0ABF0A0D5E1F4FF2
:103EC0008091800390918103B0E0A0E0881699066C
:103ED000AA06BB06DCF290E080E0A6CF6381748185
:103EE0006230710511F4548343830196739633CF86
:103EF00082E090E09983888385EF9FEFEECE009774
:103F0000B9F48FEFFB0180832091CB013091CC017C
:103F100043E1429FC001439F900D1124E0917E0335
:103F2000F0917F03E80FF91F8285FB0181830895DB
:103F30000C94111588E090E0FA019183808390E061
:103F400080E0089510927D0310927C03EEE7F3E089
:103F500086E0DF011D928A95E9F789E29BE1909363
:103F60007B0380937A03089580917A0390917B0379
:103F700008952F923F924F925F926F927F928F920D
:103F80009F92AF92BF92CF92DF92EF92FF920F93E8
:103F90001F93CF93DF93CDB7DEB72F970FB6F8946B
:103FA000DEBF0FBECDBFF894E0917C03F0917D039E
:103FB0003196F0937D03E0937C03789440907E03E8
:103FC00050907F034114510409F40DC2E091800325
:103FD000F0918103EF2B09F406C22D8749875A8798
:103FE0006B877C8798878F831201B12CA12C10E0FE
:103FF00000E08091800390918103A816B90618F41F
:104000000115110529F1F89480917C0390917D03AD
:10401000019790937D0380937C037894C8012F9639
:104020000FB6F894DEBF0FBECDBFDF91CF911F91C9
:104030000F91FF90EF90DF90CF90BF90AF909F9047
:104040008F907F906F905F904F903F902F9008954A
:104050007101E418F508D10117968C91179781FD2D
:1040600054C013968D919C911497039709F04DC0FD
:1040700015968D919C91EF81F8858E179F0709F019
:1040800044C0B50190E080E080D48A8320917E0313
:1040900030917F033D832C833D85332309F44CC04D
:1040A0004C815D81452B09F49BC1809180039091E7
:1040B0008103A816B90608F093C1C501C8D88823A2
:1040C000E9F06C817D816E0D7F1D7D836C83DB014A
:1040D0001F968D919C91892B89F0D12CC12CF12CAC
:1040E000E12CAC81BD8112968C9112978E151F0424
:1040F00009F094F450961C921E921F972A81222355
:1041000021F0B50190E080E042D43FEFA31AB30A5A
:1041100043E1240E311C6DCFAC81BD81ED91FC914A
:10412000EC0DFD1D8581968107D7BFEFEB1AFB0AC9
:10413000EDE0CE0ED11CD5CFEC81FD81309709F496
:104140004FC18091800390918103A816B90608F0B1
:1041500047C1EE0DFF1DFF87EE87C50178D88B8321
:10416000882339F1AE85BF851F968D919C9150971C
:10417000019621E01D964D915C918417950709F0F9
:1041800020E02E831982712C10E000E0AE85BF85FF
:1041900012968C91781608F45DC0EE85FF858785B0
:1041A00090890196658576850E945236908B878727
:1041B000A5CFB1E0BE83E6CF992493946BC083D69C
:1041C000F6019683858383C0D601ED90FC90B7E01D
:1041D0006B9EE00CF11C1124F701638174818081D6
:1041E0008F3F61F121E030E002C0220F331F8A953A
:1041F000E2F7C901092E000CAA0BBB0BFB014081A1
:1042000051816281738184239523A623B72321E002
:10421000892B8A2B8B2B09F420E0D4012C93D70116
:1042200011968C91F60123853485820F932F911D71
:10423000880E991E1486138663949CC0418150E0B9
:10424000C4010E94A736EBCF998206EF1FEFC6C0CC
:104250001982C4C0F981F111A0CFEDE07E9E7001FA
:104260001124AE85BF85CD90DC90CE0CDF1C15D41B
:104270009D838C83BB81BB2309F49ECF81E0EE85B7
:10428000FF8527853089232B09F080E0982E88232D
:1042900009F459C0672D8E859F850E944C19D6015F
:1042A00018969C938E93179761E070E0BFD4EE85CB
:1042B000FF85218932892F3F320709F480CFBC0165
:1042C000C90199D7D60116969C938E931597D6015E
:1042D00015968D919C911697009709F4B5CFEC81B6
:1042E000FD818E0F9F1F1A969C938E931997AE8512
:1042F000BF85ED91FC911197EE0EFF1EF701218510
:104300003285148613861A968C91870DD9018D9368
:10431000711016C0EE85FF85878184FF11C0498525
:104320005A856B857C85F90141835283638374834D
:10433000F701838594850496A80FB91F1486138608
:10434000F701B287A187D60115968D919C9116979A
:10435000892B09F443C0EE85FF8525813681809144
:10436000C1019091C2012817390779F019968D90F3
:104370009C90612CD60112968C911297681608F4C5
:1043800023CF1A969C928E921997BE81BB2309F473
:104390005FCF61E070E0F6018781908547D4D60158
:1043A0001796ED90FC90189715964D915C91E1E071
:1043B000F0E0BA81BB2311F0F0E0E0E00C811D8158
:1043C0009C01B501882799278E1B9F0B69D38C010F
:1043D000892B21F0F60185819681AED57394D6CED6
:1043E0000FEF1FEF8BCE10E000E00DCE2F923F922B
:1043F0004F925F926F927F928F929F92AF92BF92F5
:10440000CF92DF92EF92FF920F931F93CF93DF93A0
:1044100080917E0390917F0310E000E0892BA9F04A
:10442000C3DA0AEF1FEF882381F0209080033090D9
:104430008103C0917E03D0917F03D12CC12C10E069
:1044400000E02C143D04A9F47894C801DF91CF91C9
:104450001F910F91FF90EF90DF90CF90BF90AF90A2
:104460009F908F907F906F905F904F903F902F9094
:104470000895C6010E942719882309F18B819C8128
:104480000397E9F48F859889892BC9F0B60190E0EC
:1044900080E07BD221E030E0882311F030E020E0A2
:1044A00044245524421A530AB12CA12C912C812C5E
:1044B0008A818815190409F038F4188A1F864FEF8D
:1044C000C41AD40A6396BDCFE881F981EA0DFB1DB9
:1044D00085819681892BA1F161E070E087819085CB
:1044E000A5D33C01DAD28C01E881F981EA0DFB1DEC
:1044F0008185928525813681200F311FAC01421BB9
:10450000530B9A0147815085421B530B70E060E0CA
:104510000E94B036E881F981EA0DFB1DE780F08446
:10452000458156819301B601C201BAD28C01892B13
:1045300039F0E881F981EA0DFB1D85819681FCD473
:104540005FEF851A950A8DE0A80EB11CB1CF2CCA79
:10455000789408952F923F924F925F926F927F923C
:104560009F92AF92BF92CF92DF92EF92FF920F9302
:104570001F93CF93DF9300D000D000D0CDB7DEB72C
:1045800000917E0310917F039924939401151105E6
:1045900009F43EC0A0908003B090810305DA982E04
:1045A0008823B1F110927F0310927E031092810351
:1045B0001092800310928203109283038FEF9FEF7B
:1045C000DC018093CB019093CC01A093CD01B093FB
:1045D000CE0178947BD31E830D83C12CD12C760120
:1045E000C501B0E0A0E089839A83AB83BC83222419
:1045F0002A94322C89819A81AB81BC81C816D90654
:10460000EA06FB06F4F0C80197D480E40E94661520
:10461000892D26960FB6F894DEBF0FBECDBFDF9171
:10462000CF911F910F91FF90EF90DF90CF90BF90AF
:10463000AF909F907F906F905F904F903F902F90A2
:104640000895AD81BE8115968D919C91169720910C
:10465000C1013091C20182179307D1F451968D9117
:104660009C91B7D5ED81FE8180819181B12CA12CE7
:10467000412C512C3201892B91F5BFEFCB1ADB0A6B
:10468000EB0AFB0AED81FE817396FE83ED83B2CFC8
:10469000B2E0CB16D104E104F10424F7039710F73C
:1046A000ED81FE81818992898F3F980709F00CD5B1
:1046B000AD81BE8152963C922E925197D3CF8A0DF6
:1046C0009B1DDC018D919C91009709F035D4BFEFC3
:1046D0004B1A5B0A6B0A7B0AEDE0AE0EB11CAD8192
:1046E000BE818D919C91119712964C9150E070E093
:1046F00060E044165506660677060CF31DD4BDCF60
:10470000CF93DF93EA0126DF811109C082E090E0B8
:104710009983888385EF9FEFDF91CF91089581E0A2
:1047200090E00E94581581E090E09983888390E0A2
:1047300080E0F2CF0FDF10927B0310927A0308958E
:1047400042E050E06EE672E00C947615FF920F9313
:104750001F93CF93DF938A01EC01C60FD71FF98017
:10476000B4D20897F816190671F068F082E090E06C
:10477000F801918380838EEF9FEFDF91CF911F919E
:104780000F91FF9008956C817D818E819F814B8177
:104790000E940D18811108C082E090E0F801918319
:1047A000808384EF9FEFE9CFF9800E9408184F2D96
:1047B00050E0BE01685F7F4F0E94A73689810E944A
:1047C000771881E090E0F8019183808390E080E0A9
:1047D000D4CFDF92EF92FF920F931F93CF93DF938B
:1047E0008A01EC01C60FD71F0E9408187C01D980EE
:1047F0006CD2DD2059F0029721E030E0D81619067E
:1048000019F010F030E020E0232B79F482E090E002
:10481000F801918380838EEF9FEFDF91CF911F91FD
:104820000F91FF90EF90DF900895EF2841F482E020
:1048300090E0F8019183808384EF9FEFEECFF980C1
:104840000E9408184F2D50E0BE016E5F7F4F0E94FE
:10485000A73689810E94771881E090E0F801918362
:10486000808390E080E0D9CF80EA93E29093850343
:104870008093840308958091840390918503089523
:104880000895FC0111821082938382830895DB01D5
:104890001D921C92DC011296ED91FC91139771838D
:1048A000608313967C936E9312970895FC01808128
:1048B0009181DB018D939C93A081B181109741F090
:1048C0008D919C9191838083892B11F4F383E283F2
:1048D0000895FC0180819181DB018D939C93892B4C
:1048E00011F473836283718360830895FC011182E4
:1048F0001082938382830895CF93DF9300D0CDB746
:10490000DEB71A821982F894BE016F5F7F4F8BE881
:1049100093E0CCDF89819A81009709F00DD38981DA
:104920009A81892B89F7BE016F5F7F4F8FE893E0F3
:10493000BDDF89819A81009709F0FED289819A8131
:10494000892B89F778940F900F90DF91CF9108957C
:10495000CF93DF9300D0CDB7DEB71A821982F894D7
:10496000BE016F5F7F4F87E893E0A0DF89819A8166
:10497000009709F0E1D289819A81892B89F778948F
:104980000F900F90DF91CF91089581E0089590E00E
:1049900080E00895EF92FF920F931F93CF93DF93E0
:1049A00000D0CDB7DEB71A8219828091860307EF57
:1049B0001FEF8823A1F1F894BE016F5F7F4F8FE84E
:1049C00093E074DF789489819A81EE24E394F12C4A
:1049D000892B51F4F894BE016F5F7F4F8BE893E011
:1049E00065DF7894F12CE12C89819A810EEF1FEF1D
:1049F0000097A9F0FC014281538164E070E03FD64A
:104A00008C01892B61F0F89469817A81C701880F44
:104A1000991F880F991F85579C4F5BDF7894C801B9
:104A20000F900F90DF91CF911F910F91FF90EF901A
:104A300008950F931F93CF93DF9300D000D0CDB78D
:104A4000DEB71C821B821A8219828091860307EFCF
:104A50001FEF8823C1F0AE014D5F5F4F64E070E04F
:104A6000CE0101967FD68C01892B69F4E981FA8108
:104A70008B819C8193838283F89469817A8187E812
:104A800093E005DF7894C8010F900F900F900F907E
:104A9000DF91CF911F910F91089584D704960895C7
:104AA0008F929F92AF92BF92CF92DF92EF92FF923E
:104AB0000F931F93CF93DF9300D0CDB7DEB71A8249
:104AC0001982BC016F5F7F4F6330710598F0AA2493
:104AD000AA94BA2CC5010F900F90DF91CF911F912E
:104AE0000F91FF90EF90DF90CF90BF90AF909F908D
:104AF0008F9008954115510551F3480159018A01DC
:104B00006C01CBDF8815990511F7E114F104F9F276
:104B10008E0D9F1DA816B906D0F2809186038823BA
:104B2000F1F0F894B501645071099701AE014F5F3F
:104B30005F4FC8010496ABD65C01892B71F4898163
:104B40009A81F80193838283C601880F991F880F89
:104B5000991FB80185579C4F9ADE7894BBCF87EF99
:104B6000A82EBB24BA94B6CFAF92BF92CF92DF9259
:104B7000EF92FF920F931F93CF93DF9300D0CDB7A7
:104B8000DEB71A821982892B09F047C061157105B9
:104B900009F443C04115510509F43FC02115310501
:104BA00009F43BC001151105C1F1809186038823EA
:104BB000B9F179016A015B01F894BE016F5F7F4F23
:104BC00087E893E073DE789489819A81009759F1A0
:104BD000DC0112966D917C91A801049671D68C012E
:104BE000E981FA81D501ED93FC938281938104964A
:104BF000F6019183808351DFD7018D939C93C80187
:104C00000F900F90DF91CF911F910F91FF90EF9038
:104C1000DF90CF90BF90AF9008950FEF1FEFEFCFD1
:104C200007EF1FEFECCF0EEF1FEFE9CFCF93DF932E
:104C3000EC01672B71F4BFD68C179D0760F0B2D6DC
:104C40002496C80FD91FB1D68C0F9D1FDF91CF912D
:104C50000895AED6F1CF90E080E0F8CF0F931F9388
:104C6000CF93DF932091860321112BC08B01EC01A0
:104C70008BE893E006DE8FE893E003DE87E893E0BD
:104C800000DE97D00097C1F496D670E060E0CEDFEA
:104C90004FEC51E062E070E07BD1009769F48091C5
:104CA000CF019091D00199D6B801CE01CED4009712
:104CB00019F421E020938603DF91CF911F910F918A
:104CC000089584EF9FEFF8CF73C675C6CF93DF9337
:104CD00075D6EC01892B11F40FDE3ADECE01DF919F
:104CE000CF910895CF93DF9369D6EC01892B09F416
:104CF00003DECE01DF91CF9108958091CF01909195
:104D0000D0010895CF93DF9380918603D0E0C0E077
:104D10008823D1F067D6EC01892BB1F4EDDD18DEE4
:104D20008091CF019091D001CFD1B5D2EC01892BE8
:104D300059F48BE893E0DADD8FE893E0D7DD87E87C
:104D400093E0D4DD10928603CE01DF91CF910895D8
:104D5000EF92FF920F931F93CF93DF93EC017A01B1
:104D60008B010F5F1F4F0E9DA0010F9D500D1E9DCB
:104D7000500D112470E060E00E94B03690E080E0B9
:104D8000F0E0E0E02FEFE816F90639F4DF91CF917B
:104D90001F910F91FF90EF9008951A821982288336
:104DA000309711F0D283C1830196FE01C00FD11F4D
:104DB000EACFAF92BF92CF92DF92EF92FF920F9322
:104DC0001F93CF93DF9381EC94E07C012CEFE222E0
:104DD00043E050E061ED71E087ED91E0E3D381EDD8
:104DE000C82E81E0D82E97EDA92E91E0B92ECAE900
:104DF000D5E08E01D6014D915D916D01F501619176
:104E000071915F01D8011196FC92EE9215965C9318
:104E10004E93149713965C934E93129717967C9328
:104E20006E9316979B012F5F3F4F249FC001259FD4
:104E3000900D349F900D112419969C938E93189782
:104E4000E114F10411F0C70183DFF8018085918539
:104E5000E80EF91E065F1F4FF7EDCF16F1E0DF06F3
:104E600049F6E5E9F3E089E291E0DF019C011D925A
:104E700021503040E1F710929403109293031F8E5B
:104E80001E8E1BA21AA219A218A21DA21CA21FA24A
:104E90001EA22A9635E0C83BD30789F710929705E2
:104EA00010929605109299051092980590E080E076
:104EB000DF91CF911F910F91FF90EF90DF90CF90F6
:104EC000BF90AF9008950097F1F0F894A7EDB1E08E
:104ED000EAE9F5E030E020E04D915D91481759078F
:104EE000A8F0428153814115510581F08AE0829FEB
:104EF000F001839FF00D1124E656FA4F80819181D5
:104F0000009759F4789490E080E008952F5F3F4F28
:104F10003A962330310501F7F5CFDC0111966D91FA
:104F20007C91718360834150510953834283FC011A
:104F30002193CF0178940895009749F1DC018E9177
:104F4000863041F4E0919805F09199053097F9F099
:104F5000CD0109948630D8F4282F30E0F8948FEFF3
:104F60008C938AE0829FF001839FF00D1124E65616
:104F7000FA4F8081918112969C938E931197B18301
:104F8000A08382819381019693838283789408958C
:104F9000CF92DF92EF92FF920F931F93CF93DF9305
:104FA0009C0188E993E08C7F4115510509F489C083
:104FB0002115310509F485C06115710509F481C019
:104FC0008A01AB01B9016D5F7F4F6C7F9B012F5F41
:104FD0003F4F249F7001259FF00C349FF00C11244B
:104FE000F894EAE9F5E023E030E0E901A6A1B7A1F1
:104FF000C68CD78CCD2809F058C0109709F03EC058
:10500000C0909303D090940326E231E02C193D091F
:105010002E153F0530F47894CFEFDFEF86EF9FEF4A
:1050200021C02AE02C9FF0012D9FF00D1124E6569F
:10503000FA4F9183808355834483538342837783DC
:105040006683F186E086009709F082DEEC0CFD1C99
:10505000F0929403E09293037894CF3FDC07F1F24F
:1050600090E080E0F801D183C083DF91CF911F9160
:105070000F91FF90EF90DF90CF900895AE15BF0590
:10508000A0F02AE02C9FF0012D9FF00D1124E65690
:10509000FA4F91838083558344835383428377837C
:1050A00066830097C9F254DED7CF8A0F9B1F2F5F0C
:1050B0003F4F3A962630310509F097CFCFEFDFEF1B
:1050C000CBCF8FEF9FEFD1CF9C010397039708F0D1
:1050D0004EC0F89485E09AE0482F50E02417350739
:1050E0009CF191E08AE0829FF001839FF00D1124F2
:1050F000E656FA4F118210821582148213821282B0
:10510000178216829923E1F0809193039091940382
:10511000EAE9F5E0268D378D232B49F426A137A146
:105120002115310521F0821B930B17A216A23A9686
:1051300025E0E83BF20771F7909394038093930383
:10514000789490E080E00895949FF001959FF00D91
:105150001124E656FA4F40815181452B31F44085A8
:105160005185452B11F48150B7CF90E0BBCF8FEF25
:105170009FEF08954115510549F1009739F16115E7
:10518000710521F1F8942091960530919705232B14
:10519000B9F42091980530919905232B89F49093C7
:1051A0009705809396057093990560939805789478
:1051B00026E030E090E080E0FA013183208308951A
:1051C00078942FEF3FEF86EF9FEFF6CF8FEF9FEFB3
:1051D0000895069769F4F894109297051092960531
:1051E0001092990510929805789490E080E00895C7
:1051F0008FEF9FEF08956115710519F4F0E0E0E07D
:1052000011C08630910581F4E0919605F0919705E3
:105210003097A1F3CB0101960995009779F3FC0132
:1052200086E08193CF0108959C01235031092330FA
:10523000310520F72AE0289FD001299FB00D1124C5
:10524000A656BA4F2D913C911197232BB9F2169681
:105250002D913C9117972617370780F2F8941296F4
:105260002D913C9113972115310529F0ED91FC9179
:105270001197309711F47894C1CF418152811196E2
:105280005C934E932150310913963C932E931297C1
:1052900081937894C7CFEEEBF4E088EDDF011D92A7
:1052A0008A95E9F7E5E9F3E089E291E0DF019C0105
:1052B0001D9221503040E1F7109294031092930315
:1052C000EAE9F5E08CE3DF011D928A95E9F7E6E96A
:1052D000F5E084E0DF011D928A95E9F790E080E037
:1052E0000895CF93DF93C091DD01D091DE01CF3FD0
:1052F000DC0759F40AD49093DE018093DD0197FF17
:1053000009C0D093DE01C093DD0184EF9FEFDF91F0
:10531000CF91089590E080E0FACF8230910528F493
:105320008093D60590E080E008958FEF9FEF089579
:105330004F925F926F927F92AF92BF92CF92DF9225
:10534000EF92FF920F931F93CF93DF9300D0CDB7CF
:10535000DEB71A821982009709F479C061157105C8
:1053600009F475C02091DD013091DE0107EF1FEFD8
:105370002F3F3F4F09F445C06B015C01412C512C7C
:105380003201F12CE12C10E000E09E012F5F3F4F35
:10539000A6014E195F09B5016E0D7F1D8091DD01DB
:1053A0009091DE0111D4892B09F04BC089819A813B
:1053B000009741F4E114F10429F42091D605222349
:1053C00009F442C0E80EF91EEC14FD04D0F480E8A4
:1053D000481684E858068EE16806710420F560E0FE
:1053E00070E0CB010E944B332AE0420E511C611C3D
:1053F000711C0A3F4FEF140721F0043F8FEF18078D
:10540000A1F4C8010F900F90DF91CF911F910F91E0
:10541000FF90EF90DF90CF90BF90AF907F906F9014
:105420005F904F90089501EF1FEF81E090E0013F02
:105430002FEF120711F090E080E0892B09F4A5CF3F
:10544000E0CF04EF1FEFDDCF0AEF1FEFDACF0FEF52
:105450001FEFD7CF4F925F926F927F92AF92BF9222
:10546000CF92DF92EF92FF920F931F93CF93DF9330
:1054700000D0CDB7DEB71A821982009709F479C03F
:105480006115710509F475C02091DD013091DE01CF
:1054900007EF1FEF2F3F3F4F09F445C06B015C0141
:1054A000412C512C3201F12CE12C10E000E09E0146
:1054B0002F5F3F4FA6014E195F09B5016E0D7F1D8D
:1054C0008091DD019091DE0135D3892B09F04BC02D
:1054D00089819A81009741F4E114F10429F4209123
:1054E000D605222309F442C0E80EF91EEC14FD048F
:1054F000D0F480E4481682E458068FE06806710410
:1055000020F560E070E0CB010E944B332AE0420EB0
:10551000511C611C711C0E3F4FEF140721F0043F1A
:105520008FEF1807A1F4C8010F900F90DF91CF9172
:105530001F910F91FF90EF90DF90CF90BF90AF90B1
:105540007F906F905F904F90089502EF1FEF81E082
:1055500090E0023F2FEF120711F090E080E0892BDE
:1055600009F4A5CFE0CF04EF1FEFDDCF0EEF1FEF63
:10557000DACF0FEF1FEFD7CF8091DD019091DE01E1
:105580008F3F980749F0B9D2892B49F48FEF9FEFED
:105590009093DE018093DD0190E080E0089584EF38
:1055A0009FEF0895CF92DF92EF92FF920F931F9398
:1055B000CF93DF9321E04115510509F020E04150E0
:1055C000510921112CC0DC01FB01D12CC12C21E09F
:1055D00022C03FEFC31AD30A7D010D911D91E7014F
:1055E000EA80FB80E016F106A8F420813181E28098
:1055F000F380F182E08233832283ED90FC90119757
:105600009D0122503109E901F982E88211961C932B
:105610000E9320E03296C416D506D8F2D2CFDF9191
:10562000CF911F910F91FF90EF90DF90CF90089551
:10563000FC01680F791F90E080E0E617F70709F496
:1056400008952191820F911DF8CF2091D705211146
:1056500013C047DE009791F41092DD051092DC052F
:105660001092DB051092DA051092D9051092D80538
:1056700021E02093D705089584EF9FEF0895AF921E
:10568000BF92CF92DF92EF92FF920F931F93CF932F
:10569000DF93009709F460C04630510508F45CC000
:1056A0002091D705C7EFDFEF222309F449C08C0111
:1056B000060F171FF801C080D180C114D10409F46E
:1056C0004EC096012A5F3F4F4217530708F447C068
:1056D0007C018091DC059091DD0593838283B60186
:1056E0006C5F7F4F5801A60EB71EC801A1DFF50100
:1056F0009183808364E070E0C8011ADEEC01892B9D
:10570000F9F481E090E009DEB601C801049610DEEC
:10571000EC01892B91F462E070E0C50109DEEC0137
:10572000892B59F4C70108DC8091DC059091DD05D7
:1057300001969093DD058093DC0590E080E0EDDD3F
:10574000CE01DF91CF911F910F91FF90EF90DF90ED
:10575000CF90BF90AF900895CFEFDFEFF1CFC9EFBB
:10576000DFEFEECF6F927F928F929F92AF92BF92B8
:10577000CF92DF92EF92FF920F931F93CF93DF931D
:1057800000D000D0CDB7DEB7009709F47AC041153C
:10579000510509F476C02091D70507EF1FEF2223AA
:1057A00009F44DC03A017B015C0164E070E0CE0178
:1057B000019650DE8C01892B09F041C009811A81C4
:1057C0000115110509F45AC0480186E0880E911CA4
:1057D000B701680D791D8091DF019091E0010BDD2B
:1057E0006C01009709F450C0A70170E060E00E94CE
:1057F000B03689819A81AB81BC81EC0CFD1CF7012C
:1058000081939193A193B1937F0181E090E085DD35
:10581000B801C7011FDE892B31F562E070E0C701D6
:10582000800F911F17DE8C01892BE9F490E080E056
:1058300074DDF501D182C082F30191828082C801BA
:105840000F900F900F900F90DF91CF911F910F91BC
:10585000FF90EF90DF90CF90BF90AF909F908F9090
:105860007F906F90089590E080E057DDF501118200
:105870001082F30111821082C6015EDB09EF1FEF77
:10588000DECF0FEF1FEFDBCF06EF1FEFD8CF009774
:10589000A1F04115510589F02115310571F0F9018B
:1058A00036966E177F0748F0DC012D933C93DA01A2
:1058B000ED93FC9390E080E008958FEF9FEF0895C3
:1058C000AF92BF92CF92DF92EF92FF920F931F930E
:1058D000CF93DF93009709F45FC04115510509F498
:1058E0005BC06530710508F457C02091D705C7EF3C
:1058F000DFEF222391F1DC01CD90DC90119712961D
:10590000ED91FC9196012A5F3F4FC9EFDFEF26171B
:10591000370719F5C091D805D091D905209749F5D9
:1059200021E030E03093D9052093D8057A018C012D
:10593000F093DB05E093DA055601B4E0AB0EB11C41
:10594000B50176DE0A0D1B1DF80120813181821719
:10595000930729F5D701CD92DC92CE01DF91CF914B
:105960001F910F91FF90EF90DF90CF90BF90AF907D
:1059700008952091DA053091DB052F5F3F4FCCEF82
:10598000DFEFE217F30790F2CBEFDFEF2E173F07C1
:1059900068F2D0E0C0E0CACFCFEFDFEFDECFC3EFD9
:1059A000DFEFDBCF84E090E0089582E090E008959F
:1059B0008CEF9FEF089580E290E008951092DD054E
:1059C0001092DC051092DB051092DA051092D905D1
:1059D0001092D80590E080E008959093E0018093C4
:1059E000DF0108958091D705882391F0C5DD0097E8
:1059F00089F41092DD051092DC051092DB051092FF
:105A0000DA051092D9051092D8051092D70508959D
:105A100090E080E00895009749F06115710531F03C
:105A2000FC0111821082FB01118210820895F3CFD4
:105A300026E030E040E855E260E070E090E080E091
:105A400000C0892B21F480EF95E00C944035089537
:105A50001F920F920FB60F9211242F933F934F93E3
:105A60005F936F937F938F939F93AF93BF93EF93C6
:105A7000FF9386E09FEF9093850080938400B8D0D9
:105A8000FF91EF91BF91AF919F918F917F916F9116
:105A90005F914F913F912F910F900FBE0F901F90EC
:105AA000189586E09FEF9093850080938400AFE681
:105AB000B0E08C918E7F8C93E0E8F0E080818C7F69
:105AC0008083E1E8F0E08081877E8083808183604D
:105AD000808380818B7F80838C9181608C930895FB
